{
  "_format": "hh-sol-artifact-1",
  "contractName": "Danyang",
  "sourceName": "contracts/Danyang.sol",
  "abi": [
    {
      "inputs": [
        {
          "internalType": "address",
          "name": "initialOwner",
          "type": "address"
        },
        {
          "internalType": "string",
          "name": "initialBaseURI",
          "type": "string"
        },
        {
          "internalType": "string",
          "name": "initialJoinCode",
          "type": "string"
        }
      ],
      "stateMutability": "nonpayable",
      "type": "constructor"
    },
    {
      "inputs": [],
      "name": "CheckpointUnorderedInsertion",
      "type": "error"
    },
    {
      "inputs": [],
      "name": "ECDSAInvalidSignature",
      "type": "error"
    },
    {
      "inputs": [
        {
          "internalType": "uint256",
          "name": "length",
          "type": "uint256"
        }
      ],
      "name": "ECDSAInvalidSignatureLength",
      "type": "error"
    },
    {
      "inputs": [
        {
          "internalType": "bytes32",
          "name": "s",
          "type": "bytes32"
        }
      ],
      "name": "ECDSAInvalidSignatureS",
      "type": "error"
    },
    {
      "inputs": [
        {
          "internalType": "uint256",
          "name": "timepoint",
          "type": "uint256"
        },
        {
          "internalType": "uint48",
          "name": "clock",
          "type": "uint48"
        }
      ],
      "name": "ERC5805FutureLookup",
      "type": "error"
    },
    {
      "inputs": [],
      "name": "ERC6372InconsistentClock",
      "type": "error"
    },
    {
      "inputs": [
        {
          "internalType": "address",
          "name": "sender",
          "type": "address"
        },
        {
          "internalType": "uint256",
          "name": "tokenId",
          "type": "uint256"
        },
        {
          "internalType": "address",
          "name": "owner",
          "type": "address"
        }
      ],
      "name": "ERC721IncorrectOwner",
      "type": "error"
    },
    {
      "inputs": [
        {
          "internalType": "address",
          "name": "operator",
          "type": "address"
        },
        {
          "internalType": "uint256",
          "name": "tokenId",
          "type": "uint256"
        }
      ],
      "name": "ERC721InsufficientApproval",
      "type": "error"
    },
    {
      "inputs": [
        {
          "internalType": "address",
          "name": "approver",
          "type": "address"
        }
      ],
      "name": "ERC721InvalidApprover",
      "type": "error"
    },
    {
      "inputs": [
        {
          "internalType": "address",
          "name": "operator",
          "type": "address"
        }
      ],
      "name": "ERC721InvalidOperator",
      "type": "error"
    },
    {
      "inputs": [
        {
          "internalType": "address",
          "name": "owner",
          "type": "address"
        }
      ],
      "name": "ERC721InvalidOwner",
      "type": "error"
    },
    {
      "inputs": [
        {
          "internalType": "address",
          "name": "receiver",
          "type": "address"
        }
      ],
      "name": "ERC721InvalidReceiver",
      "type": "error"
    },
    {
      "inputs": [
        {
          "internalType": "address",
          "name": "sender",
          "type": "address"
        }
      ],
      "name": "ERC721InvalidSender",
      "type": "error"
    },
    {
      "inputs": [
        {
          "internalType": "uint256",
          "name": "tokenId",
          "type": "uint256"
        }
      ],
      "name": "ERC721NonexistentToken",
      "type": "error"
    },
    {
      "inputs": [
        {
          "internalType": "address",
          "name": "account",
          "type": "address"
        },
        {
          "internalType": "uint256",
          "name": "currentNonce",
          "type": "uint256"
        }
      ],
      "name": "InvalidAccountNonce",
      "type": "error"
    },
    {
      "inputs": [],
      "name": "InvalidShortString",
      "type": "error"
    },
    {
      "inputs": [
        {
          "internalType": "address",
          "name": "owner",
          "type": "address"
        }
      ],
      "name": "OwnableInvalidOwner",
      "type": "error"
    },
    {
      "inputs": [
        {
          "internalType": "address",
          "name": "account",
          "type": "address"
        }
      ],
      "name": "OwnableUnauthorizedAccount",
      "type": "error"
    },
    {
      "inputs": [],
      "name": "ReentrancyGuardReentrantCall",
      "type": "error"
    },
    {
      "inputs": [
        {
          "internalType": "uint8",
          "name": "bits",
          "type": "uint8"
        },
        {
          "internalType": "uint256",
          "name": "value",
          "type": "uint256"
        }
      ],
      "name": "SafeCastOverflowedUintDowncast",
      "type": "error"
    },
    {
      "inputs": [
        {
          "internalType": "string",
          "name": "str",
          "type": "string"
        }
      ],
      "name": "StringTooLong",
      "type": "error"
    },
    {
      "inputs": [
        {
          "internalType": "uint256",
          "name": "expiry",
          "type": "uint256"
        }
      ],
      "name": "VotesExpiredSignature",
      "type": "error"
    },
    {
      "anonymous": false,
      "inputs": [
        {
          "indexed": true,
          "internalType": "address",
          "name": "owner",
          "type": "address"
        },
        {
          "indexed": true,
          "internalType": "address",
          "name": "approved",
          "type": "address"
        },
        {
          "indexed": true,
          "internalType": "uint256",
          "name": "tokenId",
          "type": "uint256"
        }
      ],
      "name": "Approval",
      "type": "event"
    },
    {
      "anonymous": false,
      "inputs": [
        {
          "indexed": true,
          "internalType": "address",
          "name": "owner",
          "type": "address"
        },
        {
          "indexed": true,
          "internalType": "address",
          "name": "operator",
          "type": "address"
        },
        {
          "indexed": false,
          "internalType": "bool",
          "name": "approved",
          "type": "bool"
        }
      ],
      "name": "ApprovalForAll",
      "type": "event"
    },
    {
      "anonymous": false,
      "inputs": [
        {
          "indexed": true,
          "internalType": "address",
          "name": "delegator",
          "type": "address"
        },
        {
          "indexed": true,
          "internalType": "address",
          "name": "fromDelegate",
          "type": "address"
        },
        {
          "indexed": true,
          "internalType": "address",
          "name": "toDelegate",
          "type": "address"
        }
      ],
      "name": "DelegateChanged",
      "type": "event"
    },
    {
      "anonymous": false,
      "inputs": [
        {
          "indexed": true,
          "internalType": "address",
          "name": "delegate",
          "type": "address"
        },
        {
          "indexed": false,
          "internalType": "uint256",
          "name": "previousVotes",
          "type": "uint256"
        },
        {
          "indexed": false,
          "internalType": "uint256",
          "name": "newVotes",
          "type": "uint256"
        }
      ],
      "name": "DelegateVotesChanged",
      "type": "event"
    },
    {
      "anonymous": false,
      "inputs": [],
      "name": "EIP712DomainChanged",
      "type": "event"
    },
    {
      "anonymous": false,
      "inputs": [
        {
          "indexed": true,
          "internalType": "address",
          "name": "previousOwner",
          "type": "address"
        },
        {
          "indexed": true,
          "internalType": "address",
          "name": "newOwner",
          "type": "address"
        }
      ],
      "name": "OwnershipTransferred",
      "type": "event"
    },
    {
      "anonymous": false,
      "inputs": [
        {
          "indexed": true,
          "internalType": "address",
          "name": "from",
          "type": "address"
        },
        {
          "indexed": true,
          "internalType": "address",
          "name": "to",
          "type": "address"
        },
        {
          "indexed": true,
          "internalType": "uint256",
          "name": "tokenId",
          "type": "uint256"
        }
      ],
      "name": "Transfer",
      "type": "event"
    },
    {
      "inputs": [],
      "name": "CLOCK_MODE",
      "outputs": [
        {
          "internalType": "string",
          "name": "",
          "type": "string"
        }
      ],
      "stateMutability": "view",
      "type": "function"
    },
    {
      "inputs": [
        {
          "internalType": "address",
          "name": "to",
          "type": "address"
        },
        {
          "internalType": "uint256",
          "name": "tokenId",
          "type": "uint256"
        }
      ],
      "name": "approve",
      "outputs": [],
      "stateMutability": "nonpayable",
      "type": "function"
    },
    {
      "inputs": [
        {
          "internalType": "address",
          "name": "owner",
          "type": "address"
        }
      ],
      "name": "balanceOf",
      "outputs": [
        {
          "internalType": "uint256",
          "name": "",
          "type": "uint256"
        }
      ],
      "stateMutability": "view",
      "type": "function"
    },
    {
      "inputs": [],
      "name": "buy",
      "outputs": [],
      "stateMutability": "payable",
      "type": "function"
    },
    {
      "inputs": [],
      "name": "clock",
      "outputs": [
        {
          "internalType": "uint48",
          "name": "",
          "type": "uint48"
        }
      ],
      "stateMutability": "view",
      "type": "function"
    },
    {
      "inputs": [
        {
          "internalType": "address",
          "name": "delegatee",
          "type": "address"
        }
      ],
      "name": "delegate",
      "outputs": [],
      "stateMutability": "nonpayable",
      "type": "function"
    },
    {
      "inputs": [
        {
          "internalType": "address",
          "name": "delegatee",
          "type": "address"
        },
        {
          "internalType": "uint256",
          "name": "nonce",
          "type": "uint256"
        },
        {
          "internalType": "uint256",
          "name": "expiry",
          "type": "uint256"
        },
        {
          "internalType": "uint8",
          "name": "v",
          "type": "uint8"
        },
        {
          "internalType": "bytes32",
          "name": "r",
          "type": "bytes32"
        },
        {
          "internalType": "bytes32",
          "name": "s",
          "type": "bytes32"
        }
      ],
      "name": "delegateBySig",
      "outputs": [],
      "stateMutability": "nonpayable",
      "type": "function"
    },
    {
      "inputs": [
        {
          "internalType": "address",
          "name": "account",
          "type": "address"
        }
      ],
      "name": "delegates",
      "outputs": [
        {
          "internalType": "address",
          "name": "",
          "type": "address"
        }
      ],
      "stateMutability": "view",
      "type": "function"
    },
    {
      "inputs": [],
      "name": "eip712Domain",
      "outputs": [
        {
          "internalType": "bytes1",
          "name": "fields",
          "type": "bytes1"
        },
        {
          "internalType": "string",
          "name": "name",
          "type": "string"
        },
        {
          "internalType": "string",
          "name": "version",
          "type": "string"
        },
        {
          "internalType": "uint256",
          "name": "chainId",
          "type": "uint256"
        },
        {
          "internalType": "address",
          "name": "verifyingContract",
          "type": "address"
        },
        {
          "internalType": "bytes32",
          "name": "salt",
          "type": "bytes32"
        },
        {
          "internalType": "uint256[]",
          "name": "extensions",
          "type": "uint256[]"
        }
      ],
      "stateMutability": "view",
      "type": "function"
    },
    {
      "inputs": [
        {
          "internalType": "uint256",
          "name": "tokenId",
          "type": "uint256"
        }
      ],
      "name": "getApproved",
      "outputs": [
        {
          "internalType": "address",
          "name": "",
          "type": "address"
        }
      ],
      "stateMutability": "view",
      "type": "function"
    },
    {
      "inputs": [],
      "name": "getJoinCode",
      "outputs": [
        {
          "internalType": "string",
          "name": "",
          "type": "string"
        }
      ],
      "stateMutability": "view",
      "type": "function"
    },
    {
      "inputs": [
        {
          "internalType": "uint256",
          "name": "timepoint",
          "type": "uint256"
        }
      ],
      "name": "getPastTotalSupply",
      "outputs": [
        {
          "internalType": "uint256",
          "name": "",
          "type": "uint256"
        }
      ],
      "stateMutability": "view",
      "type": "function"
    },
    {
      "inputs": [
        {
          "internalType": "address",
          "name": "account",
          "type": "address"
        },
        {
          "internalType": "uint256",
          "name": "timepoint",
          "type": "uint256"
        }
      ],
      "name": "getPastVotes",
      "outputs": [
        {
          "internalType": "uint256",
          "name": "",
          "type": "uint256"
        }
      ],
      "stateMutability": "view",
      "type": "function"
    },
    {
      "inputs": [
        {
          "internalType": "address",
          "name": "account",
          "type": "address"
        }
      ],
      "name": "getVotes",
      "outputs": [
        {
          "internalType": "uint256",
          "name": "",
          "type": "uint256"
        }
      ],
      "stateMutability": "view",
      "type": "function"
    },
    {
      "inputs": [
        {
          "internalType": "address",
          "name": "owner",
          "type": "address"
        },
        {
          "internalType": "address",
          "name": "operator",
          "type": "address"
        }
      ],
      "name": "isApprovedForAll",
      "outputs": [
        {
          "internalType": "bool",
          "name": "",
          "type": "bool"
        }
      ],
      "stateMutability": "view",
      "type": "function"
    },
    {
      "inputs": [],
      "name": "isDamin",
      "outputs": [
        {
          "internalType": "bool",
          "name": "",
          "type": "bool"
        }
      ],
      "stateMutability": "view",
      "type": "function"
    },
    {
      "inputs": [],
      "name": "name",
      "outputs": [
        {
          "internalType": "string",
          "name": "",
          "type": "string"
        }
      ],
      "stateMutability": "view",
      "type": "function"
    },
    {
      "inputs": [
        {
          "internalType": "address",
          "name": "owner",
          "type": "address"
        }
      ],
      "name": "nonces",
      "outputs": [
        {
          "internalType": "uint256",
          "name": "",
          "type": "uint256"
        }
      ],
      "stateMutability": "view",
      "type": "function"
    },
    {
      "inputs": [],
      "name": "owner",
      "outputs": [
        {
          "internalType": "address",
          "name": "",
          "type": "address"
        }
      ],
      "stateMutability": "view",
      "type": "function"
    },
    {
      "inputs": [
        {
          "internalType": "uint256",
          "name": "tokenId",
          "type": "uint256"
        }
      ],
      "name": "ownerOf",
      "outputs": [
        {
          "internalType": "address",
          "name": "",
          "type": "address"
        }
      ],
      "stateMutability": "view",
      "type": "function"
    },
    {
      "inputs": [],
      "name": "price",
      "outputs": [
        {
          "internalType": "uint256",
          "name": "",
          "type": "uint256"
        }
      ],
      "stateMutability": "view",
      "type": "function"
    },
    {
      "inputs": [],
      "name": "renounceOwnership",
      "outputs": [],
      "stateMutability": "nonpayable",
      "type": "function"
    },
    {
      "inputs": [
        {
          "internalType": "address",
          "name": "from",
          "type": "address"
        },
        {
          "internalType": "address",
          "name": "to",
          "type": "address"
        },
        {
          "internalType": "uint256",
          "name": "tokenId",
          "type": "uint256"
        }
      ],
      "name": "safeTransferFrom",
      "outputs": [],
      "stateMutability": "nonpayable",
      "type": "function"
    },
    {
      "inputs": [
        {
          "internalType": "address",
          "name": "from",
          "type": "address"
        },
        {
          "internalType": "address",
          "name": "to",
          "type": "address"
        },
        {
          "internalType": "uint256",
          "name": "tokenId",
          "type": "uint256"
        },
        {
          "internalType": "bytes",
          "name": "data",
          "type": "bytes"
        }
      ],
      "name": "safeTransferFrom",
      "outputs": [],
      "stateMutability": "nonpayable",
      "type": "function"
    },
    {
      "inputs": [],
      "name": "saleStatus",
      "outputs": [
        {
          "internalType": "bool",
          "name": "",
          "type": "bool"
        }
      ],
      "stateMutability": "view",
      "type": "function"
    },
    {
      "inputs": [
        {
          "internalType": "address",
          "name": "operator",
          "type": "address"
        },
        {
          "internalType": "bool",
          "name": "approved",
          "type": "bool"
        }
      ],
      "name": "setApprovalForAll",
      "outputs": [],
      "stateMutability": "nonpayable",
      "type": "function"
    },
    {
      "inputs": [
        {
          "internalType": "bytes4",
          "name": "interfaceId",
          "type": "bytes4"
        }
      ],
      "name": "supportsInterface",
      "outputs": [
        {
          "internalType": "bool",
          "name": "",
          "type": "bool"
        }
      ],
      "stateMutability": "view",
      "type": "function"
    },
    {
      "inputs": [],
      "name": "symbol",
      "outputs": [
        {
          "internalType": "string",
          "name": "",
          "type": "string"
        }
      ],
      "stateMutability": "view",
      "type": "function"
    },
    {
      "inputs": [
        {
          "internalType": "uint256",
          "name": "tokenId",
          "type": "uint256"
        }
      ],
      "name": "tokenURI",
      "outputs": [
        {
          "internalType": "string",
          "name": "",
          "type": "string"
        }
      ],
      "stateMutability": "view",
      "type": "function"
    },
    {
      "inputs": [
        {
          "internalType": "address",
          "name": "from",
          "type": "address"
        },
        {
          "internalType": "address",
          "name": "to",
          "type": "address"
        },
        {
          "internalType": "uint256",
          "name": "tokenId",
          "type": "uint256"
        }
      ],
      "name": "transferFrom",
      "outputs": [],
      "stateMutability": "nonpayable",
      "type": "function"
    },
    {
      "inputs": [
        {
          "internalType": "address",
          "name": "newOwner",
          "type": "address"
        }
      ],
      "name": "transferOwnership",
      "outputs": [],
      "stateMutability": "nonpayable",
      "type": "function"
    },
    {
      "inputs": [
        {
          "internalType": "string",
          "name": "baseURI_",
          "type": "string"
        }
      ],
      "name": "updateBaseURI",
      "outputs": [],
      "stateMutability": "nonpayable",
      "type": "function"
    },
    {
      "inputs": [
        {
          "internalType": "string",
          "name": "joinCode_",
          "type": "string"
        }
      ],
      "name": "updateJoinCode",
      "outputs": [],
      "stateMutability": "nonpayable",
      "type": "function"
    },
    {
      "inputs": [
        {
          "internalType": "bool",
          "name": "_saleStatus",
          "type": "bool"
        }
      ],
      "name": "updateSaleStatus",
      "outputs": [],
      "stateMutability": "nonpayable",
      "type": "function"
    },
    {
      "inputs": [],
      "name": "withdraw",
      "outputs": [],
      "stateMutability": "payable",
      "type": "function"
    }
  ],
  "bytecode": "0x610160604052600d805460ff60a01b1916600160a01b1790553480156200002557600080fd5b506040516200346c3803806200346c83398101604081905262000048916200039d565b826040518060400160405280600781526020016644616e79616e6760c81b815250604051806040016040528060018152602001603160f81b8152506040518060400160405280600781526020016644616e79616e6760c81b815250604051806040016040528060048152602001634553445960e01b8152508160009081620000d19190620004b8565b506001620000e08282620004b8565b50620000f29150839050600662000202565b610120526200010381600762000202565b61014052815160208084019190912060e052815190820120610100524660a0526200019160e05161010051604080517f8b73c3c69bb8fe3d512ecc4cf759cc79239f7b179b0ffacaa9a75d522b39400f60208201529081019290925260608201524660808201523060a082015260009060c00160405160208183030381529060405280519060200120905090565b60805250503060c0526001600c556001600160a01b038116620001cf57604051631e4fbdf760e01b8152600060048201526024015b60405180910390fd5b620001da816200023b565b50600f620001e98382620004b8565b506010620001f88282620004b8565b50505050620005de565b600060208351101562000222576200021a836200028d565b905062000235565b816200022f8482620004b8565b5060ff90505b92915050565b600d80546001600160a01b038381166001600160a01b0319831681179093556040519116919082907f8be0079c531659141344cd1fd0a4f28419497f9722a3daafe3b4186f6b6457e090600090a35050565b600080829050601f81511115620002bb578260405163305a27a960e01b8152600401620001c6919062000584565b8051620002c882620005b9565b179392505050565b634e487b7160e01b600052604160045260246000fd5b60005b8381101562000303578181015183820152602001620002e9565b50506000910152565b600082601f8301126200031e57600080fd5b81516001600160401b03808211156200033b576200033b620002d0565b604051601f8301601f19908116603f01168101908282118183101715620003665762000366620002d0565b816040528381528660208588010111156200038057600080fd5b62000393846020830160208901620002e6565b9695505050505050565b600080600060608486031215620003b357600080fd5b83516001600160a01b0381168114620003cb57600080fd5b60208501519093506001600160401b0380821115620003e957600080fd5b620003f7878388016200030c565b935060408601519150808211156200040e57600080fd5b506200041d868287016200030c565b9150509250925092565b600181811c908216806200043c57607f821691505b6020821081036200045d57634e487b7160e01b600052602260045260246000fd5b50919050565b601f821115620004b3576000816000526020600020601f850160051c810160208610156200048e5750805b601f850160051c820191505b81811015620004af578281556001016200049a565b5050505b505050565b81516001600160401b03811115620004d457620004d4620002d0565b620004ec81620004e5845462000427565b8462000463565b602080601f8311600181146200052457600084156200050b5750858301515b600019600386901b1c1916600185901b178555620004af565b600085815260208120601f198616915b82811015620005555788860151825594840194600190910190840162000534565b5085821015620005745787850151600019600388901b60f8161c191681555b5050505050600190811b01905550565b6020815260008251806020840152620005a5816040850160208701620002e6565b601f01601f19169190910160400192915050565b805160208083015191908110156200045d5760001960209190910360031b1b16919050565b60805160a05160c05160e051610100516101205161014051612e336200063960003960006113cb0152600061139e01526000611d7d01526000611d5501526000611cb001526000611cda01526000611d040152612e336000f3fe6080604052600436106102345760003560e01c806384b0196e11610138578063a035b1fe116100b0578063c3cda5201161007f578063e985e9c511610064578063e985e9c51461064d578063f2fde38b14610696578063f9020e33146106b657600080fd5b8063c3cda5201461060d578063c87b56dd1461062d57600080fd5b8063a035b1fe146105aa578063a22cb465146105c5578063a6f2ae3a146105e5578063b88d4fde146105ed57600080fd5b806391ddadf411610107578063934feb13116100ec578063934feb131461055557806395d89b41146105755780639ab24eb01461058a57600080fd5b806391ddadf414610509578063931688cb1461053557600080fd5b806384b0196e1461048e578063858ae019146104b65780638da5cb5b146104cb5780638e539e8c146104e957600080fd5b806342842e0e116101cb5780636352211e1161019a57806370a082311161017f57806370a0823114610423578063715018a6146104435780637ecebe001461045857600080fd5b80636352211e146103ee5780636faeb99a1461040e57600080fd5b806342842e0e146103605780634bf5d7e914610380578063587cde1e146103955780635c19a95c146103ce57600080fd5b80630a088949116102075780630a088949146102ea57806323b872dd1461030a5780633a46b1a81461032a5780633ccfd60b1461035857600080fd5b806301ffc9a71461023957806306fdde031461026e578063081812fc14610290578063095ea7b3146102c8575b600080fd5b34801561024557600080fd5b5061025961025436600461270a565b6106d7565b60405190151581526020015b60405180910390f35b34801561027a57600080fd5b50610283610774565b6040516102659190612777565b34801561029c57600080fd5b506102b06102ab36600461278a565b610806565b6040516001600160a01b039091168152602001610265565b3480156102d457600080fd5b506102e86102e33660046127bf565b61082f565b005b3480156102f657600080fd5b506102e86103053660046127f9565b61083e565b34801561031657600080fd5b506102e8610325366004612814565b61087f565b34801561033657600080fd5b5061034a6103453660046127bf565b610928565b604051908152602001610265565b6102e86109a9565b34801561036c57600080fd5b506102e861037b366004612814565b610aad565b34801561038c57600080fd5b50610283610acd565b3480156103a157600080fd5b506102b06103b0366004612850565b6001600160a01b039081166000908152600960205260409020541690565b3480156103da57600080fd5b506102e86103e9366004612850565b610b5e565b3480156103fa57600080fd5b506102b061040936600461278a565b610b69565b34801561041a57600080fd5b50610259610b74565b34801561042f57600080fd5b5061034a61043e366004612850565b610b92565b34801561044f57600080fd5b506102e8610bf3565b34801561046457600080fd5b5061034a610473366004612850565b6001600160a01b031660009081526008602052604090205490565b34801561049a57600080fd5b506104a3610c05565b604051610265979695949392919061286b565b3480156104c257600080fd5b50610283610c67565b3480156104d757600080fd5b50600d546001600160a01b03166102b0565b3480156104f557600080fd5b5061034a61050436600461278a565b610cce565b34801561051557600080fd5b5061051e610d38565b60405165ffffffffffff9091168152602001610265565b34801561054157600080fd5b506102e8610550366004612920565b610d47565b34801561056157600080fd5b506102e8610570366004612920565b610d5c565b34801561058157600080fd5b50610283610d71565b34801561059657600080fd5b5061034a6105a5366004612850565b610d80565b3480156105b657600080fd5b5061034a662386f26fc1000081565b3480156105d157600080fd5b506102e86105e0366004612992565b610db0565b6102e8610dbb565b3480156105f957600080fd5b506102e86106083660046129db565b610f31565b34801561061957600080fd5b506102e8610628366004612ab7565b610f48565b34801561063957600080fd5b5061028361064836600461278a565b61101e565b34801561065957600080fd5b50610259610668366004612b17565b6001600160a01b03918216600090815260056020908152604080832093909416825291909152205460ff1690565b3480156106a257600080fd5b506102e86106b1366004612850565b611086565b3480156106c257600080fd5b50600d5461025990600160a01b900460ff1681565b60006001600160e01b031982167f80ac58cd00000000000000000000000000000000000000000000000000000000148061073a57506001600160e01b031982167f5b5e139f00000000000000000000000000000000000000000000000000000000145b8061076e57507f01ffc9a7000000000000000000000000000000000000000000000000000000006001600160e01b03198316145b92915050565b60606000805461078390612b41565b80601f01602080910402602001604051908101604052809291908181526020018280546107af90612b41565b80156107fc5780601f106107d1576101008083540402835291602001916107fc565b820191906000526020600020905b8154815290600101906020018083116107df57829003601f168201915b5050505050905090565b6000610811826110da565b506000828152600460205260409020546001600160a01b031661076e565b61083a828233611113565b5050565b610846611120565b600d8054911515600160a01b027fffffffffffffffffffffff00ffffffffffffffffffffffffffffffffffffffff909216919091179055565b6001600160a01b0382166108ae57604051633250574960e11b8152600060048201526024015b60405180910390fd5b60006108bb838333611166565b9050836001600160a01b0316816001600160a01b031614610922576040517f64283d7b0000000000000000000000000000000000000000000000000000000081526001600160a01b03808616600483015260248201849052821660448201526064016108a5565b50505050565b600080610933610d38565b90508065ffffffffffff16831061096e57604051637669fc0f60e11b81526004810184905265ffffffffffff821660248201526044016108a5565b61099861097a8461117b565b6001600160a01b0386166000908152600a60205260409020906111b2565b6001600160d01b0316949350505050565b6109b1611120565b6109b961126b565b4780610a075760405162461bcd60e51b815260206004820152601960248201527f4e6f204574686572206c65667420746f2077697468647261770000000000000060448201526064016108a5565b604051600090339083908381818185875af1925050503d8060008114610a49576040519150601f19603f3d011682016040523d82523d6000602084013e610a4e565b606091505b5050905080610a9f5760405162461bcd60e51b815260206004820152601060248201527f5472616e73666572206661696c65642e0000000000000000000000000000000060448201526064016108a5565b5050610aab6001600c55565b565b610ac883838360405180602001604052806000815250610f31565b505050565b6060610ad76112ae565b65ffffffffffff16610ae7610d38565b65ffffffffffff1614610b26576040517f6ff0714000000000000000000000000000000000000000000000000000000000815260040160405180910390fd5b5060408051808201909152601d81527f6d6f64653d626c6f636b6e756d6265722666726f6d3d64656661756c74000000602082015290565b3361083a81836112b9565b600061076e826110da565b6000610b7f33610b92565b600103610b8c5750600190565b50600090565b60006001600160a01b038216610bd7576040517f89c62b64000000000000000000000000000000000000000000000000000000008152600060048201526024016108a5565b506001600160a01b031660009081526003602052604090205490565b610bfb611120565b610aab6000611338565b600060608060008060006060610c19611397565b610c216113c4565b604080516000808252602082019092527f0f000000000000000000000000000000000000000000000000000000000000009b939a50919850469750309650945092509050565b6060610c7233610b92565b600114610cc15760405162461bcd60e51b815260206004820152601460248201527f44616e79616e673a204e6f7420612044616d696e00000000000000000000000060448201526064016108a5565b6010805461078390612b41565b600080610cd9610d38565b90508065ffffffffffff168310610d1457604051637669fc0f60e11b81526004810184905265ffffffffffff821660248201526044016108a5565b610d28610d208461117b565b600b906111b2565b6001600160d01b03169392505050565b6000610d426112ae565b905090565b610d4f611120565b600f610ac8828483612bcb565b610d64611120565b6010610ac8828483612bcb565b60606001805461078390612b41565b6001600160a01b0381166000908152600a60205260408120610da1906113f1565b6001600160d01b031692915050565b61083a33838361142d565b600d54600160a01b900460ff16610e145760405162461bcd60e51b815260206004820152601860248201527f44616e79616e673a204e6f74206f6e2073616c65206e6f77000000000000000060448201526064016108a5565b610e1d33610b92565b15610e905760405162461bcd60e51b815260206004820152602160248201527f44616e79616e673a20416c726561647920686176652044616e79616e67204e4660448201527f540000000000000000000000000000000000000000000000000000000000000060648201526084016108a5565b662386f26fc10000341015610f0d5760405162461bcd60e51b815260206004820152602260248201527f44616e79616e673a204e6f7420656e6f7567682062616c616e636520746f206260448201527f757900000000000000000000000000000000000000000000000000000000000060648201526084016108a5565b600e805460009182610f1e83612ca1565b909155509050610f2e33826114e5565b50565b610f3c84848461087f565b610922848484846114ff565b83421115610f85576040517f4683af0e000000000000000000000000000000000000000000000000000000008152600481018590526024016108a5565b604080517fe48329057bfd03d55e49b547132e39cffd9c1820ad7b9d4c5307691425d15adf60208201526001600160a01b038816918101919091526060810186905260808101859052600090610fff90610ff79060a00160405160208183030381529060405280519060200120611628565b858585611670565b905061100b818761169e565b61101581886112b9565b50505050505050565b6060611029826110da565b50600061103461170a565b90506000815111611054576040518060200160405280600081525061107f565b8061105e84611719565b60405160200161106f929190612cba565b6040516020818303038152906040525b9392505050565b61108e611120565b6001600160a01b0381166110d1576040517f1e4fbdf7000000000000000000000000000000000000000000000000000000008152600060048201526024016108a5565b610f2e81611338565b6000818152600260205260408120546001600160a01b03168061076e57604051637e27328960e01b8152600481018490526024016108a5565b610ac883838360016117b9565b600d546001600160a01b03163314610aab576040517f118cdaa70000000000000000000000000000000000000000000000000000000081523360048201526024016108a5565b6000611173848484611904565b949350505050565b600065ffffffffffff8211156111ae576040516306dfcc6560e41b815260306004820152602481018390526044016108a5565b5090565b8154600090818160058111156112115760006111cd84611920565b6111d79085612ce9565b60008881526020902090915081015465ffffffffffff90811690871610156112015780915061120f565b61120c816001612cfc565b92505b505b600061121f87878585611a08565b9050801561125d5761124487611236600184612ce9565b600091825260209091200190565b54660100000000000090046001600160d01b0316611260565b60005b979650505050505050565b6002600c54036112a7576040517f3ee5aeb500000000000000000000000000000000000000000000000000000000815260040160405180910390fd5b6002600c55565b6000610d424361117b565b6001600160a01b03828116600081815260096020526040808220805486861673ffffffffffffffffffffffffffffffffffffffff19821681179092559151919094169392849290917f3134e8a2e6d97e929a7e54011ea5485d7d196dd5f0ba4d4ef95803e8e3fc257f9190a4610ac8818361133386611a6a565b611a75565b600d80546001600160a01b0383811673ffffffffffffffffffffffffffffffffffffffff19831681179093556040519116919082907f8be0079c531659141344cd1fd0a4f28419497f9722a3daafe3b4186f6b6457e090600090a35050565b6060610d427f00000000000000000000000000000000000000000000000000000000000000006006611be1565b6060610d427f00000000000000000000000000000000000000000000000000000000000000006007611be1565b805460009080156114245761140b83611236600184612ce9565b54660100000000000090046001600160d01b031661107f565b60009392505050565b6001600160a01b038216611478576040517f5b08ba180000000000000000000000000000000000000000000000000000000081526001600160a01b03831660048201526024016108a5565b6001600160a01b03838116600081815260056020908152604080832094871680845294825291829020805460ff191686151590811790915591519182527f17307eab39ab6107e8899845ad3d59bd9653f200f220920489ca2b5937696c31910160405180910390a3505050565b61083a828260405180602001604052806000815250611c8c565b6001600160a01b0383163b1561092257604051630a85bd0160e11b81526001600160a01b0384169063150b7a0290611541903390889087908790600401612d0f565b6020604051808303816000875af192505050801561157c575060408051601f3d908101601f1916820190925261157991810190612d4b565b60015b6115e5573d8080156115aa576040519150601f19603f3d011682016040523d82523d6000602084013e6115af565b606091505b5080516000036115dd57604051633250574960e11b81526001600160a01b03851660048201526024016108a5565b805181602001fd5b6001600160e01b03198116630a85bd0160e11b1461162157604051633250574960e11b81526001600160a01b03851660048201526024016108a5565b5050505050565b600061076e611635611ca3565b836040517f19010000000000000000000000000000000000000000000000000000000000008152600281019290925260228201526042902090565b60008060008061168288888888611dce565b9250925092506116928282611e9d565b50909695505050505050565b6001600160a01b0382166000908152600860205260409020805460018101909155818114610ac8576040517f752d88c00000000000000000000000000000000000000000000000000000000081526001600160a01b0384166004820152602481018290526044016108a5565b6060600f805461078390612b41565b6060600061172683611fa1565b600101905060008167ffffffffffffffff811115611746576117466129c5565b6040519080825280601f01601f191660200182016040528015611770576020820181803683370190505b5090508181016020015b600019017f3031323334353637383961626364656600000000000000000000000000000000600a86061a8153600a850494508461177a57509392505050565b80806117cd57506001600160a01b03821615155b156118c75760006117dd846110da565b90506001600160a01b038316158015906118095750826001600160a01b0316816001600160a01b031614155b801561183b57506001600160a01b0380821660009081526005602090815260408083209387168352929052205460ff16155b1561187d576040517fa9fbf51f0000000000000000000000000000000000000000000000000000000081526001600160a01b03841660048201526024016108a5565b81156118c55783856001600160a01b0316826001600160a01b03167f8c5be1e5ebec7d5bd14f71427d1e84f3dd0314c0f7b2291e5b200ac8c7c3b92560405160405180910390a45b505b50506000908152600460205260409020805473ffffffffffffffffffffffffffffffffffffffff19166001600160a01b0392909216919091179055565b600080611912858585612083565b905061117381866001612189565b60008160000361193257506000919050565b6000600161193f846121ff565b901c6001901b9050600181848161195857611958612d68565b048201901c9050600181848161197057611970612d68565b048201901c9050600181848161198857611988612d68565b048201901c905060018184816119a0576119a0612d68565b048201901c905060018184816119b8576119b8612d68565b048201901c905060018184816119d0576119d0612d68565b048201901c905060018184816119e8576119e8612d68565b048201901c905061107f81828581611a0257611a02612d68565b04612293565b60005b81831015611a62576000611a1f84846122a9565b60008781526020902090915065ffffffffffff86169082015465ffffffffffff161115611a4e57809250611a5c565b611a59816001612cfc565b93505b50611a0b565b509392505050565b600061076e82610b92565b816001600160a01b0316836001600160a01b031614158015611a975750600081115b15610ac8576001600160a01b03831615611b3f576001600160a01b0383166000908152600a602052604081208190611ada906122c4611ad5866122d0565b612304565b6001600160d01b031691506001600160d01b03169150846001600160a01b03167fdec2bacdd2f05b59de34da9b523dff8be42e5e38e818c82fdb0bae774387a7248383604051611b34929190918252602082015260400190565b60405180910390a250505b6001600160a01b03821615610ac8576001600160a01b0382166000908152600a602052604081208190611b789061233d611ad5866122d0565b6001600160d01b031691506001600160d01b03169150836001600160a01b03167fdec2bacdd2f05b59de34da9b523dff8be42e5e38e818c82fdb0bae774387a7248383604051611bd2929190918252602082015260400190565b60405180910390a25050505050565b606060ff8314611bfb57611bf483612349565b905061076e565b818054611c0790612b41565b80601f0160208091040260200160405190810160405280929190818152602001828054611c3390612b41565b8015611c805780601f10611c5557610100808354040283529160200191611c80565b820191906000526020600020905b815481529060010190602001808311611c6357829003601f168201915b5050505050905061076e565b611c968383612388565b610ac860008484846114ff565b6000306001600160a01b037f000000000000000000000000000000000000000000000000000000000000000016148015611cfc57507f000000000000000000000000000000000000000000000000000000000000000046145b15611d2657507f000000000000000000000000000000000000000000000000000000000000000090565b610d42604080517f8b73c3c69bb8fe3d512ecc4cf759cc79239f7b179b0ffacaa9a75d522b39400f60208201527f0000000000000000000000000000000000000000000000000000000000000000918101919091527f000000000000000000000000000000000000000000000000000000000000000060608201524660808201523060a082015260009060c00160405160208183030381529060405280519060200120905090565b600080807f7fffffffffffffffffffffffffffffff5d576e7357a4501ddfe92f46681b20a0841115611e095750600091506003905082611e93565b604080516000808252602082018084528a905260ff891692820192909252606081018790526080810186905260019060a0016020604051602081039080840390855afa158015611e5d573d6000803e3d6000fd5b5050604051601f1901519150506001600160a01b038116611e8957506000925060019150829050611e93565b9250600091508190505b9450945094915050565b6000826003811115611eb157611eb1612d7e565b03611eba575050565b6001826003811115611ece57611ece612d7e565b03611f05576040517ff645eedf00000000000000000000000000000000000000000000000000000000815260040160405180910390fd5b6002826003811115611f1957611f19612d7e565b03611f53576040517ffce698f7000000000000000000000000000000000000000000000000000000008152600481018290526024016108a5565b6003826003811115611f6757611f67612d7e565b0361083a576040517fd78bce0c000000000000000000000000000000000000000000000000000000008152600481018290526024016108a5565b6000807a184f03e93ff9f4daa797ed6e38ed64bf6a1f0100000000000000008310611fea577a184f03e93ff9f4daa797ed6e38ed64bf6a1f010000000000000000830492506040015b6d04ee2d6d415b85acef81000000008310612016576d04ee2d6d415b85acef8100000000830492506020015b662386f26fc10000831061203457662386f26fc10000830492506010015b6305f5e100831061204c576305f5e100830492506008015b612710831061206057612710830492506004015b60648310612072576064830492506002015b600a831061076e5760010192915050565b6000828152600260205260408120546001600160a01b03908116908316156120b0576120b0818486612406565b6001600160a01b038116156120ee576120cd6000856000806117b9565b6001600160a01b038116600090815260036020526040902080546000190190555b6001600160a01b0385161561211d576001600160a01b0385166000908152600360205260409020805460010190555b600084815260026020526040808220805473ffffffffffffffffffffffffffffffffffffffff19166001600160a01b0389811691821790925591518793918516917fddf252ad1be2c89b69c2b068fc378daa952ba7f163c4a11628f55a4df523b3ef91a4949350505050565b6001600160a01b0383166121ab576121a8600b61233d611ad5846122d0565b50505b6001600160a01b0382166121cd576121ca600b6122c4611ad5846122d0565b50505b6001600160a01b03838116600090815260096020526040808220548584168352912054610ac892918216911683611a75565b600080608083901c1561221457608092831c92015b604083901c1561222657604092831c92015b602083901c1561223857602092831c92015b601083901c1561224a57601092831c92015b600883901c1561225c57600892831c92015b600483901c1561226e57600492831c92015b600283901c1561228057600292831c92015b600183901c1561076e5760010192915050565b60008183106122a2578161107f565b5090919050565b60006122b86002848418612d94565b61107f90848416612cfc565b600061107f8284612db6565b60006001600160d01b038211156111ae576040516306dfcc6560e41b815260d06004820152602481018390526044016108a5565b600080612330612312610d38565b61232861231e886113f1565b868863ffffffff16565b879190612483565b915091505b935093915050565b600061107f8284612ddd565b6060600061235683612491565b604080516020808252818301909252919250600091906020820181803683375050509182525060208101929092525090565b6001600160a01b0382166123b257604051633250574960e11b8152600060048201526024016108a5565b60006123c083836000611166565b90506001600160a01b03811615610ac8576040517f73c6ac6e000000000000000000000000000000000000000000000000000000008152600060048201526024016108a5565b6124118383836124d2565b610ac8576001600160a01b03831661243f57604051637e27328960e01b8152600481018290526024016108a5565b6040517f177e802f0000000000000000000000000000000000000000000000000000000081526001600160a01b0383166004820152602481018290526044016108a5565b600080612330858585612555565b600060ff8216601f81111561076e576040517fb3512b0c00000000000000000000000000000000000000000000000000000000815260040160405180910390fd5b60006001600160a01b038316158015906111735750826001600160a01b0316846001600160a01b0316148061252c57506001600160a01b0380851660009081526005602090815260408083209387168352929052205460ff165b806111735750506000908152600460205260409020546001600160a01b03908116911614919050565b82546000908190801561269657600061257387611236600185612ce9565b60408051808201909152905465ffffffffffff80821680845266010000000000009092046001600160d01b0316602084015291925090871610156125e3576040517f2520601d00000000000000000000000000000000000000000000000000000000815260040160405180910390fd5b805165ffffffffffff808816911603612632578461260688611236600186612ce9565b80546001600160d01b039290921666010000000000000265ffffffffffff909216919091179055612686565b6040805180820190915265ffffffffffff80881682526001600160d01b0380881660208085019182528b54600181018d5560008d815291909120945191519092166601000000000000029216919091179101555b6020015192508391506123359050565b50506040805180820190915265ffffffffffff80851682526001600160d01b0380851660208085019182528854600181018a5560008a8152918220955192519093166601000000000000029190931617920191909155905081612335565b6001600160e01b031981168114610f2e57600080fd5b60006020828403121561271c57600080fd5b813561107f816126f4565b60005b8381101561274257818101518382015260200161272a565b50506000910152565b60008151808452612763816020860160208601612727565b601f01601f19169290920160200192915050565b60208152600061107f602083018461274b565b60006020828403121561279c57600080fd5b5035919050565b80356001600160a01b03811681146127ba57600080fd5b919050565b600080604083850312156127d257600080fd5b6127db836127a3565b946020939093013593505050565b803580151581146127ba57600080fd5b60006020828403121561280b57600080fd5b61107f826127e9565b60008060006060848603121561282957600080fd5b612832846127a3565b9250612840602085016127a3565b9150604084013590509250925092565b60006020828403121561286257600080fd5b61107f826127a3565b7fff00000000000000000000000000000000000000000000000000000000000000881681526000602060e060208401526128a860e084018a61274b565b83810360408501526128ba818a61274b565b606085018990526001600160a01b038816608086015260a0850187905284810360c08601528551808252602080880193509091019060005b8181101561290e578351835292840192918401916001016128f2565b50909c9b505050505050505050505050565b6000806020838503121561293357600080fd5b823567ffffffffffffffff8082111561294b57600080fd5b818501915085601f83011261295f57600080fd5b81358181111561296e57600080fd5b86602082850101111561298057600080fd5b60209290920196919550909350505050565b600080604083850312156129a557600080fd5b6129ae836127a3565b91506129bc602084016127e9565b90509250929050565b634e487b7160e01b600052604160045260246000fd5b600080600080608085870312156129f157600080fd5b6129fa856127a3565b9350612a08602086016127a3565b925060408501359150606085013567ffffffffffffffff80821115612a2c57600080fd5b818701915087601f830112612a4057600080fd5b813581811115612a5257612a526129c5565b604051601f8201601f19908116603f01168101908382118183101715612a7a57612a7a6129c5565b816040528281528a6020848701011115612a9357600080fd5b82602086016020830137600060208483010152809550505050505092959194509250565b60008060008060008060c08789031215612ad057600080fd5b612ad9876127a3565b95506020870135945060408701359350606087013560ff81168114612afd57600080fd5b9598949750929560808101359460a0909101359350915050565b60008060408385031215612b2a57600080fd5b612b33836127a3565b91506129bc602084016127a3565b600181811c90821680612b5557607f821691505b602082108103612b7557634e487b7160e01b600052602260045260246000fd5b50919050565b601f821115610ac8576000816000526020600020601f850160051c81016020861015612ba45750805b601f850160051c820191505b81811015612bc357828155600101612bb0565b505050505050565b67ffffffffffffffff831115612be357612be36129c5565b612bf783612bf18354612b41565b83612b7b565b6000601f841160018114612c2b5760008515612c135750838201355b600019600387901b1c1916600186901b178355611621565b600083815260209020601f19861690835b82811015612c5c5786850135825560209485019460019092019101612c3c565b5086821015612c795760001960f88860031b161c19848701351681555b505060018560011b0183555050505050565b634e487b7160e01b600052601160045260246000fd5b600060018201612cb357612cb3612c8b565b5060010190565b60008351612ccc818460208801612727565b835190830190612ce0818360208801612727565b01949350505050565b8181038181111561076e5761076e612c8b565b8082018082111561076e5761076e612c8b565b60006001600160a01b03808716835280861660208401525083604083015260806060830152612d41608083018461274b565b9695505050505050565b600060208284031215612d5d57600080fd5b815161107f816126f4565b634e487b7160e01b600052601260045260246000fd5b634e487b7160e01b600052602160045260246000fd5b600082612db157634e487b7160e01b600052601260045260246000fd5b500490565b6001600160d01b03828116828216039080821115612dd657612dd6612c8b565b5092915050565b6001600160d01b03818116838216019080821115612dd657612dd6612c8b56fea26469706673582212209b62808b3e1aa54701da92675f986155b7e084aef4576bd67a6f9461a164c1c064736f6c63430008180033",
  "linkReferences": {},
  "deployedLinkReferences": {}
}