{
  "_format": "hh-sol-artifact-1",
  "contractName": "DanyangGovernor",
  "sourceName": "contracts/DanyangGovernor.sol",
  "abi": [
    {
      "inputs": [
        {
          "internalType": "contract IVotes",
          "name": "_token",
          "type": "address"
        }
      ],
      "stateMutability": "nonpayable",
      "type": "constructor"
    },
    {
      "inputs": [],
      "name": "CheckpointUnorderedInsertion",
      "type": "error"
    },
    {
      "inputs": [],
      "name": "FailedInnerCall",
      "type": "error"
    },
    {
      "inputs": [
        {
          "internalType": "address",
          "name": "voter",
          "type": "address"
        }
      ],
      "name": "GovernorAlreadyCastVote",
      "type": "error"
    },
    {
      "inputs": [
        {
          "internalType": "uint256",
          "name": "proposalId",
          "type": "uint256"
        }
      ],
      "name": "GovernorAlreadyQueuedProposal",
      "type": "error"
    },
    {
      "inputs": [],
      "name": "GovernorDisabledDeposit",
      "type": "error"
    },
    {
      "inputs": [
        {
          "internalType": "address",
          "name": "proposer",
          "type": "address"
        },
        {
          "internalType": "uint256",
          "name": "votes",
          "type": "uint256"
        },
        {
          "internalType": "uint256",
          "name": "threshold",
          "type": "uint256"
        }
      ],
      "name": "GovernorInsufficientProposerVotes",
      "type": "error"
    },
    {
      "inputs": [
        {
          "internalType": "uint256",
          "name": "targets",
          "type": "uint256"
        },
        {
          "internalType": "uint256",
          "name": "calldatas",
          "type": "uint256"
        },
        {
          "internalType": "uint256",
          "name": "values",
          "type": "uint256"
        }
      ],
      "name": "GovernorInvalidProposalLength",
      "type": "error"
    },
    {
      "inputs": [
        {
          "internalType": "uint256",
          "name": "quorumNumerator",
          "type": "uint256"
        },
        {
          "internalType": "uint256",
          "name": "quorumDenominator",
          "type": "uint256"
        }
      ],
      "name": "GovernorInvalidQuorumFraction",
      "type": "error"
    },
    {
      "inputs": [
        {
          "internalType": "address",
          "name": "voter",
          "type": "address"
        }
      ],
      "name": "GovernorInvalidSignature",
      "type": "error"
    },
    {
      "inputs": [],
      "name": "GovernorInvalidVoteType",
      "type": "error"
    },
    {
      "inputs": [
        {
          "internalType": "uint256",
          "name": "votingPeriod",
          "type": "uint256"
        }
      ],
      "name": "GovernorInvalidVotingPeriod",
      "type": "error"
    },
    {
      "inputs": [
        {
          "internalType": "uint256",
          "name": "proposalId",
          "type": "uint256"
        }
      ],
      "name": "GovernorNonexistentProposal",
      "type": "error"
    },
    {
      "inputs": [
        {
          "internalType": "uint256",
          "name": "proposalId",
          "type": "uint256"
        }
      ],
      "name": "GovernorNotQueuedProposal",
      "type": "error"
    },
    {
      "inputs": [
        {
          "internalType": "address",
          "name": "account",
          "type": "address"
        }
      ],
      "name": "GovernorOnlyExecutor",
      "type": "error"
    },
    {
      "inputs": [
        {
          "internalType": "address",
          "name": "account",
          "type": "address"
        }
      ],
      "name": "GovernorOnlyProposer",
      "type": "error"
    },
    {
      "inputs": [],
      "name": "GovernorQueueNotImplemented",
      "type": "error"
    },
    {
      "inputs": [
        {
          "internalType": "address",
          "name": "proposer",
          "type": "address"
        }
      ],
      "name": "GovernorRestrictedProposer",
      "type": "error"
    },
    {
      "inputs": [
        {
          "internalType": "uint256",
          "name": "proposalId",
          "type": "uint256"
        },
        {
          "internalType": "enum IGovernor.ProposalState",
          "name": "current",
          "type": "uint8"
        },
        {
          "internalType": "bytes32",
          "name": "expectedStates",
          "type": "bytes32"
        }
      ],
      "name": "GovernorUnexpectedProposalState",
      "type": "error"
    },
    {
      "inputs": [
        {
          "internalType": "address",
          "name": "account",
          "type": "address"
        },
        {
          "internalType": "uint256",
          "name": "currentNonce",
          "type": "uint256"
        }
      ],
      "name": "InvalidAccountNonce",
      "type": "error"
    },
    {
      "inputs": [],
      "name": "InvalidShortString",
      "type": "error"
    },
    {
      "inputs": [],
      "name": "QueueEmpty",
      "type": "error"
    },
    {
      "inputs": [],
      "name": "QueueFull",
      "type": "error"
    },
    {
      "inputs": [
        {
          "internalType": "uint8",
          "name": "bits",
          "type": "uint8"
        },
        {
          "internalType": "uint256",
          "name": "value",
          "type": "uint256"
        }
      ],
      "name": "SafeCastOverflowedUintDowncast",
      "type": "error"
    },
    {
      "inputs": [
        {
          "internalType": "string",
          "name": "str",
          "type": "string"
        }
      ],
      "name": "StringTooLong",
      "type": "error"
    },
    {
      "anonymous": false,
      "inputs": [],
      "name": "EIP712DomainChanged",
      "type": "event"
    },
    {
      "anonymous": false,
      "inputs": [
        {
          "indexed": false,
          "internalType": "uint256",
          "name": "proposalId",
          "type": "uint256"
        }
      ],
      "name": "ProposalCanceled",
      "type": "event"
    },
    {
      "anonymous": false,
      "inputs": [
        {
          "indexed": false,
          "internalType": "uint256",
          "name": "proposalId",
          "type": "uint256"
        },
        {
          "indexed": false,
          "internalType": "address",
          "name": "proposer",
          "type": "address"
        },
        {
          "indexed": false,
          "internalType": "address[]",
          "name": "targets",
          "type": "address[]"
        },
        {
          "indexed": false,
          "internalType": "uint256[]",
          "name": "values",
          "type": "uint256[]"
        },
        {
          "indexed": false,
          "internalType": "string[]",
          "name": "signatures",
          "type": "string[]"
        },
        {
          "indexed": false,
          "internalType": "bytes[]",
          "name": "calldatas",
          "type": "bytes[]"
        },
        {
          "indexed": false,
          "internalType": "uint256",
          "name": "voteStart",
          "type": "uint256"
        },
        {
          "indexed": false,
          "internalType": "uint256",
          "name": "voteEnd",
          "type": "uint256"
        },
        {
          "indexed": false,
          "internalType": "string",
          "name": "description",
          "type": "string"
        }
      ],
      "name": "ProposalCreated",
      "type": "event"
    },
    {
      "anonymous": false,
      "inputs": [
        {
          "indexed": false,
          "internalType": "uint256",
          "name": "proposalId",
          "type": "uint256"
        }
      ],
      "name": "ProposalExecuted",
      "type": "event"
    },
    {
      "anonymous": false,
      "inputs": [
        {
          "indexed": false,
          "internalType": "uint256",
          "name": "proposalId",
          "type": "uint256"
        },
        {
          "indexed": false,
          "internalType": "uint256",
          "name": "etaSeconds",
          "type": "uint256"
        }
      ],
      "name": "ProposalQueued",
      "type": "event"
    },
    {
      "anonymous": false,
      "inputs": [
        {
          "indexed": false,
          "internalType": "uint256",
          "name": "oldProposalThreshold",
          "type": "uint256"
        },
        {
          "indexed": false,
          "internalType": "uint256",
          "name": "newProposalThreshold",
          "type": "uint256"
        }
      ],
      "name": "ProposalThresholdSet",
      "type": "event"
    },
    {
      "anonymous": false,
      "inputs": [
        {
          "indexed": false,
          "internalType": "uint256",
          "name": "oldQuorumNumerator",
          "type": "uint256"
        },
        {
          "indexed": false,
          "internalType": "uint256",
          "name": "newQuorumNumerator",
          "type": "uint256"
        }
      ],
      "name": "QuorumNumeratorUpdated",
      "type": "event"
    },
    {
      "anonymous": false,
      "inputs": [
        {
          "indexed": true,
          "internalType": "address",
          "name": "voter",
          "type": "address"
        },
        {
          "indexed": false,
          "internalType": "uint256",
          "name": "proposalId",
          "type": "uint256"
        },
        {
          "indexed": false,
          "internalType": "uint8",
          "name": "support",
          "type": "uint8"
        },
        {
          "indexed": false,
          "internalType": "uint256",
          "name": "weight",
          "type": "uint256"
        },
        {
          "indexed": false,
          "internalType": "string",
          "name": "reason",
          "type": "string"
        }
      ],
      "name": "VoteCast",
      "type": "event"
    },
    {
      "anonymous": false,
      "inputs": [
        {
          "indexed": true,
          "internalType": "address",
          "name": "voter",
          "type": "address"
        },
        {
          "indexed": false,
          "internalType": "uint256",
          "name": "proposalId",
          "type": "uint256"
        },
        {
          "indexed": false,
          "internalType": "uint8",
          "name": "support",
          "type": "uint8"
        },
        {
          "indexed": false,
          "internalType": "uint256",
          "name": "weight",
          "type": "uint256"
        },
        {
          "indexed": false,
          "internalType": "string",
          "name": "reason",
          "type": "string"
        },
        {
          "indexed": false,
          "internalType": "bytes",
          "name": "params",
          "type": "bytes"
        }
      ],
      "name": "VoteCastWithParams",
      "type": "event"
    },
    {
      "anonymous": false,
      "inputs": [
        {
          "indexed": false,
          "internalType": "uint256",
          "name": "oldVotingDelay",
          "type": "uint256"
        },
        {
          "indexed": false,
          "internalType": "uint256",
          "name": "newVotingDelay",
          "type": "uint256"
        }
      ],
      "name": "VotingDelaySet",
      "type": "event"
    },
    {
      "anonymous": false,
      "inputs": [
        {
          "indexed": false,
          "internalType": "uint256",
          "name": "oldVotingPeriod",
          "type": "uint256"
        },
        {
          "indexed": false,
          "internalType": "uint256",
          "name": "newVotingPeriod",
          "type": "uint256"
        }
      ],
      "name": "VotingPeriodSet",
      "type": "event"
    },
    {
      "inputs": [],
      "name": "BALLOT_TYPEHASH",
      "outputs": [
        {
          "internalType": "bytes32",
          "name": "",
          "type": "bytes32"
        }
      ],
      "stateMutability": "view",
      "type": "function"
    },
    {
      "inputs": [],
      "name": "CLOCK_MODE",
      "outputs": [
        {
          "internalType": "string",
          "name": "",
          "type": "string"
        }
      ],
      "stateMutability": "view",
      "type": "function"
    },
    {
      "inputs": [],
      "name": "COUNTING_MODE",
      "outputs": [
        {
          "internalType": "string",
          "name": "",
          "type": "string"
        }
      ],
      "stateMutability": "pure",
      "type": "function"
    },
    {
      "inputs": [],
      "name": "EXTENDED_BALLOT_TYPEHASH",
      "outputs": [
        {
          "internalType": "bytes32",
          "name": "",
          "type": "bytes32"
        }
      ],
      "stateMutability": "view",
      "type": "function"
    },
    {
      "inputs": [
        {
          "internalType": "address[]",
          "name": "targets",
          "type": "address[]"
        },
        {
          "internalType": "uint256[]",
          "name": "values",
          "type": "uint256[]"
        },
        {
          "internalType": "bytes[]",
          "name": "calldatas",
          "type": "bytes[]"
        },
        {
          "internalType": "bytes32",
          "name": "descriptionHash",
          "type": "bytes32"
        }
      ],
      "name": "cancel",
      "outputs": [
        {
          "internalType": "uint256",
          "name": "",
          "type": "uint256"
        }
      ],
      "stateMutability": "nonpayable",
      "type": "function"
    },
    {
      "inputs": [
        {
          "internalType": "uint256",
          "name": "proposalId",
          "type": "uint256"
        },
        {
          "internalType": "uint8",
          "name": "support",
          "type": "uint8"
        }
      ],
      "name": "castVote",
      "outputs": [
        {
          "internalType": "uint256",
          "name": "",
          "type": "uint256"
        }
      ],
      "stateMutability": "nonpayable",
      "type": "function"
    },
    {
      "inputs": [
        {
          "internalType": "uint256",
          "name": "proposalId",
          "type": "uint256"
        },
        {
          "internalType": "uint8",
          "name": "support",
          "type": "uint8"
        },
        {
          "internalType": "address",
          "name": "voter",
          "type": "address"
        },
        {
          "internalType": "bytes",
          "name": "signature",
          "type": "bytes"
        }
      ],
      "name": "castVoteBySig",
      "outputs": [
        {
          "internalType": "uint256",
          "name": "",
          "type": "uint256"
        }
      ],
      "stateMutability": "nonpayable",
      "type": "function"
    },
    {
      "inputs": [
        {
          "internalType": "uint256",
          "name": "proposalId",
          "type": "uint256"
        },
        {
          "internalType": "uint8",
          "name": "support",
          "type": "uint8"
        },
        {
          "internalType": "string",
          "name": "reason",
          "type": "string"
        }
      ],
      "name": "castVoteWithReason",
      "outputs": [
        {
          "internalType": "uint256",
          "name": "",
          "type": "uint256"
        }
      ],
      "stateMutability": "nonpayable",
      "type": "function"
    },
    {
      "inputs": [
        {
          "internalType": "uint256",
          "name": "proposalId",
          "type": "uint256"
        },
        {
          "internalType": "uint8",
          "name": "support",
          "type": "uint8"
        },
        {
          "internalType": "string",
          "name": "reason",
          "type": "string"
        },
        {
          "internalType": "bytes",
          "name": "params",
          "type": "bytes"
        }
      ],
      "name": "castVoteWithReasonAndParams",
      "outputs": [
        {
          "internalType": "uint256",
          "name": "",
          "type": "uint256"
        }
      ],
      "stateMutability": "nonpayable",
      "type": "function"
    },
    {
      "inputs": [
        {
          "internalType": "uint256",
          "name": "proposalId",
          "type": "uint256"
        },
        {
          "internalType": "uint8",
          "name": "support",
          "type": "uint8"
        },
        {
          "internalType": "address",
          "name": "voter",
          "type": "address"
        },
        {
          "internalType": "string",
          "name": "reason",
          "type": "string"
        },
        {
          "internalType": "bytes",
          "name": "params",
          "type": "bytes"
        },
        {
          "internalType": "bytes",
          "name": "signature",
          "type": "bytes"
        }
      ],
      "name": "castVoteWithReasonAndParamsBySig",
      "outputs": [
        {
          "internalType": "uint256",
          "name": "",
          "type": "uint256"
        }
      ],
      "stateMutability": "nonpayable",
      "type": "function"
    },
    {
      "inputs": [],
      "name": "clock",
      "outputs": [
        {
          "internalType": "uint48",
          "name": "",
          "type": "uint48"
        }
      ],
      "stateMutability": "view",
      "type": "function"
    },
    {
      "inputs": [],
      "name": "eip712Domain",
      "outputs": [
        {
          "internalType": "bytes1",
          "name": "fields",
          "type": "bytes1"
        },
        {
          "internalType": "string",
          "name": "name",
          "type": "string"
        },
        {
          "internalType": "string",
          "name": "version",
          "type": "string"
        },
        {
          "internalType": "uint256",
          "name": "chainId",
          "type": "uint256"
        },
        {
          "internalType": "address",
          "name": "verifyingContract",
          "type": "address"
        },
        {
          "internalType": "bytes32",
          "name": "salt",
          "type": "bytes32"
        },
        {
          "internalType": "uint256[]",
          "name": "extensions",
          "type": "uint256[]"
        }
      ],
      "stateMutability": "view",
      "type": "function"
    },
    {
      "inputs": [
        {
          "internalType": "address[]",
          "name": "targets",
          "type": "address[]"
        },
        {
          "internalType": "uint256[]",
          "name": "values",
          "type": "uint256[]"
        },
        {
          "internalType": "bytes[]",
          "name": "calldatas",
          "type": "bytes[]"
        },
        {
          "internalType": "bytes32",
          "name": "descriptionHash",
          "type": "bytes32"
        }
      ],
      "name": "execute",
      "outputs": [
        {
          "internalType": "uint256",
          "name": "",
          "type": "uint256"
        }
      ],
      "stateMutability": "payable",
      "type": "function"
    },
    {
      "inputs": [
        {
          "internalType": "address",
          "name": "account",
          "type": "address"
        },
        {
          "internalType": "uint256",
          "name": "timepoint",
          "type": "uint256"
        }
      ],
      "name": "getVotes",
      "outputs": [
        {
          "internalType": "uint256",
          "name": "",
          "type": "uint256"
        }
      ],
      "stateMutability": "view",
      "type": "function"
    },
    {
      "inputs": [
        {
          "internalType": "address",
          "name": "account",
          "type": "address"
        },
        {
          "internalType": "uint256",
          "name": "timepoint",
          "type": "uint256"
        },
        {
          "internalType": "bytes",
          "name": "params",
          "type": "bytes"
        }
      ],
      "name": "getVotesWithParams",
      "outputs": [
        {
          "internalType": "uint256",
          "name": "",
          "type": "uint256"
        }
      ],
      "stateMutability": "view",
      "type": "function"
    },
    {
      "inputs": [
        {
          "internalType": "uint256",
          "name": "proposalId",
          "type": "uint256"
        },
        {
          "internalType": "address",
          "name": "account",
          "type": "address"
        }
      ],
      "name": "hasVoted",
      "outputs": [
        {
          "internalType": "bool",
          "name": "",
          "type": "bool"
        }
      ],
      "stateMutability": "view",
      "type": "function"
    },
    {
      "inputs": [
        {
          "internalType": "address[]",
          "name": "targets",
          "type": "address[]"
        },
        {
          "internalType": "uint256[]",
          "name": "values",
          "type": "uint256[]"
        },
        {
          "internalType": "bytes[]",
          "name": "calldatas",
          "type": "bytes[]"
        },
        {
          "internalType": "bytes32",
          "name": "descriptionHash",
          "type": "bytes32"
        }
      ],
      "name": "hashProposal",
      "outputs": [
        {
          "internalType": "uint256",
          "name": "",
          "type": "uint256"
        }
      ],
      "stateMutability": "pure",
      "type": "function"
    },
    {
      "inputs": [],
      "name": "name",
      "outputs": [
        {
          "internalType": "string",
          "name": "",
          "type": "string"
        }
      ],
      "stateMutability": "view",
      "type": "function"
    },
    {
      "inputs": [
        {
          "internalType": "address",
          "name": "owner",
          "type": "address"
        }
      ],
      "name": "nonces",
      "outputs": [
        {
          "internalType": "uint256",
          "name": "",
          "type": "uint256"
        }
      ],
      "stateMutability": "view",
      "type": "function"
    },
    {
      "inputs": [
        {
          "internalType": "address",
          "name": "",
          "type": "address"
        },
        {
          "internalType": "address",
          "name": "",
          "type": "address"
        },
        {
          "internalType": "uint256[]",
          "name": "",
          "type": "uint256[]"
        },
        {
          "internalType": "uint256[]",
          "name": "",
          "type": "uint256[]"
        },
        {
          "internalType": "bytes",
          "name": "",
          "type": "bytes"
        }
      ],
      "name": "onERC1155BatchReceived",
      "outputs": [
        {
          "internalType": "bytes4",
          "name": "",
          "type": "bytes4"
        }
      ],
      "stateMutability": "nonpayable",
      "type": "function"
    },
    {
      "inputs": [
        {
          "internalType": "address",
          "name": "",
          "type": "address"
        },
        {
          "internalType": "address",
          "name": "",
          "type": "address"
        },
        {
          "internalType": "uint256",
          "name": "",
          "type": "uint256"
        },
        {
          "internalType": "uint256",
          "name": "",
          "type": "uint256"
        },
        {
          "internalType": "bytes",
          "name": "",
          "type": "bytes"
        }
      ],
      "name": "onERC1155Received",
      "outputs": [
        {
          "internalType": "bytes4",
          "name": "",
          "type": "bytes4"
        }
      ],
      "stateMutability": "nonpayable",
      "type": "function"
    },
    {
      "inputs": [
        {
          "internalType": "address",
          "name": "",
          "type": "address"
        },
        {
          "internalType": "address",
          "name": "",
          "type": "address"
        },
        {
          "internalType": "uint256",
          "name": "",
          "type": "uint256"
        },
        {
          "internalType": "bytes",
          "name": "",
          "type": "bytes"
        }
      ],
      "name": "onERC721Received",
      "outputs": [
        {
          "internalType": "bytes4",
          "name": "",
          "type": "bytes4"
        }
      ],
      "stateMutability": "nonpayable",
      "type": "function"
    },
    {
      "inputs": [
        {
          "internalType": "uint256",
          "name": "proposalId",
          "type": "uint256"
        }
      ],
      "name": "proposalDeadline",
      "outputs": [
        {
          "internalType": "uint256",
          "name": "",
          "type": "uint256"
        }
      ],
      "stateMutability": "view",
      "type": "function"
    },
    {
      "inputs": [
        {
          "internalType": "uint256",
          "name": "proposalId",
          "type": "uint256"
        }
      ],
      "name": "proposalEta",
      "outputs": [
        {
          "internalType": "uint256",
          "name": "",
          "type": "uint256"
        }
      ],
      "stateMutability": "view",
      "type": "function"
    },
    {
      "inputs": [
        {
          "internalType": "uint256",
          "name": "",
          "type": "uint256"
        }
      ],
      "name": "proposalNeedsQueuing",
      "outputs": [
        {
          "internalType": "bool",
          "name": "",
          "type": "bool"
        }
      ],
      "stateMutability": "view",
      "type": "function"
    },
    {
      "inputs": [
        {
          "internalType": "uint256",
          "name": "proposalId",
          "type": "uint256"
        }
      ],
      "name": "proposalProposer",
      "outputs": [
        {
          "internalType": "address",
          "name": "",
          "type": "address"
        }
      ],
      "stateMutability": "view",
      "type": "function"
    },
    {
      "inputs": [
        {
          "internalType": "uint256",
          "name": "proposalId",
          "type": "uint256"
        }
      ],
      "name": "proposalSnapshot",
      "outputs": [
        {
          "internalType": "uint256",
          "name": "",
          "type": "uint256"
        }
      ],
      "stateMutability": "view",
      "type": "function"
    },
    {
      "inputs": [],
      "name": "proposalThreshold",
      "outputs": [
        {
          "internalType": "uint256",
          "name": "",
          "type": "uint256"
        }
      ],
      "stateMutability": "view",
      "type": "function"
    },
    {
      "inputs": [
        {
          "internalType": "uint256",
          "name": "proposalId",
          "type": "uint256"
        }
      ],
      "name": "proposalVotes",
      "outputs": [
        {
          "internalType": "uint256",
          "name": "againstVotes",
          "type": "uint256"
        },
        {
          "internalType": "uint256",
          "name": "forVotes",
          "type": "uint256"
        },
        {
          "internalType": "uint256",
          "name": "abstainVotes",
          "type": "uint256"
        }
      ],
      "stateMutability": "view",
      "type": "function"
    },
    {
      "inputs": [
        {
          "internalType": "address[]",
          "name": "targets",
          "type": "address[]"
        },
        {
          "internalType": "uint256[]",
          "name": "values",
          "type": "uint256[]"
        },
        {
          "internalType": "bytes[]",
          "name": "calldatas",
          "type": "bytes[]"
        },
        {
          "internalType": "string",
          "name": "description",
          "type": "string"
        }
      ],
      "name": "propose",
      "outputs": [
        {
          "internalType": "uint256",
          "name": "",
          "type": "uint256"
        }
      ],
      "stateMutability": "nonpayable",
      "type": "function"
    },
    {
      "inputs": [
        {
          "internalType": "address[]",
          "name": "targets",
          "type": "address[]"
        },
        {
          "internalType": "uint256[]",
          "name": "values",
          "type": "uint256[]"
        },
        {
          "internalType": "bytes[]",
          "name": "calldatas",
          "type": "bytes[]"
        },
        {
          "internalType": "bytes32",
          "name": "descriptionHash",
          "type": "bytes32"
        }
      ],
      "name": "queue",
      "outputs": [
        {
          "internalType": "uint256",
          "name": "",
          "type": "uint256"
        }
      ],
      "stateMutability": "nonpayable",
      "type": "function"
    },
    {
      "inputs": [
        {
          "internalType": "uint256",
          "name": "blockNumber",
          "type": "uint256"
        }
      ],
      "name": "quorum",
      "outputs": [
        {
          "internalType": "uint256",
          "name": "",
          "type": "uint256"
        }
      ],
      "stateMutability": "view",
      "type": "function"
    },
    {
      "inputs": [],
      "name": "quorumDenominator",
      "outputs": [
        {
          "internalType": "uint256",
          "name": "",
          "type": "uint256"
        }
      ],
      "stateMutability": "view",
      "type": "function"
    },
    {
      "inputs": [
        {
          "internalType": "uint256",
          "name": "timepoint",
          "type": "uint256"
        }
      ],
      "name": "quorumNumerator",
      "outputs": [
        {
          "internalType": "uint256",
          "name": "",
          "type": "uint256"
        }
      ],
      "stateMutability": "view",
      "type": "function"
    },
    {
      "inputs": [],
      "name": "quorumNumerator",
      "outputs": [
        {
          "internalType": "uint256",
          "name": "",
          "type": "uint256"
        }
      ],
      "stateMutability": "view",
      "type": "function"
    },
    {
      "inputs": [
        {
          "internalType": "address",
          "name": "target",
          "type": "address"
        },
        {
          "internalType": "uint256",
          "name": "value",
          "type": "uint256"
        },
        {
          "internalType": "bytes",
          "name": "data",
          "type": "bytes"
        }
      ],
      "name": "relay",
      "outputs": [],
      "stateMutability": "payable",
      "type": "function"
    },
    {
      "inputs": [
        {
          "internalType": "uint256",
          "name": "newProposalThreshold",
          "type": "uint256"
        }
      ],
      "name": "setProposalThreshold",
      "outputs": [],
      "stateMutability": "nonpayable",
      "type": "function"
    },
    {
      "inputs": [
        {
          "internalType": "uint48",
          "name": "newVotingDelay",
          "type": "uint48"
        }
      ],
      "name": "setVotingDelay",
      "outputs": [],
      "stateMutability": "nonpayable",
      "type": "function"
    },
    {
      "inputs": [
        {
          "internalType": "uint32",
          "name": "newVotingPeriod",
          "type": "uint32"
        }
      ],
      "name": "setVotingPeriod",
      "outputs": [],
      "stateMutability": "nonpayable",
      "type": "function"
    },
    {
      "inputs": [
        {
          "internalType": "uint256",
          "name": "proposalId",
          "type": "uint256"
        }
      ],
      "name": "state",
      "outputs": [
        {
          "internalType": "enum IGovernor.ProposalState",
          "name": "",
          "type": "uint8"
        }
      ],
      "stateMutability": "view",
      "type": "function"
    },
    {
      "inputs": [
        {
          "internalType": "bytes4",
          "name": "interfaceId",
          "type": "bytes4"
        }
      ],
      "name": "supportsInterface",
      "outputs": [
        {
          "internalType": "bool",
          "name": "",
          "type": "bool"
        }
      ],
      "stateMutability": "view",
      "type": "function"
    },
    {
      "inputs": [],
      "name": "token",
      "outputs": [
        {
          "internalType": "contract IERC5805",
          "name": "",
          "type": "address"
        }
      ],
      "stateMutability": "view",
      "type": "function"
    },
    {
      "inputs": [
        {
          "internalType": "uint256",
          "name": "newQuorumNumerator",
          "type": "uint256"
        }
      ],
      "name": "updateQuorumNumerator",
      "outputs": [],
      "stateMutability": "nonpayable",
      "type": "function"
    },
    {
      "inputs": [],
      "name": "version",
      "outputs": [
        {
          "internalType": "string",
          "name": "",
          "type": "string"
        }
      ],
      "stateMutability": "view",
      "type": "function"
    },
    {
      "inputs": [],
      "name": "votingDelay",
      "outputs": [
        {
          "internalType": "uint256",
          "name": "",
          "type": "uint256"
        }
      ],
      "stateMutability": "view",
      "type": "function"
    },
    {
      "inputs": [],
      "name": "votingPeriod",
      "outputs": [
        {
          "internalType": "uint256",
          "name": "",
          "type": "uint256"
        }
      ],
      "stateMutability": "view",
      "type": "function"
    },
    {
      "stateMutability": "payable",
      "type": "receive"
    }
  ],
  "bytecode": "0x6101806040523480156200001257600080fd5b5060405162004a3838038062004a3883398101604081905262000035916200071f565b6004816000603260006040518060400160405280600f81526020016e2230b73cb0b733a3b7bb32b93737b960891b81525080620000776200018160201b60201c565b620000848260006200019c565b61012052620000958160016200019c565b61014052815160208084019190912060e052815190820120610100524660a0526200012360e05161010051604080517f8b73c3c69bb8fe3d512ecc4cf759cc79239f7b179b0ffacaa9a75d522b39400f60208201529081019290925260608201524660808201523060a082015260009060c00160405160208183030381529060405280519060200120905090565b60805250503060c05260036200013a8282620007f1565b5062000148905083620001d5565b62000153826200023b565b6200015e81620002e2565b5050506001600160a01b031661016052620001798162000323565b50506200097f565b6040805180820190915260018152603160f81b602082015290565b6000602083511015620001bc57620001b483620003c3565b9050620001cf565b81620001c98482620007f1565b5060ff90505b92915050565b6008546040805165ffffffffffff928316815291831660208301527fc565b045403dc03c2eea82b81a0465edad9e2e7fc4d97e11421c209da93d7a93910160405180910390a16008805465ffffffffffff191665ffffffffffff92909216919091179055565b8063ffffffff166000036200026b5760405163f1cfbf0560e01b8152600060048201526024015b60405180910390fd5b6008546040805163ffffffff66010000000000009093048316815291831660208301527f7e3f7f0708a84de9203036abaa450dccc85ad5ff52f78c170f3edb55cf5e8828910160405180910390a16008805463ffffffff90921666010000000000000263ffffffff60301b19909216919091179055565b60075460408051918252602082018390527fccb45da8d5717e6c4544694297c4ba5cf151d455c9bb0ed4fc7a38411bc05461910160405180910390a1600755565b606480821115620003525760405163243e544560e01b8152600481018390526024810182905260440162000262565b60006200035e62000406565b9050620003836200036e62000422565b6200037985620004a4565b600a9190620004de565b505060408051828152602081018590527f0553476bf02ef2726e8ce5ced78d63e26e602e4a2257b1f559418e24b4633997910160405180910390a1505050565b600080829050601f81511115620003f1578260405163305a27a960e01b8152600401620002629190620008bd565b8051620003fe826200090e565b179392505050565b600062000414600a620004fb565b6001600160d01b0316905090565b60006200042f6101605190565b6001600160a01b03166391ddadf46040518163ffffffff1660e01b8152600401602060405180830381865afa9250505080156200048b575060408051601f3d908101601f19168201909252620004889181019062000933565b60015b6200049f576200049a6200054b565b905090565b919050565b60006001600160d01b03821115620004da576040516306dfcc6560e41b815260d060048201526024810183905260440162000262565b5090565b600080620004ee85858562000558565b915091505b935093915050565b8054600090801562000541576200052783620005196001846200095d565b600091825260209091200190565b54660100000000000090046001600160d01b031662000544565b60005b9392505050565b60006200049a43620006ea565b8254600090819080156200068b5760006200057a87620005196001856200095d565b60408051808201909152905465ffffffffffff80821680845266010000000000009092046001600160d01b031660208401529192509087161015620005d257604051632520601d60e01b815260040160405180910390fd5b805165ffffffffffff808816911603620006265784620005f988620005196001866200095d565b80546001600160d01b039290921666010000000000000265ffffffffffff9092169190911790556200067a565b6040805180820190915265ffffffffffff80881682526001600160d01b0380881660208085019182528b54600181018d5560008d815291909120945191519092166601000000000000029216919091179101555b602001519250839150620004f39050565b50506040805180820190915265ffffffffffff80851682526001600160d01b0380851660208085019182528854600181018a5560008a8152918220955192519093166601000000000000029190931617920191909155905081620004f3565b600065ffffffffffff821115620004da576040516306dfcc6560e41b8152603060048201526024810183905260440162000262565b6000602082840312156200073257600080fd5b81516001600160a01b03811681146200054457600080fd5b634e487b7160e01b600052604160045260246000fd5b600181811c908216806200077557607f821691505b6020821081036200079657634e487b7160e01b600052602260045260246000fd5b50919050565b601f821115620007ec576000816000526020600020601f850160051c81016020861015620007c75750805b601f850160051c820191505b81811015620007e857828155600101620007d3565b5050505b505050565b81516001600160401b038111156200080d576200080d6200074a565b62000825816200081e845462000760565b846200079c565b602080601f8311600181146200085d5760008415620008445750858301515b600019600386901b1c1916600185901b178555620007e8565b600085815260208120601f198616915b828110156200088e578886015182559484019460019091019084016200086d565b5085821015620008ad5787850151600019600388901b60f8161c191681555b5050505050600190811b01905550565b60006020808352835180602085015260005b81811015620008ed57858101830151858201604001528201620008cf565b506000604082860101526040601f19601f8301168501019250505092915050565b80516020808301519190811015620007965760001960209190910360031b1b16919050565b6000602082840312156200094657600080fd5b815165ffffffffffff811681146200054457600080fd5b81810381811115620001cf57634e487b7160e01b600052601160045260246000fd5b60805160a05160c05160e0516101005161012051610140516101605161403762000a0160003960008181610a8301528181610f98015281816115410152818161224a015261248601526000612215015260006121e8015260006126e6015260006126be01526000612619015260006126430152600061266d01526140376000f3fe6080604052600436106103015760003560e01c80637d5e81e21161018f578063bc197c81116100e1578063e540d01d1161008a578063f23a6e6111610064578063f23a6e6114610a0f578063f8ce560a14610a54578063fc0c546a14610a7457600080fd5b8063e540d01d146109af578063eb9019d4146109cf578063ece40cc1146109ef57600080fd5b8063c59057e4116100bb578063c59057e414610915578063dd4e2ba514610935578063deaaa7cc1461097b57600080fd5b8063bc197c811461089d578063c01f9e37146108e2578063c28bc2fa1461090257600080fd5b806397c3d33411610143578063a9a952941161011d578063a9a952941461082f578063ab58fb8e14610850578063b58131b01461088857600080fd5b806397c3d334146107e65780639a802a6d146107fa578063a7713a701461081a57600080fd5b806384b0196e1161017457806384b0196e146107725780638ff262e31461079a57806391ddadf4146107ba57600080fd5b80637d5e81e21461071c5780637ecebe001461073c57600080fd5b80633e4f49e61161025357806356781388116101fc57806360c4247f116101d657806360c4247f146106bc57806379051887146106dc5780637b3c71d3146106fc57600080fd5b8063567813881461065c5780635b8d0e0d1461067c5780635f398a141461069c57600080fd5b80634bf5d7e91161022d5780634bf5d7e9146105ac578063544ffc9c146105c157806354fd4d501461061657600080fd5b80633e4f49e6146105155780634385963214610542578063452115d61461058c57600080fd5b8063150b7a02116102b55780632d63f6931161028f5780632d63f693146104905780632fe3e261146104cc5780633932abb11461050057600080fd5b8063150b7a0214610400578063160cbed71461045d5780632656227d1461047d57600080fd5b806306f3f9e6116102e657806306f3f9e61461037057806306fdde0314610390578063143489d0146103b257600080fd5b806301ffc9a71461030f57806302a251a31461034457600080fd5b3661030a57005b005b600080fd5b34801561031b57600080fd5b5061032f61032a366004613040565b610aa7565b60405190151581526020015b60405180910390f35b34801561035057600080fd5b50600854600160301b900463ffffffff165b60405190815260200161033b565b34801561037c57600080fd5b5061030861038b36600461306a565b610b49565b34801561039c57600080fd5b506103a5610b5d565b60405161033b91906130d3565b3480156103be57600080fd5b506103e86103cd36600461306a565b6000908152600460205260409020546001600160a01b031690565b6040516001600160a01b03909116815260200161033b565b34801561040c57600080fd5b5061044461041b3660046131ca565b7f150b7a0200000000000000000000000000000000000000000000000000000000949350505050565b6040516001600160e01b0319909116815260200161033b565b34801561046957600080fd5b506103626104783660046133a6565b610bef565b61036261048b3660046133a6565b610c48565b34801561049c57600080fd5b506103626104ab36600461306a565b600090815260046020526040902054600160a01b900465ffffffffffff1690565b3480156104d857600080fd5b506103627f3e83946653575f9a39005e1545185629e92736b7528ab20ca3816f315424a81181565b34801561050c57600080fd5b50610362610d8e565b34801561052157600080fd5b5061053561053036600461306a565b610da1565b60405161033b919061346e565b34801561054e57600080fd5b5061032f61055d36600461347c565b60008281526009602090815260408083206001600160a01b038516845260030190915290205460ff1692915050565b34801561059857600080fd5b506103626105a73660046133a6565b610f0c565b3480156105b857600080fd5b506103a5610f94565b3480156105cd57600080fd5b506105fb6105dc36600461306a565b6000908152600960205260409020805460018201546002909201549092565b6040805193845260208401929092529082015260600161033b565b34801561062257600080fd5b5060408051808201909152600181527f310000000000000000000000000000000000000000000000000000000000000060208201526103a5565b34801561066857600080fd5b506103626106773660046134b9565b611056565b34801561068857600080fd5b50610362610697366004613525565b61107f565b3480156106a857600080fd5b506103626106b73660046135de565b6111de565b3480156106c857600080fd5b506103626106d736600461306a565b611233565b3480156106e857600080fd5b506103086106f7366004613676565b6112c1565b34801561070857600080fd5b50610362610717366004613693565b6112d2565b34801561072857600080fd5b506103626107373660046136ed565b61131a565b34801561074857600080fd5b506103626107573660046137a2565b6001600160a01b031660009081526002602052604090205490565b34801561077e57600080fd5b50610787611409565b60405161033b97969594939291906137f9565b3480156107a657600080fd5b506103626107b5366004613883565b61146b565b3480156107c657600080fd5b506107cf61153d565b60405165ffffffffffff909116815260200161033b565b3480156107f257600080fd5b506064610362565b34801561080657600080fd5b506103626108153660046138d3565b6115c5565b34801561082657600080fd5b506103626115d2565b34801561083b57600080fd5b5061032f61084a36600461306a565b50600090565b34801561085c57600080fd5b5061036261086b36600461306a565b60009081526004602052604090206001015465ffffffffffff1690565b34801561089457600080fd5b506103626115ec565b3480156108a957600080fd5b506104446108b836600461392a565b7fbc197c810000000000000000000000000000000000000000000000000000000095945050505050565b3480156108ee57600080fd5b506103626108fd36600461306a565b6115f7565b6103086109103660046139ba565b61163a565b34801561092157600080fd5b506103626109303660046133a6565b6116ba565b34801561094157600080fd5b506040805180820190915260208082527f737570706f72743d627261766f2671756f72756d3d666f722c6162737461696e908201526103a5565b34801561098757600080fd5b506103627ff2aad550cf55f045cb27e9c559f9889fdfb6e6cdaa032301d6ea397784ae51d781565b3480156109bb57600080fd5b506103086109ca3660046139fc565b6116f4565b3480156109db57600080fd5b506103626109ea366004613a22565b611705565b3480156109fb57600080fd5b50610308610a0a36600461306a565b61172d565b348015610a1b57600080fd5b50610444610a2a366004613a4c565b7ff23a6e610000000000000000000000000000000000000000000000000000000095945050505050565b348015610a6057600080fd5b50610362610a6f36600461306a565b61173e565b348015610a8057600080fd5b507f00000000000000000000000000000000000000000000000000000000000000006103e8565b60006001600160e01b031982167f65455a86000000000000000000000000000000000000000000000000000000001480610b0a57506001600160e01b031982167f4e2312e000000000000000000000000000000000000000000000000000000000145b80610b3e57507f01ffc9a7000000000000000000000000000000000000000000000000000000006001600160e01b03198316145b92915050565b905090565b610b51611749565b610b5a81611799565b50565b606060038054610b6c90613ab1565b80601f0160208091040260200160405190810160405280929190818152602001828054610b9890613ab1565b8015610be55780601f10610bba57610100808354040283529160200191610be5565b820191906000526020600020905b815481529060010190602001808311610bc857829003601f168201915b5050505050905090565b600080610bfe868686866116ba565b9050610c1381610c0e6004611848565b61186b565b5060006040517f90884a4600000000000000000000000000000000000000000000000000000000815260040160405180910390fd5b600080610c57868686866116ba565b9050610c7781610c676005611848565b610c716004611848565b1761186b565b50600081815260046020526040902080547fff00ffffffffffffffffffffffffffffffffffffffffffffffffffffffffffff16600160f01b17905530610cba3090565b6001600160a01b031614610d445760005b8651811015610d4257306001600160a01b0316878281518110610cf057610cf0613aeb565b60200260200101516001600160a01b031603610d3a57610d3a858281518110610d1b57610d1b613aeb565b60200260200101518051906020012060056118aa90919063ffffffff16565b600101610ccb565b505b610d518187878787611946565b6040518181527f712ae1383f79ac853f8d882153778e0260ef8f03b504e2866e0593e04d2b291f906020015b60405180910390a195945050505050565b6000610b4460085465ffffffffffff1690565b6000818152600460205260408120805460ff600160f01b8204811691600160f81b9004168115610dd657506007949350505050565b8015610de757506002949350505050565b600085815260046020526040812054600160a01b900465ffffffffffff16905080600003610e49576040517f6ad06075000000000000000000000000000000000000000000000000000000008152600481018790526024015b60405180910390fd5b6000610e5361153d565b65ffffffffffff169050808210610e71575060009695505050505050565b6000610e7c886115f7565b9050818110610e9357506001979650505050505050565b610e9c88611a20565b1580610ebc57506000888152600960205260409020805460019091015411155b15610ecf57506003979650505050505050565b60008881526004602052604090206001015465ffffffffffff16600003610efe57506004979650505050505050565b506005979650505050505050565b600080610f1b868686866116ba565b9050610f2b81610c0e6000611848565b506000818152600460205260409020546001600160a01b03163314610f7e576040517f233d98e3000000000000000000000000000000000000000000000000000000008152336004820152602401610e40565b610f8a86868686611a72565b9695505050505050565b60607f00000000000000000000000000000000000000000000000000000000000000006001600160a01b0316634bf5d7e96040518163ffffffff1660e01b8152600401600060405180830381865afa92505050801561101557506040513d6000823e601f3d908101601f191682016040526110129190810190613b01565b60015b611051575060408051808201909152601d81527f6d6f64653d626c6f636b6e756d6265722666726f6d3d64656661756c74000000602082015290565b919050565b60008033905061107784828560405180602001604052806000815250611b3b565b949350505050565b6000806111628761115c7f3e83946653575f9a39005e1545185629e92736b7528ab20ca3816f315424a8118c8c8c6110d48e6001600160a01b0316600090815260026020526040902080546001810190915590565b8d8d6040516110e4929190613b6f565b60405180910390208c805190602001206040516020016111419796959493929190968752602087019590955260ff9390931660408601526001600160a01b03919091166060850152608084015260a083015260c082015260e00190565b60405160208183030381529060405280519060200120611b67565b85611baf565b90508061118d576040516394ab6c0760e01b81526001600160a01b0388166004820152602401610e40565b6111d189888a89898080601f0160208091040260200160405190810160405280939291908181526020018383808284376000920191909152508b9250611c07915050565b9998505050505050505050565b60008033905061122887828888888080601f0160208091040260200160405190810160405280939291908181526020018383808284376000920191909152508a9250611c07915050565b979650505050505050565b600a80546000918290611247600184613b95565b8154811061125757611257613aeb565b6000918252602090912001805490915065ffffffffffff811690600160301b90046001600160d01b031685821161129a576001600160d01b031695945050505050565b6112ae6112a687611cf9565b600a90611d30565b6001600160d01b03169695505050505050565b6112c9611749565b610b5a81611de5565b600080339050610f8a86828787878080601f016020809104026020016040519081016040528093929190818152602001838380828437600092019190915250611b3b92505050565b6000336113278184611e4b565b611368576040517fd9b395570000000000000000000000000000000000000000000000000000000081526001600160a01b0382166004820152602401610e40565b600061138f82600161137861153d565b6113829190613ba8565b65ffffffffffff16611705565b9050600061139b6115ec565b9050808210156113f0576040517fc242ee160000000000000000000000000000000000000000000000000000000081526001600160a01b03841660048201526024810183905260448101829052606401610e40565b6113fd8888888887611f6c565b98975050505050505050565b60006060806000806000606061141d6121e1565b61142561220e565b604080516000808252602082019092527f0f000000000000000000000000000000000000000000000000000000000000009b939a50919850469750309650945092509050565b6000806114f78461115c7ff2aad550cf55f045cb27e9c559f9889fdfb6e6cdaa032301d6ea397784ae51d78989896114c08b6001600160a01b0316600090815260026020526040902080546001810190915590565b60408051602081019690965285019390935260ff90911660608401526001600160a01b0316608083015260a082015260c001611141565b905080611522576040516394ab6c0760e01b81526001600160a01b0385166004820152602401610e40565b610f8a86858760405180602001604052806000815250611b3b565b60007f00000000000000000000000000000000000000000000000000000000000000006001600160a01b03166391ddadf46040518163ffffffff1660e01b8152600401602060405180830381865afa9250505080156115b9575060408051601f3d908101601f191682019092526115b691810190613bce565b60015b61105157610b4461223b565b6000611077848484612246565b60006115de600a6122f5565b6001600160d01b0316905090565b6000610b4460075490565b60008181526004602052604081205461162c90600160d01b810463ffffffff1690600160a01b900465ffffffffffff16613beb565b65ffffffffffff1692915050565b611642611749565b600080856001600160a01b0316858585604051611660929190613b6f565b60006040518083038185875af1925050503d806000811461169d576040519150601f19603f3d011682016040523d82523d6000602084013e6116a2565b606091505b50915091506116b1828261232e565b50505050505050565b6000848484846040516020016116d39493929190613c9e565b60408051601f19818403018152919052805160209091012095945050505050565b6116fc611749565b610b5a8161234a565b6000611726838361172160408051602081019091526000815290565b612246565b9392505050565b611735611749565b610b5a81612401565b6000610b3e82612442565b303314611784576040517f47096e47000000000000000000000000000000000000000000000000000000008152336004820152602401610e40565b565b806117916005612505565b036117865750565b6064808211156117df576040517f243e54450000000000000000000000000000000000000000000000000000000081526004810183905260248101829052604401610e40565b60006117e96115d2565b90506118086117f661153d565b6117ff856125bd565b600a91906125f1565b505060408051828152602081018590527f0553476bf02ef2726e8ce5ced78d63e26e602e4a2257b1f559418e24b4633997910160405180910390a1505050565b600081600781111561185c5761185c613436565b600160ff919091161b92915050565b60008061187784610da1565b905060008361188583611848565b1603611726578381846040516331b75e4d60e01b8152600401610e4093929190613ce9565b81546fffffffffffffffffffffffffffffffff600160801b820481169181166001830190911603611907576040517f8acb5f2700000000000000000000000000000000000000000000000000000000815260040160405180910390fd5b6fffffffffffffffffffffffffffffffff808216600090815260018086016020526040909120939093558354919092018216600160801b029116179055565b60005b8451811015611a185760008086838151811061196757611967613aeb565b60200260200101516001600160a01b031686848151811061198a5761198a613aeb565b60200260200101518685815181106119a4576119a4613aeb565b60200260200101516040516119b99190613d0b565b60006040518083038185875af1925050503d80600081146119f6576040519150601f19603f3d011682016040523d82523d6000602084013e6119fb565b606091505b5091509150611a0a828261232e565b505050806001019050611949565b505050505050565b600081815260096020526040812060028101546001820154611a429190613d27565b600084815260046020526040902054611a6990600160a01b900465ffffffffffff1661173e565b11159392505050565b600080611a81868686866116ba565b9050611acf81611a916007611848565b611a9b6006611848565b611aa56002611848565b6001611ab2600782613d3a565b611abd906002613e37565b611ac79190613b95565b18181861186b565b506000818152600460205260409081902080547effffffffffffffffffffffffffffffffffffffffffffffffffffffffffffff16600160f81b179055517f789cf55be980739dad1d0699b93b58e806b51c9d96619bfa8fe0a28abaa7b30c90610d7d9083815260200190565b6000611b5e85858585611b5960408051602081019091526000815290565b611c07565b95945050505050565b6000610b3e611b7461260c565b836040517f19010000000000000000000000000000000000000000000000000000000000008152600281019290925260228201526042902090565b6000806000611bbe8585612737565b5090925090506000816003811115611bd857611bd8613436565b148015611bf65750856001600160a01b0316826001600160a01b0316145b80610f8a5750610f8a868686612784565b6000611c1786610c0e6001611848565b50600086815260046020526040812054611c42908790600160a01b900465ffffffffffff1685612246565b9050611c518787878487612874565b8251600003611ca657856001600160a01b03167fb8e138887d0aa13bab447e82de9d5c1777041ecd21ca36ba824ff1e6c07ddda488878488604051611c999493929190613e46565b60405180910390a2610f8a565b856001600160a01b03167fe2babfbac5889a709b63bb7f598b324e08bc5a4fb9ec647fb3cbc9ec07eb87128887848888604051611ce7959493929190613e6e565b60405180910390a29695505050505050565b600065ffffffffffff821115611d2c576040516306dfcc6560e41b81526030600482015260248101839052604401610e40565b5090565b815460009081816005811115611d8f576000611d4b8461299f565b611d559085613b95565b60008881526020902090915081015465ffffffffffff9081169087161015611d7f57809150611d8d565b611d8a816001613d27565b92505b505b6000611d9d87878585612a87565b90508015611dd857611dc287611db4600184613b95565b600091825260209091200190565b54600160301b90046001600160d01b0316611228565b6000979650505050505050565b6008546040805165ffffffffffff928316815291831660208301527fc565b045403dc03c2eea82b81a0465edad9e2e7fc4d97e11421c209da93d7a93910160405180910390a16008805465ffffffffffff191665ffffffffffff92909216919091179055565b80516000906034811015611e63576001915050610b3e565b828101601319015173ffffffffffffffffffffffffffffffffffffffff1981167f2370726f706f7365723d3078000000000000000000000000000000000000000014611eb457600192505050610b3e565b600080611ec2602885613b95565b90505b83811015611f4b57600080611f11888481518110611ee557611ee5613aeb565b01602001517fff0000000000000000000000000000000000000000000000000000000000000016612ae9565b9150915081611f295760019650505050505050610b3e565b8060ff166004856001600160a01b0316901b1793505050806001019050611ec5565b50856001600160a01b0316816001600160a01b031614935050505092915050565b6000611f8186868686805190602001206116ba565b905084518651141580611f9657508351865114155b80611fa057508551155b15611fee578551845186516040517f447b05d0000000000000000000000000000000000000000000000000000000008152600481019390935260248301919091526044820152606401610e40565b600081815260046020526040902054600160a01b900465ffffffffffff1615612039578061201b82610da1565b6040516331b75e4d60e01b8152610e40929190600090600401613ce9565b6000612043610d8e565b61204b61153d565b65ffffffffffff1661205d9190613d27565b9050600061207860085463ffffffff600160301b9091041690565b6000848152600460205260409020805473ffffffffffffffffffffffffffffffffffffffff19166001600160a01b0387161781559091506120b883611cf9565b815465ffffffffffff91909116600160a01b027fffffffffffff000000000000ffffffffffffffffffffffffffffffffffffffff9091161781556120fb82612b7b565b815463ffffffff91909116600160d01b027fffff00000000ffffffffffffffffffffffffffffffffffffffffffffffffffff90911617815588517f7d84a6263ae0d98d3329bd7b46bb4e8d6f98cd35a7adb45c274c8b7fd5ebd5e090859087908c908c9067ffffffffffffffff811115612177576121776130fd565b6040519080825280602002602001820160405280156121aa57816020015b60608152602001906001900390816121955790505b508c896121b78a82613d27565b8e6040516121cd99989796959493929190613ea8565b60405180910390a150505095945050505050565b6060610b447f00000000000000000000000000000000000000000000000000000000000000006000612bac565b6060610b447f00000000000000000000000000000000000000000000000000000000000000006001612bac565b6000610b4443611cf9565b60007f00000000000000000000000000000000000000000000000000000000000000006040517f3a46b1a80000000000000000000000000000000000000000000000000000000081526001600160a01b038681166004830152602482018690529190911690633a46b1a890604401602060405180830381865afa1580156122d1573d6000803e3d6000fd5b505050506040513d601f19601f820116820180604052508101906110779190613f80565b805460009080156123255761230f83611db4600184613b95565b54600160301b90046001600160d01b0316611726565b60009392505050565b6060826123435761233e82612c57565b610b3e565b5080610b3e565b8063ffffffff1660000361238d576040517ff1cfbf0500000000000000000000000000000000000000000000000000000000815260006004820152602401610e40565b6008546040805163ffffffff600160301b9093048316815291831660208301527f7e3f7f0708a84de9203036abaa450dccc85ad5ff52f78c170f3edb55cf5e8828910160405180910390a16008805463ffffffff909216600160301b0269ffffffff00000000000019909216919091179055565b60075460408051918252602082018390527fccb45da8d5717e6c4544694297c4ba5cf151d455c9bb0ed4fc7a38411bc05461910160405180910390a1600755565b6000606461244f83611233565b6040517f8e539e8c000000000000000000000000000000000000000000000000000000008152600481018590526001600160a01b037f00000000000000000000000000000000000000000000000000000000000000001690638e539e8c90602401602060405180830381865afa1580156124cd573d6000803e3d6000fd5b505050506040513d601f19601f820116820180604052508101906124f19190613f80565b6124fb9190613f99565b610b3e9190613fc6565b80546000906fffffffffffffffffffffffffffffffff80821691600160801b900416810361255f576040517f75e52f4f00000000000000000000000000000000000000000000000000000000815260040160405180910390fd5b6fffffffffffffffffffffffffffffffff8181166000908152600185810160205260408220805492905585547fffffffffffffffffffffffffffffffff00000000000000000000000000000000169301909116919091179092555090565b60006001600160d01b03821115611d2c576040516306dfcc6560e41b815260d0600482015260248101839052604401610e40565b6000806125ff858585612c99565b915091505b935093915050565b6000306001600160a01b037f00000000000000000000000000000000000000000000000000000000000000001614801561266557507f000000000000000000000000000000000000000000000000000000000000000046145b1561268f57507f000000000000000000000000000000000000000000000000000000000000000090565b610b44604080517f8b73c3c69bb8fe3d512ecc4cf759cc79239f7b179b0ffacaa9a75d522b39400f60208201527f0000000000000000000000000000000000000000000000000000000000000000918101919091527f000000000000000000000000000000000000000000000000000000000000000060608201524660808201523060a082015260009060c00160405160208183030381529060405280519060200120905090565b600080600083516041036127715760208401516040850151606086015160001a61276388828585612e2c565b95509550955050505061277d565b50508151600091506002905b9250925092565b6000806000856001600160a01b031685856040516024016127a6929190613fe8565b60408051601f198184030181529181526020820180517bffffffffffffffffffffffffffffffffffffffffffffffffffffffff16630b135d3f60e11b179052516127f09190613d0b565b600060405180830381855afa9150503d806000811461282b576040519150601f19603f3d011682016040523d82523d6000602084013e612830565b606091505b509150915081801561284457506020815110155b8015610f8a57508051630b135d3f60e11b906128699083016020908101908401613f80565b149695505050505050565b60008581526009602090815260408083206001600160a01b0388168452600381019092529091205460ff16156128e1576040517f71c6af490000000000000000000000000000000000000000000000000000000081526001600160a01b0386166004820152602401610e40565b6001600160a01b03851660009081526003820160205260409020805460ff1916600117905560ff841661292d57828160000160008282546129229190613d27565b90915550611a189050565b60001960ff85160161294d57828160010160008282546129229190613d27565b60011960ff85160161296d57828160020160008282546129229190613d27565b6040517f06b337c200000000000000000000000000000000000000000000000000000000815260040160405180910390fd5b6000816000036129b157506000919050565b600060016129be84612efb565b901c6001901b905060018184816129d7576129d7613fb0565b048201901c905060018184816129ef576129ef613fb0565b048201901c90506001818481612a0757612a07613fb0565b048201901c90506001818481612a1f57612a1f613fb0565b048201901c90506001818481612a3757612a37613fb0565b048201901c90506001818481612a4f57612a4f613fb0565b048201901c90506001818481612a6757612a67613fb0565b048201901c905061172681828581612a8157612a81613fb0565b04612f8f565b60005b81831015612ae1576000612a9e8484612fa5565b60008781526020902090915065ffffffffffff86169082015465ffffffffffff161115612acd57809250612adb565b612ad8816001613d27565b93505b50612a8a565b509392505050565b60008060f883901c602f81118015612b045750603a8160ff16105b15612b1957600194602f199091019350915050565b8060ff166040108015612b2f575060478160ff16105b15612b44576001946036199091019350915050565b8060ff166060108015612b5a575060678160ff16105b15612b6f576001946056199091019350915050565b50600093849350915050565b600063ffffffff821115611d2c576040516306dfcc6560e41b81526020600482015260248101839052604401610e40565b606060ff8314612bc657612bbf83612fc0565b9050610b3e565b818054612bd290613ab1565b80601f0160208091040260200160405190810160405280929190818152602001828054612bfe90613ab1565b8015612c4b5780601f10612c2057610100808354040283529160200191612c4b565b820191906000526020600020905b815481529060010190602001808311612c2e57829003601f168201915b50505050509050610b3e565b805115612c675780518082602001fd5b6040517f1425ea4200000000000000000000000000000000000000000000000000000000815260040160405180910390fd5b825460009081908015612dd1576000612cb787611db4600185613b95565b60408051808201909152905465ffffffffffff808216808452600160301b9092046001600160d01b031660208401529192509087161015612d24576040517f2520601d00000000000000000000000000000000000000000000000000000000815260040160405180910390fd5b805165ffffffffffff808816911603612d705784612d4788611db4600186613b95565b80546001600160d01b0392909216600160301b0265ffffffffffff909216919091179055612dc1565b6040805180820190915265ffffffffffff80881682526001600160d01b0380881660208085019182528b54600181018d5560008d81529190912094519151909216600160301b029216919091179101555b6020015192508391506126049050565b50506040805180820190915265ffffffffffff80851682526001600160d01b0380851660208085019182528854600181018a5560008a815291822095519251909316600160301b029190931617920191909155905081612604565b600080807f7fffffffffffffffffffffffffffffff5d576e7357a4501ddfe92f46681b20a0841115612e675750600091506003905082612ef1565b604080516000808252602082018084528a905260ff891692820192909252606081018790526080810186905260019060a0016020604051602081039080840390855afa158015612ebb573d6000803e3d6000fd5b5050604051601f1901519150506001600160a01b038116612ee757506000925060019150829050612ef1565b9250600091508190505b9450945094915050565b600080608083901c15612f1057608092831c92015b604083901c15612f2257604092831c92015b602083901c15612f3457602092831c92015b601083901c15612f4657601092831c92015b600883901c15612f5857600892831c92015b600483901c15612f6a57600492831c92015b600283901c15612f7c57600292831c92015b600183901c15610b3e5760010192915050565b6000818310612f9e5781611726565b5090919050565b6000612fb46002848418613fc6565b61172690848416613d27565b60606000612fcd83612fff565b604080516020808252818301909252919250600091906020820181803683375050509182525060208101929092525090565b600060ff8216601f811115610b3e576040517fb3512b0c00000000000000000000000000000000000000000000000000000000815260040160405180910390fd5b60006020828403121561305257600080fd5b81356001600160e01b03198116811461172657600080fd5b60006020828403121561307c57600080fd5b5035919050565b60005b8381101561309e578181015183820152602001613086565b50506000910152565b600081518084526130bf816020860160208601613083565b601f01601f19169290920160200192915050565b60208152600061172660208301846130a7565b80356001600160a01b038116811461105157600080fd5b634e487b7160e01b600052604160045260246000fd5b604051601f8201601f1916810167ffffffffffffffff8111828210171561313c5761313c6130fd565b604052919050565b600067ffffffffffffffff82111561315e5761315e6130fd565b50601f01601f191660200190565b600061317f61317a84613144565b613113565b905082815283838301111561319357600080fd5b828260208301376000602084830101529392505050565b600082601f8301126131bb57600080fd5b6117268383356020850161316c565b600080600080608085870312156131e057600080fd5b6131e9856130e6565b93506131f7602086016130e6565b925060408501359150606085013567ffffffffffffffff81111561321a57600080fd5b613226878288016131aa565b91505092959194509250565b600067ffffffffffffffff82111561324c5761324c6130fd565b5060051b60200190565b600082601f83011261326757600080fd5b8135602061327761317a83613232565b8083825260208201915060208460051b87010193508684111561329957600080fd5b602086015b848110156132bc576132af816130e6565b835291830191830161329e565b509695505050505050565b600082601f8301126132d857600080fd5b813560206132e861317a83613232565b8083825260208201915060208460051b87010193508684111561330a57600080fd5b602086015b848110156132bc578035835291830191830161330f565b600082601f83011261333757600080fd5b8135602061334761317a83613232565b82815260059290921b8401810191818101908684111561336657600080fd5b8286015b848110156132bc57803567ffffffffffffffff81111561338a5760008081fd5b6133988986838b01016131aa565b84525091830191830161336a565b600080600080608085870312156133bc57600080fd5b843567ffffffffffffffff808211156133d457600080fd5b6133e088838901613256565b955060208701359150808211156133f657600080fd5b613402888389016132c7565b9450604087013591508082111561341857600080fd5b5061342587828801613326565b949793965093946060013593505050565b634e487b7160e01b600052602160045260246000fd5b6008811061346a57634e487b7160e01b600052602160045260246000fd5b9052565b60208101610b3e828461344c565b6000806040838503121561348f57600080fd5b8235915061349f602084016130e6565b90509250929050565b803560ff8116811461105157600080fd5b600080604083850312156134cc57600080fd5b8235915061349f602084016134a8565b60008083601f8401126134ee57600080fd5b50813567ffffffffffffffff81111561350657600080fd5b60208301915083602082850101111561351e57600080fd5b9250929050565b600080600080600080600060c0888a03121561354057600080fd5b87359650613550602089016134a8565b955061355e604089016130e6565b9450606088013567ffffffffffffffff8082111561357b57600080fd5b6135878b838c016134dc565b909650945060808a01359150808211156135a057600080fd5b6135ac8b838c016131aa565b935060a08a01359150808211156135c257600080fd5b506135cf8a828b016131aa565b91505092959891949750929550565b6000806000806000608086880312156135f657600080fd5b85359450613606602087016134a8565b9350604086013567ffffffffffffffff8082111561362357600080fd5b61362f89838a016134dc565b9095509350606088013591508082111561364857600080fd5b50613655888289016131aa565b9150509295509295909350565b65ffffffffffff81168114610b5a57600080fd5b60006020828403121561368857600080fd5b813561172681613662565b600080600080606085870312156136a957600080fd5b843593506136b9602086016134a8565b9250604085013567ffffffffffffffff8111156136d557600080fd5b6136e1878288016134dc565b95989497509550505050565b6000806000806080858703121561370357600080fd5b843567ffffffffffffffff8082111561371b57600080fd5b61372788838901613256565b9550602087013591508082111561373d57600080fd5b613749888389016132c7565b9450604087013591508082111561375f57600080fd5b61376b88838901613326565b9350606087013591508082111561378157600080fd5b508501601f8101871361379357600080fd5b6132268782356020840161316c565b6000602082840312156137b457600080fd5b611726826130e6565b60008151808452602080850194506020840160005b838110156137ee578151875295820195908201906001016137d2565b509495945050505050565b7fff000000000000000000000000000000000000000000000000000000000000008816815260e06020820152600061383460e08301896130a7565b828103604084015261384681896130a7565b90508660608401526001600160a01b03861660808401528460a084015282810360c084015261387581856137bd565b9a9950505050505050505050565b6000806000806080858703121561389957600080fd5b843593506138a9602086016134a8565b92506138b7604086016130e6565b9150606085013567ffffffffffffffff81111561321a57600080fd5b6000806000606084860312156138e857600080fd5b6138f1846130e6565b925060208401359150604084013567ffffffffffffffff81111561391457600080fd5b613920868287016131aa565b9150509250925092565b600080600080600060a0868803121561394257600080fd5b61394b866130e6565b9450613959602087016130e6565b9350604086013567ffffffffffffffff8082111561397657600080fd5b61398289838a016132c7565b9450606088013591508082111561399857600080fd5b6139a489838a016132c7565b9350608088013591508082111561364857600080fd5b600080600080606085870312156139d057600080fd5b6139d9856130e6565b935060208501359250604085013567ffffffffffffffff8111156136d557600080fd5b600060208284031215613a0e57600080fd5b813563ffffffff8116811461172657600080fd5b60008060408385031215613a3557600080fd5b613a3e836130e6565b946020939093013593505050565b600080600080600060a08688031215613a6457600080fd5b613a6d866130e6565b9450613a7b602087016130e6565b93506040860135925060608601359150608086013567ffffffffffffffff811115613aa557600080fd5b613655888289016131aa565b600181811c90821680613ac557607f821691505b602082108103613ae557634e487b7160e01b600052602260045260246000fd5b50919050565b634e487b7160e01b600052603260045260246000fd5b600060208284031215613b1357600080fd5b815167ffffffffffffffff811115613b2a57600080fd5b8201601f81018413613b3b57600080fd5b8051613b4961317a82613144565b818152856020838501011115613b5e57600080fd5b611b5e826020830160208601613083565b8183823760009101908152919050565b634e487b7160e01b600052601160045260246000fd5b81810381811115610b3e57610b3e613b7f565b65ffffffffffff828116828216039080821115613bc757613bc7613b7f565b5092915050565b600060208284031215613be057600080fd5b815161172681613662565b65ffffffffffff818116838216019080821115613bc757613bc7613b7f565b60008151808452602080850194506020840160005b838110156137ee5781516001600160a01b031687529582019590820190600101613c1f565b60008282518085526020808601955060208260051b8401016020860160005b84811015613c9157601f19868403018952613c7f8383516130a7565b98840198925090830190600101613c63565b5090979650505050505050565b608081526000613cb16080830187613c0a565b8281036020840152613cc381876137bd565b90508281036040840152613cd78186613c44565b91505082606083015295945050505050565b83815260608101613cfd602083018561344c565b826040830152949350505050565b60008251613d1d818460208701613083565b9190910192915050565b80820180821115610b3e57610b3e613b7f565b60ff8181168382160190811115610b3e57610b3e613b7f565b600181815b80851115613d8e578160001904821115613d7457613d74613b7f565b80851615613d8157918102915b93841c9390800290613d58565b509250929050565b600082613da557506001610b3e565b81613db257506000610b3e565b8160018114613dc85760028114613dd257613dee565b6001915050610b3e565b60ff841115613de357613de3613b7f565b50506001821b610b3e565b5060208310610133831016604e8410600b8410161715613e11575081810a610b3e565b613e1b8383613d53565b8060001904821115613e2f57613e2f613b7f565b029392505050565b600061172660ff841683613d96565b84815260ff84166020820152826040820152608060608201526000610f8a60808301846130a7565b85815260ff8516602082015283604082015260a060608201526000613e9660a08301856130a7565b82810360808401526113fd81856130a7565b60006101208b835260206001600160a01b038c1681850152816040850152613ed28285018c613c0a565b91508382036060850152613ee6828b6137bd565b915083820360808501528189518084528284019150828160051b850101838c0160005b83811015613f3757601f19878403018552613f258383516130a7565b94860194925090850190600101613f09565b505086810360a0880152613f4b818c613c44565b9450505050508560c08401528460e0840152828103610100840152613f7081856130a7565b9c9b505050505050505050505050565b600060208284031215613f9257600080fd5b5051919050565b8082028115828204841417610b3e57610b3e613b7f565b634e487b7160e01b600052601260045260246000fd5b600082613fe357634e487b7160e01b600052601260045260246000fd5b500490565b82815260406020820152600061107760408301846130a756fea26469706673582212200301197642b1070a2d7df2f9188a1ef5f36cce9b01c4628642c2f36f6e2e0f1a64736f6c63430008160033",
  "linkReferences": {},
  "deployedLinkReferences": {}
}