{
  "_format": "hh-sol-artifact-1",
  "contractName": "Danyang",
  "sourceName": "contracts/Danyang.sol",
  "abi": [
    {
      "inputs": [
        {
          "internalType": "address",
          "name": "initialOwner",
          "type": "address"
        }
      ],
      "stateMutability": "nonpayable",
      "type": "constructor"
    },
    {
      "inputs": [
        {
          "internalType": "address",
          "name": "sender",
          "type": "address"
        },
        {
          "internalType": "uint256",
          "name": "tokenId",
          "type": "uint256"
        },
        {
          "internalType": "address",
          "name": "owner",
          "type": "address"
        }
      ],
      "name": "ERC721IncorrectOwner",
      "type": "error"
    },
    {
      "inputs": [
        {
          "internalType": "address",
          "name": "operator",
          "type": "address"
        },
        {
          "internalType": "uint256",
          "name": "tokenId",
          "type": "uint256"
        }
      ],
      "name": "ERC721InsufficientApproval",
      "type": "error"
    },
    {
      "inputs": [
        {
          "internalType": "address",
          "name": "approver",
          "type": "address"
        }
      ],
      "name": "ERC721InvalidApprover",
      "type": "error"
    },
    {
      "inputs": [
        {
          "internalType": "address",
          "name": "operator",
          "type": "address"
        }
      ],
      "name": "ERC721InvalidOperator",
      "type": "error"
    },
    {
      "inputs": [
        {
          "internalType": "address",
          "name": "owner",
          "type": "address"
        }
      ],
      "name": "ERC721InvalidOwner",
      "type": "error"
    },
    {
      "inputs": [
        {
          "internalType": "address",
          "name": "receiver",
          "type": "address"
        }
      ],
      "name": "ERC721InvalidReceiver",
      "type": "error"
    },
    {
      "inputs": [
        {
          "internalType": "address",
          "name": "sender",
          "type": "address"
        }
      ],
      "name": "ERC721InvalidSender",
      "type": "error"
    },
    {
      "inputs": [
        {
          "internalType": "uint256",
          "name": "tokenId",
          "type": "uint256"
        }
      ],
      "name": "ERC721NonexistentToken",
      "type": "error"
    },
    {
      "inputs": [
        {
          "internalType": "address",
          "name": "owner",
          "type": "address"
        }
      ],
      "name": "OwnableInvalidOwner",
      "type": "error"
    },
    {
      "inputs": [
        {
          "internalType": "address",
          "name": "account",
          "type": "address"
        }
      ],
      "name": "OwnableUnauthorizedAccount",
      "type": "error"
    },
    {
      "anonymous": false,
      "inputs": [
        {
          "indexed": true,
          "internalType": "address",
          "name": "owner",
          "type": "address"
        },
        {
          "indexed": true,
          "internalType": "address",
          "name": "approved",
          "type": "address"
        },
        {
          "indexed": true,
          "internalType": "uint256",
          "name": "tokenId",
          "type": "uint256"
        }
      ],
      "name": "Approval",
      "type": "event"
    },
    {
      "anonymous": false,
      "inputs": [
        {
          "indexed": true,
          "internalType": "address",
          "name": "owner",
          "type": "address"
        },
        {
          "indexed": true,
          "internalType": "address",
          "name": "operator",
          "type": "address"
        },
        {
          "indexed": false,
          "internalType": "bool",
          "name": "approved",
          "type": "bool"
        }
      ],
      "name": "ApprovalForAll",
      "type": "event"
    },
    {
      "anonymous": false,
      "inputs": [
        {
          "indexed": true,
          "internalType": "address",
          "name": "previousOwner",
          "type": "address"
        },
        {
          "indexed": true,
          "internalType": "address",
          "name": "newOwner",
          "type": "address"
        }
      ],
      "name": "OwnershipTransferred",
      "type": "event"
    },
    {
      "anonymous": false,
      "inputs": [
        {
          "indexed": true,
          "internalType": "address",
          "name": "from",
          "type": "address"
        },
        {
          "indexed": true,
          "internalType": "address",
          "name": "to",
          "type": "address"
        },
        {
          "indexed": true,
          "internalType": "uint256",
          "name": "tokenId",
          "type": "uint256"
        }
      ],
      "name": "Transfer",
      "type": "event"
    },
    {
      "inputs": [
        {
          "internalType": "address",
          "name": "to",
          "type": "address"
        },
        {
          "internalType": "uint256",
          "name": "tokenId",
          "type": "uint256"
        }
      ],
      "name": "approve",
      "outputs": [],
      "stateMutability": "nonpayable",
      "type": "function"
    },
    {
      "inputs": [
        {
          "internalType": "address",
          "name": "owner",
          "type": "address"
        }
      ],
      "name": "balanceOf",
      "outputs": [
        {
          "internalType": "uint256",
          "name": "",
          "type": "uint256"
        }
      ],
      "stateMutability": "view",
      "type": "function"
    },
    {
      "inputs": [],
      "name": "buyNFT",
      "outputs": [],
      "stateMutability": "payable",
      "type": "function"
    },
    {
      "inputs": [
        {
          "internalType": "uint256",
          "name": "tokenId",
          "type": "uint256"
        }
      ],
      "name": "getApproved",
      "outputs": [
        {
          "internalType": "address",
          "name": "",
          "type": "address"
        }
      ],
      "stateMutability": "view",
      "type": "function"
    },
    {
      "inputs": [
        {
          "internalType": "address",
          "name": "owner",
          "type": "address"
        },
        {
          "internalType": "address",
          "name": "operator",
          "type": "address"
        }
      ],
      "name": "isApprovedForAll",
      "outputs": [
        {
          "internalType": "bool",
          "name": "",
          "type": "bool"
        }
      ],
      "stateMutability": "view",
      "type": "function"
    },
    {
      "inputs": [],
      "name": "isOnSale",
      "outputs": [
        {
          "internalType": "bool",
          "name": "",
          "type": "bool"
        }
      ],
      "stateMutability": "view",
      "type": "function"
    },
    {
      "inputs": [],
      "name": "name",
      "outputs": [
        {
          "internalType": "string",
          "name": "",
          "type": "string"
        }
      ],
      "stateMutability": "view",
      "type": "function"
    },
    {
      "inputs": [],
      "name": "owner",
      "outputs": [
        {
          "internalType": "address",
          "name": "",
          "type": "address"
        }
      ],
      "stateMutability": "view",
      "type": "function"
    },
    {
      "inputs": [
        {
          "internalType": "uint256",
          "name": "tokenId",
          "type": "uint256"
        }
      ],
      "name": "ownerOf",
      "outputs": [
        {
          "internalType": "address",
          "name": "",
          "type": "address"
        }
      ],
      "stateMutability": "view",
      "type": "function"
    },
    {
      "inputs": [],
      "name": "price",
      "outputs": [
        {
          "internalType": "uint256",
          "name": "",
          "type": "uint256"
        }
      ],
      "stateMutability": "view",
      "type": "function"
    },
    {
      "inputs": [],
      "name": "renounceOwnership",
      "outputs": [],
      "stateMutability": "nonpayable",
      "type": "function"
    },
    {
      "inputs": [
        {
          "internalType": "address",
          "name": "from",
          "type": "address"
        },
        {
          "internalType": "address",
          "name": "to",
          "type": "address"
        },
        {
          "internalType": "uint256",
          "name": "tokenId",
          "type": "uint256"
        }
      ],
      "name": "safeTransferFrom",
      "outputs": [],
      "stateMutability": "nonpayable",
      "type": "function"
    },
    {
      "inputs": [
        {
          "internalType": "address",
          "name": "from",
          "type": "address"
        },
        {
          "internalType": "address",
          "name": "to",
          "type": "address"
        },
        {
          "internalType": "uint256",
          "name": "tokenId",
          "type": "uint256"
        },
        {
          "internalType": "bytes",
          "name": "data",
          "type": "bytes"
        }
      ],
      "name": "safeTransferFrom",
      "outputs": [],
      "stateMutability": "nonpayable",
      "type": "function"
    },
    {
      "inputs": [
        {
          "internalType": "address",
          "name": "operator",
          "type": "address"
        },
        {
          "internalType": "bool",
          "name": "approved",
          "type": "bool"
        }
      ],
      "name": "setApprovalForAll",
      "outputs": [],
      "stateMutability": "nonpayable",
      "type": "function"
    },
    {
      "inputs": [
        {
          "internalType": "bytes4",
          "name": "interfaceId",
          "type": "bytes4"
        }
      ],
      "name": "supportsInterface",
      "outputs": [
        {
          "internalType": "bool",
          "name": "",
          "type": "bool"
        }
      ],
      "stateMutability": "view",
      "type": "function"
    },
    {
      "inputs": [],
      "name": "symbol",
      "outputs": [
        {
          "internalType": "string",
          "name": "",
          "type": "string"
        }
      ],
      "stateMutability": "view",
      "type": "function"
    },
    {
      "inputs": [
        {
          "internalType": "uint256",
          "name": "tokenId",
          "type": "uint256"
        }
      ],
      "name": "tokenURI",
      "outputs": [
        {
          "internalType": "string",
          "name": "",
          "type": "string"
        }
      ],
      "stateMutability": "view",
      "type": "function"
    },
    {
      "inputs": [
        {
          "internalType": "address",
          "name": "from",
          "type": "address"
        },
        {
          "internalType": "address",
          "name": "to",
          "type": "address"
        },
        {
          "internalType": "uint256",
          "name": "tokenId",
          "type": "uint256"
        }
      ],
      "name": "transferFrom",
      "outputs": [],
      "stateMutability": "nonpayable",
      "type": "function"
    },
    {
      "inputs": [
        {
          "internalType": "address",
          "name": "newOwner",
          "type": "address"
        }
      ],
      "name": "transferOwnership",
      "outputs": [],
      "stateMutability": "nonpayable",
      "type": "function"
    },
    {
      "inputs": [
        {
          "internalType": "bool",
          "name": "saleStatus_",
          "type": "bool"
        }
      ],
      "name": "updateSaleStatus",
      "outputs": [],
      "stateMutability": "nonpayable",
      "type": "function"
    },
    {
      "inputs": [],
      "name": "withdraw",
      "outputs": [],
      "stateMutability": "payable",
      "type": "function"
    }
  ],
  "bytecode": "0x60806040526001600860006101000a81548160ff0219169083151502179055503480156200002c57600080fd5b5060405162002d9c38038062002d9c8339818101604052810190620000529190620002a3565b806040518060400160405280600781526020017f44616e79616e67000000000000000000000000000000000000000000000000008152506040518060400160405280600381526020017f44594d00000000000000000000000000000000000000000000000000000000008152508160009081620000d091906200054f565b508060019081620000e291906200054f565b505050600073ffffffffffffffffffffffffffffffffffffffff168173ffffffffffffffffffffffffffffffffffffffff16036200015a5760006040517f1e4fbdf700000000000000000000000000000000000000000000000000000000815260040162000151919062000647565b60405180910390fd5b6200016b816200017360201b60201c565b505062000664565b6000600660009054906101000a900473ffffffffffffffffffffffffffffffffffffffff16905081600660006101000a81548173ffffffffffffffffffffffffffffffffffffffff021916908373ffffffffffffffffffffffffffffffffffffffff1602179055508173ffffffffffffffffffffffffffffffffffffffff168173ffffffffffffffffffffffffffffffffffffffff167f8be0079c531659141344cd1fd0a4f28419497f9722a3daafe3b4186f6b6457e060405160405180910390a35050565b600080fd5b600073ffffffffffffffffffffffffffffffffffffffff82169050919050565b60006200026b826200023e565b9050919050565b6200027d816200025e565b81146200028957600080fd5b50565b6000815190506200029d8162000272565b92915050565b600060208284031215620002bc57620002bb62000239565b5b6000620002cc848285016200028c565b91505092915050565b600081519050919050565b7f4e487b7100000000000000000000000000000000000000000000000000000000600052604160045260246000fd5b7f4e487b7100000000000000000000000000000000000000000000000000000000600052602260045260246000fd5b600060028204905060018216806200035757607f821691505b6020821081036200036d576200036c6200030f565b5b50919050565b60008190508160005260206000209050919050565b60006020601f8301049050919050565b600082821b905092915050565b600060088302620003d77fffffffffffffffffffffffffffffffffffffffffffffffffffffffffffffffff8262000398565b620003e3868362000398565b95508019841693508086168417925050509392505050565b6000819050919050565b6000819050919050565b6000620004306200042a6200042484620003fb565b62000405565b620003fb565b9050919050565b6000819050919050565b6200044c836200040f565b620004646200045b8262000437565b848454620003a5565b825550505050565b600090565b6200047b6200046c565b6200048881848462000441565b505050565b5b81811015620004b057620004a460008262000471565b6001810190506200048e565b5050565b601f821115620004ff57620004c98162000373565b620004d48462000388565b81016020851015620004e4578190505b620004fc620004f38562000388565b8301826200048d565b50505b505050565b600082821c905092915050565b6000620005246000198460080262000504565b1980831691505092915050565b60006200053f838362000511565b9150826002028217905092915050565b6200055a82620002d5565b67ffffffffffffffff811115620005765762000575620002e0565b5b6200058282546200033e565b6200058f828285620004b4565b600060209050601f831160018114620005c75760008415620005b2578287015190505b620005be858262000531565b8655506200062e565b601f198416620005d78662000373565b60005b828110156200060157848901518255600182019150602085019450602081019050620005da565b868310156200062157848901516200061d601f89168262000511565b8355505b6001600288020188555050505b505050505050565b62000641816200025e565b82525050565b60006020820190506200065e600083018462000636565b92915050565b61272880620006746000396000f3fe60806040526004361061012a5760003560e01c8063715018a6116100ab578063a22cb4651161006f578063a22cb465146103bf578063b88d4fde146103e8578063bff29cee14610411578063c87b56dd1461041b578063e985e9c514610458578063f2fde38b146104955761012a565b8063715018a6146102fc578063890e839f146103135780638da5cb5b1461033e57806395d89b4114610369578063a035b1fe146103945761012a565b806323b872dd116100f257806323b872dd146102265780633ccfd60b1461024f57806342842e0e146102595780636352211e1461028257806370a08231146102bf5761012a565b806301ffc9a71461012f57806306fdde031461016c578063081812fc14610197578063095ea7b3146101d45780630a088949146101fd575b600080fd5b34801561013b57600080fd5b5061015660048036038101906101519190611c21565b6104be565b6040516101639190611c69565b60405180910390f35b34801561017857600080fd5b506101816105a0565b60405161018e9190611d14565b60405180910390f35b3480156101a357600080fd5b506101be60048036038101906101b99190611d6c565b610632565b6040516101cb9190611dda565b60405180910390f35b3480156101e057600080fd5b506101fb60048036038101906101f69190611e21565b61064e565b005b34801561020957600080fd5b50610224600480360381019061021f9190611e8d565b610664565b005b34801561023257600080fd5b5061024d60048036038101906102489190611eba565b610689565b005b61025761078b565b005b34801561026557600080fd5b50610280600480360381019061027b9190611eba565b61088b565b005b34801561028e57600080fd5b506102a960048036038101906102a49190611d6c565b6108ab565b6040516102b69190611dda565b60405180910390f35b3480156102cb57600080fd5b506102e660048036038101906102e19190611f0d565b6108bd565b6040516102f39190611f49565b60405180910390f35b34801561030857600080fd5b50610311610977565b005b34801561031f57600080fd5b5061032861098b565b6040516103359190611c69565b60405180910390f35b34801561034a57600080fd5b506103536109a2565b6040516103609190611dda565b60405180910390f35b34801561037557600080fd5b5061037e6109cc565b60405161038b9190611d14565b60405180910390f35b3480156103a057600080fd5b506103a9610a5e565b6040516103b69190611f49565b60405180910390f35b3480156103cb57600080fd5b506103e660048036038101906103e19190611f64565b610a69565b005b3480156103f457600080fd5b5061040f600480360381019061040a91906120d9565b610a7f565b005b610419610a9c565b005b34801561042757600080fd5b50610442600480360381019061043d9190611d6c565b610b61565b60405161044f9190611d14565b60405180910390f35b34801561046457600080fd5b5061047f600480360381019061047a919061215c565b610bca565b60405161048c9190611c69565b60405180910390f35b3480156104a157600080fd5b506104bc60048036038101906104b79190611f0d565b610c5e565b005b60007f80ac58cd000000000000000000000000000000000000000000000000000000007bffffffffffffffffffffffffffffffffffffffffffffffffffffffff1916827bffffffffffffffffffffffffffffffffffffffffffffffffffffffff1916148061058957507f5b5e139f000000000000000000000000000000000000000000000000000000007bffffffffffffffffffffffffffffffffffffffffffffffffffffffff1916827bffffffffffffffffffffffffffffffffffffffffffffffffffffffff1916145b80610599575061059882610ce4565b5b9050919050565b6060600080546105af906121cb565b80601f01602080910402602001604051908101604052809291908181526020018280546105db906121cb565b80156106285780601f106105fd57610100808354040283529160200191610628565b820191906000526020600020905b81548152906001019060200180831161060b57829003601f168201915b5050505050905090565b600061063d82610d4e565b5061064782610dd6565b9050919050565b610660828261065b610e13565b610e1b565b5050565b61066c610e2d565b80600860006101000a81548160ff02191690831515021790555050565b600073ffffffffffffffffffffffffffffffffffffffff168273ffffffffffffffffffffffffffffffffffffffff16036106fb5760006040517f64a0ae920000000000000000000000000000000000000000000000000000000081526004016106f29190611dda565b60405180910390fd5b600061070f838361070a610e13565b610eb4565b90508373ffffffffffffffffffffffffffffffffffffffff168173ffffffffffffffffffffffffffffffffffffffff1614610785578382826040517f64283d7b00000000000000000000000000000000000000000000000000000000815260040161077c939291906121fc565b60405180910390fd5b50505050565b610793610e2d565b6000479050600081116107db576040517f08c379a00000000000000000000000000000000000000000000000000000000081526004016107d29061227f565b60405180910390fd5b60003373ffffffffffffffffffffffffffffffffffffffff1682604051610801906122d0565b60006040518083038185875af1925050503d806000811461083e576040519150601f19603f3d011682016040523d82523d6000602084013e610843565b606091505b5050905080610887576040517f08c379a000000000000000000000000000000000000000000000000000000000815260040161087e90612331565b60405180910390fd5b5050565b6108a683838360405180602001604052806000815250610a7f565b505050565b60006108b682610d4e565b9050919050565b60008073ffffffffffffffffffffffffffffffffffffffff168273ffffffffffffffffffffffffffffffffffffffff16036109305760006040517f89c62b640000000000000000000000000000000000000000000000000000000081526004016109279190611dda565b60405180910390fd5b600360008373ffffffffffffffffffffffffffffffffffffffff1673ffffffffffffffffffffffffffffffffffffffff168152602001908152602001600020549050919050565b61097f610e2d565b61098960006110ce565b565b6000600860009054906101000a900460ff16905090565b6000600660009054906101000a900473ffffffffffffffffffffffffffffffffffffffff16905090565b6060600180546109db906121cb565b80601f0160208091040260200160405190810160405280929190818152602001828054610a07906121cb565b8015610a545780601f10610a2957610100808354040283529160200191610a54565b820191906000526020600020905b815481529060010190602001808311610a3757829003601f168201915b5050505050905090565b662386f26fc1000081565b610a7b610a74610e13565b8383611194565b5050565b610a8a848484610689565b610a9684848484611303565b50505050565b600860009054906101000a900460ff16610aeb576040517f08c379a0000000000000000000000000000000000000000000000000000000008152600401610ae29061239d565b60405180910390fd5b662386f26fc10000341015610b35576040517f08c379a0000000000000000000000000000000000000000000000000000000008152600401610b2c9061242f565b60405180910390fd5b60076000815480929190610b489061247e565b919050555060006007549050610b5e33826114ba565b50565b6060610b6c82610d4e565b506000610b776114d8565b90506000815111610b975760405180602001604052806000815250610bc2565b80610ba1846114f8565b604051602001610bb2929190612502565b6040516020818303038152906040525b915050919050565b6000600560008473ffffffffffffffffffffffffffffffffffffffff1673ffffffffffffffffffffffffffffffffffffffff16815260200190815260200160002060008373ffffffffffffffffffffffffffffffffffffffff1673ffffffffffffffffffffffffffffffffffffffff16815260200190815260200160002060009054906101000a900460ff16905092915050565b610c66610e2d565b600073ffffffffffffffffffffffffffffffffffffffff168173ffffffffffffffffffffffffffffffffffffffff1603610cd85760006040517f1e4fbdf7000000000000000000000000000000000000000000000000000000008152600401610ccf9190611dda565b60405180910390fd5b610ce1816110ce565b50565b60007f01ffc9a7000000000000000000000000000000000000000000000000000000007bffffffffffffffffffffffffffffffffffffffffffffffffffffffff1916827bffffffffffffffffffffffffffffffffffffffffffffffffffffffff1916149050919050565b600080610d5a836115c6565b9050600073ffffffffffffffffffffffffffffffffffffffff168173ffffffffffffffffffffffffffffffffffffffff1603610dcd57826040517f7e273289000000000000000000000000000000000000000000000000000000008152600401610dc49190611f49565b60405180910390fd5b80915050919050565b60006004600083815260200190815260200160002060009054906101000a900473ffffffffffffffffffffffffffffffffffffffff169050919050565b600033905090565b610e288383836001611603565b505050565b610e35610e13565b73ffffffffffffffffffffffffffffffffffffffff16610e536109a2565b73ffffffffffffffffffffffffffffffffffffffff1614610eb257610e76610e13565b6040517f118cdaa7000000000000000000000000000000000000000000000000000000008152600401610ea99190611dda565b60405180910390fd5b565b600080610ec0846115c6565b9050600073ffffffffffffffffffffffffffffffffffffffff168373ffffffffffffffffffffffffffffffffffffffff1614610f0257610f018184866117c8565b5b600073ffffffffffffffffffffffffffffffffffffffff168173ffffffffffffffffffffffffffffffffffffffff1614610f9357610f44600085600080611603565b6001600360008373ffffffffffffffffffffffffffffffffffffffff1673ffffffffffffffffffffffffffffffffffffffff168152602001908152602001600020600082825403925050819055505b600073ffffffffffffffffffffffffffffffffffffffff168573ffffffffffffffffffffffffffffffffffffffff1614611016576001600360008773ffffffffffffffffffffffffffffffffffffffff1673ffffffffffffffffffffffffffffffffffffffff168152602001908152602001600020600082825401925050819055505b846002600086815260200190815260200160002060006101000a81548173ffffffffffffffffffffffffffffffffffffffff021916908373ffffffffffffffffffffffffffffffffffffffff160217905550838573ffffffffffffffffffffffffffffffffffffffff168273ffffffffffffffffffffffffffffffffffffffff167fddf252ad1be2c89b69c2b068fc378daa952ba7f163c4a11628f55a4df523b3ef60405160405180910390a4809150509392505050565b6000600660009054906101000a900473ffffffffffffffffffffffffffffffffffffffff16905081600660006101000a81548173ffffffffffffffffffffffffffffffffffffffff021916908373ffffffffffffffffffffffffffffffffffffffff1602179055508173ffffffffffffffffffffffffffffffffffffffff168173ffffffffffffffffffffffffffffffffffffffff167f8be0079c531659141344cd1fd0a4f28419497f9722a3daafe3b4186f6b6457e060405160405180910390a35050565b600073ffffffffffffffffffffffffffffffffffffffff168273ffffffffffffffffffffffffffffffffffffffff160361120557816040517f5b08ba180000000000000000000000000000000000000000000000000000000081526004016111fc9190611dda565b60405180910390fd5b80600560008573ffffffffffffffffffffffffffffffffffffffff1673ffffffffffffffffffffffffffffffffffffffff16815260200190815260200160002060008473ffffffffffffffffffffffffffffffffffffffff1673ffffffffffffffffffffffffffffffffffffffff16815260200190815260200160002060006101000a81548160ff0219169083151502179055508173ffffffffffffffffffffffffffffffffffffffff168373ffffffffffffffffffffffffffffffffffffffff167f17307eab39ab6107e8899845ad3d59bd9653f200f220920489ca2b5937696c31836040516112f69190611c69565b60405180910390a3505050565b60008373ffffffffffffffffffffffffffffffffffffffff163b11156114b4578273ffffffffffffffffffffffffffffffffffffffff1663150b7a02611347610e13565b8685856040518563ffffffff1660e01b8152600401611369949392919061257b565b6020604051808303816000875af19250505080156113a557506040513d601f19601f820116820180604052508101906113a291906125dc565b60015b611429573d80600081146113d5576040519150601f19603f3d011682016040523d82523d6000602084013e6113da565b606091505b50600081510361142157836040517f64a0ae920000000000000000000000000000000000000000000000000000000081526004016114189190611dda565b60405180910390fd5b805181602001fd5b63150b7a0260e01b7bffffffffffffffffffffffffffffffffffffffffffffffffffffffff1916817bffffffffffffffffffffffffffffffffffffffffffffffffffffffff1916146114b257836040517f64a0ae920000000000000000000000000000000000000000000000000000000081526004016114a99190611dda565b60405180910390fd5b505b50505050565b6114d482826040518060200160405280600081525061188c565b5050565b60606040518060c001604052806091815260200161266260919139905090565b606060006001611507846118a8565b01905060008167ffffffffffffffff81111561152657611525611fae565b5b6040519080825280601f01601f1916602001820160405280156115585781602001600182028036833780820191505090505b509050600082602001820190505b6001156115bb578080600190039150507f3031323334353637383961626364656600000000000000000000000000000000600a86061a8153600a85816115af576115ae612609565b5b04945060008503611566575b819350505050919050565b60006002600083815260200190815260200160002060009054906101000a900473ffffffffffffffffffffffffffffffffffffffff169050919050565b808061163c5750600073ffffffffffffffffffffffffffffffffffffffff168273ffffffffffffffffffffffffffffffffffffffff1614155b1561177057600061164c84610d4e565b9050600073ffffffffffffffffffffffffffffffffffffffff168373ffffffffffffffffffffffffffffffffffffffff16141580156116b757508273ffffffffffffffffffffffffffffffffffffffff168173ffffffffffffffffffffffffffffffffffffffff1614155b80156116ca57506116c88184610bca565b155b1561170c57826040517fa9fbf51f0000000000000000000000000000000000000000000000000000000081526004016117039190611dda565b60405180910390fd5b811561176e57838573ffffffffffffffffffffffffffffffffffffffff168273ffffffffffffffffffffffffffffffffffffffff167f8c5be1e5ebec7d5bd14f71427d1e84f3dd0314c0f7b2291e5b200ac8c7c3b92560405160405180910390a45b505b836004600085815260200190815260200160002060006101000a81548173ffffffffffffffffffffffffffffffffffffffff021916908373ffffffffffffffffffffffffffffffffffffffff16021790555050505050565b6117d38383836119fb565b61188757600073ffffffffffffffffffffffffffffffffffffffff168373ffffffffffffffffffffffffffffffffffffffff160361184857806040517f7e27328900000000000000000000000000000000000000000000000000000000815260040161183f9190611f49565b60405180910390fd5b81816040517f177e802f00000000000000000000000000000000000000000000000000000000815260040161187e929190612638565b60405180910390fd5b505050565b6118968383611abc565b6118a36000848484611303565b505050565b600080600090507a184f03e93ff9f4daa797ed6e38ed64bf6a1f0100000000000000008310611906577a184f03e93ff9f4daa797ed6e38ed64bf6a1f01000000000000000083816118fc576118fb612609565b5b0492506040810190505b6d04ee2d6d415b85acef81000000008310611943576d04ee2d6d415b85acef8100000000838161193957611938612609565b5b0492506020810190505b662386f26fc10000831061197257662386f26fc10000838161196857611967612609565b5b0492506010810190505b6305f5e100831061199b576305f5e100838161199157611990612609565b5b0492506008810190505b61271083106119c05761271083816119b6576119b5612609565b5b0492506004810190505b606483106119e357606483816119d9576119d8612609565b5b0492506002810190505b600a83106119f2576001810190505b80915050919050565b60008073ffffffffffffffffffffffffffffffffffffffff168373ffffffffffffffffffffffffffffffffffffffff1614158015611ab357508273ffffffffffffffffffffffffffffffffffffffff168473ffffffffffffffffffffffffffffffffffffffff161480611a745750611a738484610bca565b5b80611ab257508273ffffffffffffffffffffffffffffffffffffffff16611a9a83610dd6565b73ffffffffffffffffffffffffffffffffffffffff16145b5b90509392505050565b600073ffffffffffffffffffffffffffffffffffffffff168273ffffffffffffffffffffffffffffffffffffffff1603611b2e5760006040517f64a0ae92000000000000000000000000000000000000000000000000000000008152600401611b259190611dda565b60405180910390fd5b6000611b3c83836000610eb4565b9050600073ffffffffffffffffffffffffffffffffffffffff168173ffffffffffffffffffffffffffffffffffffffff1614611bb05760006040517f73c6ac6e000000000000000000000000000000000000000000000000000000008152600401611ba79190611dda565b60405180910390fd5b505050565b6000604051905090565b600080fd5b600080fd5b60007fffffffff0000000000000000000000000000000000000000000000000000000082169050919050565b611bfe81611bc9565b8114611c0957600080fd5b50565b600081359050611c1b81611bf5565b92915050565b600060208284031215611c3757611c36611bbf565b5b6000611c4584828501611c0c565b91505092915050565b60008115159050919050565b611c6381611c4e565b82525050565b6000602082019050611c7e6000830184611c5a565b92915050565b600081519050919050565b600082825260208201905092915050565b60005b83811015611cbe578082015181840152602081019050611ca3565b60008484015250505050565b6000601f19601f8301169050919050565b6000611ce682611c84565b611cf08185611c8f565b9350611d00818560208601611ca0565b611d0981611cca565b840191505092915050565b60006020820190508181036000830152611d2e8184611cdb565b905092915050565b6000819050919050565b611d4981611d36565b8114611d5457600080fd5b50565b600081359050611d6681611d40565b92915050565b600060208284031215611d8257611d81611bbf565b5b6000611d9084828501611d57565b91505092915050565b600073ffffffffffffffffffffffffffffffffffffffff82169050919050565b6000611dc482611d99565b9050919050565b611dd481611db9565b82525050565b6000602082019050611def6000830184611dcb565b92915050565b611dfe81611db9565b8114611e0957600080fd5b50565b600081359050611e1b81611df5565b92915050565b60008060408385031215611e3857611e37611bbf565b5b6000611e4685828601611e0c565b9250506020611e5785828601611d57565b9150509250929050565b611e6a81611c4e565b8114611e7557600080fd5b50565b600081359050611e8781611e61565b92915050565b600060208284031215611ea357611ea2611bbf565b5b6000611eb184828501611e78565b91505092915050565b600080600060608486031215611ed357611ed2611bbf565b5b6000611ee186828701611e0c565b9350506020611ef286828701611e0c565b9250506040611f0386828701611d57565b9150509250925092565b600060208284031215611f2357611f22611bbf565b5b6000611f3184828501611e0c565b91505092915050565b611f4381611d36565b82525050565b6000602082019050611f5e6000830184611f3a565b92915050565b60008060408385031215611f7b57611f7a611bbf565b5b6000611f8985828601611e0c565b9250506020611f9a85828601611e78565b9150509250929050565b600080fd5b600080fd5b7f4e487b7100000000000000000000000000000000000000000000000000000000600052604160045260246000fd5b611fe682611cca565b810181811067ffffffffffffffff8211171561200557612004611fae565b5b80604052505050565b6000612018611bb5565b90506120248282611fdd565b919050565b600067ffffffffffffffff82111561204457612043611fae565b5b61204d82611cca565b9050602081019050919050565b82818337600083830152505050565b600061207c61207784612029565b61200e565b90508281526020810184848401111561209857612097611fa9565b5b6120a384828561205a565b509392505050565b600082601f8301126120c0576120bf611fa4565b5b81356120d0848260208601612069565b91505092915050565b600080600080608085870312156120f3576120f2611bbf565b5b600061210187828801611e0c565b945050602061211287828801611e0c565b935050604061212387828801611d57565b925050606085013567ffffffffffffffff81111561214457612143611bc4565b5b612150878288016120ab565b91505092959194509250565b6000806040838503121561217357612172611bbf565b5b600061218185828601611e0c565b925050602061219285828601611e0c565b9150509250929050565b7f4e487b7100000000000000000000000000000000000000000000000000000000600052602260045260246000fd5b600060028204905060018216806121e357607f821691505b6020821081036121f6576121f561219c565b5b50919050565b60006060820190506122116000830186611dcb565b61221e6020830185611f3a565b61222b6040830184611dcb565b949350505050565b7f4e6f204574686572206c65667420746f20776974686472617700000000000000600082015250565b6000612269601983611c8f565b915061227482612233565b602082019050919050565b600060208201905081810360008301526122988161225c565b9050919050565b600081905092915050565b50565b60006122ba60008361229f565b91506122c5826122aa565b600082019050919050565b60006122db826122ad565b9150819050919050565b7f5472616e73666572206661696c65642e00000000000000000000000000000000600082015250565b600061231b601083611c8f565b9150612326826122e5565b602082019050919050565b6000602082019050818103600083015261234a8161230e565b9050919050565b7f44616e79616e673a204e6f74206f6e2073616c65206e6f770000000000000000600082015250565b6000612387601883611c8f565b915061239282612351565b602082019050919050565b600060208201905081810360008301526123b68161237a565b9050919050565b7f44616e79616e673a204e6f7420656e6f7567682062616c616e636520746f206260008201527f7579000000000000000000000000000000000000000000000000000000000000602082015250565b6000612419602283611c8f565b9150612424826123bd565b604082019050919050565b600060208201905081810360008301526124488161240c565b9050919050565b7f4e487b7100000000000000000000000000000000000000000000000000000000600052601160045260246000fd5b600061248982611d36565b91507fffffffffffffffffffffffffffffffffffffffffffffffffffffffffffffffff82036124bb576124ba61244f565b5b600182019050919050565b600081905092915050565b60006124dc82611c84565b6124e681856124c6565b93506124f6818560208601611ca0565b80840191505092915050565b600061250e82856124d1565b915061251a82846124d1565b91508190509392505050565b600081519050919050565b600082825260208201905092915050565b600061254d82612526565b6125578185612531565b9350612567818560208601611ca0565b61257081611cca565b840191505092915050565b60006080820190506125906000830187611dcb565b61259d6020830186611dcb565b6125aa6040830185611f3a565b81810360608301526125bc8184612542565b905095945050505050565b6000815190506125d681611bf5565b92915050565b6000602082840312156125f2576125f1611bbf565b5b6000612600848285016125c7565b91505092915050565b7f4e487b7100000000000000000000000000000000000000000000000000000000600052601260045260246000fd5b600060408201905061264d6000830185611dcb565b61265a6020830184611f3a565b939250505056fe68747470733a2f2f697066732e696f2f697066732f516d65457845596f66747662595176515768434d6456677561314d415274795162445556565039397355473864433f66696c656e616d653d2545432539442542342545422542302541392545432539412542345f2545422538462538342545422538422542342545432538322542432545422542342538392e6a7067a26469706673582212202963d00fe91dd8f58b14004b4ed60d5881ad1dfc66fb722a6d7c80b907b28ece64736f6c63430008180033",
  "linkReferences": {},
  "deployedLinkReferences": {}
}