{
  "_format": "hh-sol-artifact-1",
  "contractName": "Danyang",
  "sourceName": "contracts/Danyang.sol",
  "abi": [
    {
      "inputs": [
        {
          "internalType": "address",
          "name": "initialOwner",
          "type": "address"
        }
      ],
      "stateMutability": "nonpayable",
      "type": "constructor"
    },
    {
      "inputs": [
        {
          "internalType": "address",
          "name": "sender",
          "type": "address"
        },
        {
          "internalType": "uint256",
          "name": "tokenId",
          "type": "uint256"
        },
        {
          "internalType": "address",
          "name": "owner",
          "type": "address"
        }
      ],
      "name": "ERC721IncorrectOwner",
      "type": "error"
    },
    {
      "inputs": [
        {
          "internalType": "address",
          "name": "operator",
          "type": "address"
        },
        {
          "internalType": "uint256",
          "name": "tokenId",
          "type": "uint256"
        }
      ],
      "name": "ERC721InsufficientApproval",
      "type": "error"
    },
    {
      "inputs": [
        {
          "internalType": "address",
          "name": "approver",
          "type": "address"
        }
      ],
      "name": "ERC721InvalidApprover",
      "type": "error"
    },
    {
      "inputs": [
        {
          "internalType": "address",
          "name": "operator",
          "type": "address"
        }
      ],
      "name": "ERC721InvalidOperator",
      "type": "error"
    },
    {
      "inputs": [
        {
          "internalType": "address",
          "name": "owner",
          "type": "address"
        }
      ],
      "name": "ERC721InvalidOwner",
      "type": "error"
    },
    {
      "inputs": [
        {
          "internalType": "address",
          "name": "receiver",
          "type": "address"
        }
      ],
      "name": "ERC721InvalidReceiver",
      "type": "error"
    },
    {
      "inputs": [
        {
          "internalType": "address",
          "name": "sender",
          "type": "address"
        }
      ],
      "name": "ERC721InvalidSender",
      "type": "error"
    },
    {
      "inputs": [
        {
          "internalType": "uint256",
          "name": "tokenId",
          "type": "uint256"
        }
      ],
      "name": "ERC721NonexistentToken",
      "type": "error"
    },
    {
      "inputs": [
        {
          "internalType": "address",
          "name": "owner",
          "type": "address"
        }
      ],
      "name": "OwnableInvalidOwner",
      "type": "error"
    },
    {
      "inputs": [
        {
          "internalType": "address",
          "name": "account",
          "type": "address"
        }
      ],
      "name": "OwnableUnauthorizedAccount",
      "type": "error"
    },
    {
      "anonymous": false,
      "inputs": [
        {
          "indexed": true,
          "internalType": "address",
          "name": "owner",
          "type": "address"
        },
        {
          "indexed": true,
          "internalType": "address",
          "name": "approved",
          "type": "address"
        },
        {
          "indexed": true,
          "internalType": "uint256",
          "name": "tokenId",
          "type": "uint256"
        }
      ],
      "name": "Approval",
      "type": "event"
    },
    {
      "anonymous": false,
      "inputs": [
        {
          "indexed": true,
          "internalType": "address",
          "name": "owner",
          "type": "address"
        },
        {
          "indexed": true,
          "internalType": "address",
          "name": "operator",
          "type": "address"
        },
        {
          "indexed": false,
          "internalType": "bool",
          "name": "approved",
          "type": "bool"
        }
      ],
      "name": "ApprovalForAll",
      "type": "event"
    },
    {
      "anonymous": false,
      "inputs": [
        {
          "indexed": true,
          "internalType": "address",
          "name": "previousOwner",
          "type": "address"
        },
        {
          "indexed": true,
          "internalType": "address",
          "name": "newOwner",
          "type": "address"
        }
      ],
      "name": "OwnershipTransferred",
      "type": "event"
    },
    {
      "anonymous": false,
      "inputs": [
        {
          "indexed": true,
          "internalType": "address",
          "name": "from",
          "type": "address"
        },
        {
          "indexed": true,
          "internalType": "address",
          "name": "to",
          "type": "address"
        },
        {
          "indexed": true,
          "internalType": "uint256",
          "name": "tokenId",
          "type": "uint256"
        }
      ],
      "name": "Transfer",
      "type": "event"
    },
    {
      "inputs": [
        {
          "internalType": "address",
          "name": "to",
          "type": "address"
        },
        {
          "internalType": "uint256",
          "name": "tokenId",
          "type": "uint256"
        }
      ],
      "name": "approve",
      "outputs": [],
      "stateMutability": "nonpayable",
      "type": "function"
    },
    {
      "inputs": [
        {
          "internalType": "address",
          "name": "owner",
          "type": "address"
        }
      ],
      "name": "balanceOf",
      "outputs": [
        {
          "internalType": "uint256",
          "name": "",
          "type": "uint256"
        }
      ],
      "stateMutability": "view",
      "type": "function"
    },
    {
      "inputs": [],
      "name": "buyNFT",
      "outputs": [],
      "stateMutability": "payable",
      "type": "function"
    },
    {
      "inputs": [
        {
          "internalType": "uint256",
          "name": "tokenId",
          "type": "uint256"
        }
      ],
      "name": "getApproved",
      "outputs": [
        {
          "internalType": "address",
          "name": "",
          "type": "address"
        }
      ],
      "stateMutability": "view",
      "type": "function"
    },
    {
      "inputs": [
        {
          "internalType": "uint256",
          "name": "tokenId",
          "type": "uint256"
        }
      ],
      "name": "getJoinCode",
      "outputs": [
        {
          "internalType": "string",
          "name": "",
          "type": "string"
        }
      ],
      "stateMutability": "view",
      "type": "function"
    },
    {
      "inputs": [
        {
          "internalType": "address",
          "name": "owner",
          "type": "address"
        },
        {
          "internalType": "address",
          "name": "operator",
          "type": "address"
        }
      ],
      "name": "isApprovedForAll",
      "outputs": [
        {
          "internalType": "bool",
          "name": "",
          "type": "bool"
        }
      ],
      "stateMutability": "view",
      "type": "function"
    },
    {
      "inputs": [],
      "name": "isOnSale",
      "outputs": [
        {
          "internalType": "bool",
          "name": "",
          "type": "bool"
        }
      ],
      "stateMutability": "view",
      "type": "function"
    },
    {
      "inputs": [],
      "name": "name",
      "outputs": [
        {
          "internalType": "string",
          "name": "",
          "type": "string"
        }
      ],
      "stateMutability": "view",
      "type": "function"
    },
    {
      "inputs": [],
      "name": "owner",
      "outputs": [
        {
          "internalType": "address",
          "name": "",
          "type": "address"
        }
      ],
      "stateMutability": "view",
      "type": "function"
    },
    {
      "inputs": [
        {
          "internalType": "uint256",
          "name": "tokenId",
          "type": "uint256"
        }
      ],
      "name": "ownerOf",
      "outputs": [
        {
          "internalType": "address",
          "name": "",
          "type": "address"
        }
      ],
      "stateMutability": "view",
      "type": "function"
    },
    {
      "inputs": [],
      "name": "price",
      "outputs": [
        {
          "internalType": "uint256",
          "name": "",
          "type": "uint256"
        }
      ],
      "stateMutability": "view",
      "type": "function"
    },
    {
      "inputs": [],
      "name": "renounceOwnership",
      "outputs": [],
      "stateMutability": "nonpayable",
      "type": "function"
    },
    {
      "inputs": [
        {
          "internalType": "address",
          "name": "from",
          "type": "address"
        },
        {
          "internalType": "address",
          "name": "to",
          "type": "address"
        },
        {
          "internalType": "uint256",
          "name": "tokenId",
          "type": "uint256"
        }
      ],
      "name": "safeTransferFrom",
      "outputs": [],
      "stateMutability": "nonpayable",
      "type": "function"
    },
    {
      "inputs": [
        {
          "internalType": "address",
          "name": "from",
          "type": "address"
        },
        {
          "internalType": "address",
          "name": "to",
          "type": "address"
        },
        {
          "internalType": "uint256",
          "name": "tokenId",
          "type": "uint256"
        },
        {
          "internalType": "bytes",
          "name": "data",
          "type": "bytes"
        }
      ],
      "name": "safeTransferFrom",
      "outputs": [],
      "stateMutability": "nonpayable",
      "type": "function"
    },
    {
      "inputs": [
        {
          "internalType": "address",
          "name": "operator",
          "type": "address"
        },
        {
          "internalType": "bool",
          "name": "approved",
          "type": "bool"
        }
      ],
      "name": "setApprovalForAll",
      "outputs": [],
      "stateMutability": "nonpayable",
      "type": "function"
    },
    {
      "inputs": [
        {
          "internalType": "bytes4",
          "name": "interfaceId",
          "type": "bytes4"
        }
      ],
      "name": "supportsInterface",
      "outputs": [
        {
          "internalType": "bool",
          "name": "",
          "type": "bool"
        }
      ],
      "stateMutability": "view",
      "type": "function"
    },
    {
      "inputs": [],
      "name": "symbol",
      "outputs": [
        {
          "internalType": "string",
          "name": "",
          "type": "string"
        }
      ],
      "stateMutability": "view",
      "type": "function"
    },
    {
      "inputs": [
        {
          "internalType": "uint256",
          "name": "tokenId",
          "type": "uint256"
        }
      ],
      "name": "tokenURI",
      "outputs": [
        {
          "internalType": "string",
          "name": "",
          "type": "string"
        }
      ],
      "stateMutability": "view",
      "type": "function"
    },
    {
      "inputs": [
        {
          "internalType": "address",
          "name": "from",
          "type": "address"
        },
        {
          "internalType": "address",
          "name": "to",
          "type": "address"
        },
        {
          "internalType": "uint256",
          "name": "tokenId",
          "type": "uint256"
        }
      ],
      "name": "transferFrom",
      "outputs": [],
      "stateMutability": "nonpayable",
      "type": "function"
    },
    {
      "inputs": [
        {
          "internalType": "address",
          "name": "newOwner",
          "type": "address"
        }
      ],
      "name": "transferOwnership",
      "outputs": [],
      "stateMutability": "nonpayable",
      "type": "function"
    },
    {
      "inputs": [
        {
          "internalType": "string",
          "name": "joinCode_",
          "type": "string"
        }
      ],
      "name": "updateJoinCode",
      "outputs": [],
      "stateMutability": "nonpayable",
      "type": "function"
    },
    {
      "inputs": [
        {
          "internalType": "bool",
          "name": "saleStatus_",
          "type": "bool"
        }
      ],
      "name": "updateSaleStatus",
      "outputs": [],
      "stateMutability": "nonpayable",
      "type": "function"
    },
    {
      "inputs": [],
      "name": "withdraw",
      "outputs": [],
      "stateMutability": "payable",
      "type": "function"
    }
  ],
  "bytecode": "0x60806040526001600860006101000a81548160ff0219169083151502179055506040518060400160405280600881526020017f616263643132333400000000000000000000000000000000000000000000000081525060099081620000659190620004fa565b503480156200007357600080fd5b50604051620033583803806200335883398181016040528101906200009991906200064b565b806040518060400160405280600781526020017f44616e79616e67000000000000000000000000000000000000000000000000008152506040518060400160405280600381526020017f44594d00000000000000000000000000000000000000000000000000000000008152508160009081620001179190620004fa565b508060019081620001299190620004fa565b505050600073ffffffffffffffffffffffffffffffffffffffff168173ffffffffffffffffffffffffffffffffffffffff1603620001a15760006040517f1e4fbdf70000000000000000000000000000000000000000000000000000000081526004016200019891906200068e565b60405180910390fd5b620001b281620001ba60201b60201c565b5050620006ab565b6000600660009054906101000a900473ffffffffffffffffffffffffffffffffffffffff16905081600660006101000a81548173ffffffffffffffffffffffffffffffffffffffff021916908373ffffffffffffffffffffffffffffffffffffffff1602179055508173ffffffffffffffffffffffffffffffffffffffff168173ffffffffffffffffffffffffffffffffffffffff167f8be0079c531659141344cd1fd0a4f28419497f9722a3daafe3b4186f6b6457e060405160405180910390a35050565b600081519050919050565b7f4e487b7100000000000000000000000000000000000000000000000000000000600052604160045260246000fd5b7f4e487b7100000000000000000000000000000000000000000000000000000000600052602260045260246000fd5b600060028204905060018216806200030257607f821691505b602082108103620003185762000317620002ba565b5b50919050565b60008190508160005260206000209050919050565b60006020601f8301049050919050565b600082821b905092915050565b600060088302620003827fffffffffffffffffffffffffffffffffffffffffffffffffffffffffffffffff8262000343565b6200038e868362000343565b95508019841693508086168417925050509392505050565b6000819050919050565b6000819050919050565b6000620003db620003d5620003cf84620003a6565b620003b0565b620003a6565b9050919050565b6000819050919050565b620003f783620003ba565b6200040f6200040682620003e2565b84845462000350565b825550505050565b600090565b6200042662000417565b62000433818484620003ec565b505050565b5b818110156200045b576200044f6000826200041c565b60018101905062000439565b5050565b601f821115620004aa5762000474816200031e565b6200047f8462000333565b810160208510156200048f578190505b620004a76200049e8562000333565b83018262000438565b50505b505050565b600082821c905092915050565b6000620004cf60001984600802620004af565b1980831691505092915050565b6000620004ea8383620004bc565b9150826002028217905092915050565b620005058262000280565b67ffffffffffffffff8111156200052157620005206200028b565b5b6200052d8254620002e9565b6200053a8282856200045f565b600060209050601f8311600181146200057257600084156200055d578287015190505b620005698582620004dc565b865550620005d9565b601f19841662000582866200031e565b60005b82811015620005ac5784890151825560018201915060208501945060208101905062000585565b86831015620005cc5784890151620005c8601f891682620004bc565b8355505b6001600288020188555050505b505050505050565b600080fd5b600073ffffffffffffffffffffffffffffffffffffffff82169050919050565b60006200061382620005e6565b9050919050565b620006258162000606565b81146200063157600080fd5b50565b60008151905062000645816200061a565b92915050565b600060208284031215620006645762000663620005e1565b5b6000620006748482850162000634565b91505092915050565b620006888162000606565b82525050565b6000602082019050620006a560008301846200067d565b92915050565b612c9d80620006bb6000396000f3fe6080604052600436106101405760003560e01c806377b84299116100b6578063a22cb4651161006f578063a22cb4651461043b578063b88d4fde14610464578063bff29cee1461048d578063c87b56dd14610497578063e985e9c5146104d4578063f2fde38b1461051157610140565b806377b8429914610329578063890e839f146103665780638da5cb5b14610391578063934feb13146103bc57806395d89b41146103e5578063a035b1fe1461041057610140565b806323b872dd1161010857806323b872dd1461023c5780633ccfd60b1461026557806342842e0e1461026f5780636352211e1461029857806370a08231146102d5578063715018a61461031257610140565b806301ffc9a71461014557806306fdde0314610182578063081812fc146101ad578063095ea7b3146101ea5780630a08894914610213575b600080fd5b34801561015157600080fd5b5061016c60048036038101906101679190611dc2565b61053a565b6040516101799190611e0a565b60405180910390f35b34801561018e57600080fd5b5061019761061c565b6040516101a49190611eb5565b60405180910390f35b3480156101b957600080fd5b506101d460048036038101906101cf9190611f0d565b6106ae565b6040516101e19190611f7b565b60405180910390f35b3480156101f657600080fd5b50610211600480360381019061020c9190611fc2565b6106ca565b005b34801561021f57600080fd5b5061023a6004803603810190610235919061202e565b6106e0565b005b34801561024857600080fd5b50610263600480360381019061025e919061205b565b610705565b005b61026d610807565b005b34801561027b57600080fd5b506102966004803603810190610291919061205b565b610907565b005b3480156102a457600080fd5b506102bf60048036038101906102ba9190611f0d565b610927565b6040516102cc9190611f7b565b60405180910390f35b3480156102e157600080fd5b506102fc60048036038101906102f791906120ae565b610939565b60405161030991906120ea565b60405180910390f35b34801561031e57600080fd5b506103276109f3565b005b34801561033557600080fd5b50610350600480360381019061034b9190611f0d565b610a07565b60405161035d9190611eb5565b60405180910390f35b34801561037257600080fd5b5061037b610b11565b6040516103889190611e0a565b60405180910390f35b34801561039d57600080fd5b506103a6610b28565b6040516103b39190611f7b565b60405180910390f35b3480156103c857600080fd5b506103e360048036038101906103de919061223a565b610b52565b005b3480156103f157600080fd5b506103fa610b6d565b6040516104079190611eb5565b60405180910390f35b34801561041c57600080fd5b50610425610bff565b60405161043291906120ea565b60405180910390f35b34801561044757600080fd5b50610462600480360381019061045d9190612283565b610c0a565b005b34801561047057600080fd5b5061048b60048036038101906104869190612364565b610c20565b005b610495610c3d565b005b3480156104a357600080fd5b506104be60048036038101906104b99190611f0d565b610d02565b6040516104cb9190611eb5565b60405180910390f35b3480156104e057600080fd5b506104fb60048036038101906104f691906123e7565b610d6b565b6040516105089190611e0a565b60405180910390f35b34801561051d57600080fd5b50610538600480360381019061053391906120ae565b610dff565b005b60007f80ac58cd000000000000000000000000000000000000000000000000000000007bffffffffffffffffffffffffffffffffffffffffffffffffffffffff1916827bffffffffffffffffffffffffffffffffffffffffffffffffffffffff1916148061060557507f5b5e139f000000000000000000000000000000000000000000000000000000007bffffffffffffffffffffffffffffffffffffffffffffffffffffffff1916827bffffffffffffffffffffffffffffffffffffffffffffffffffffffff1916145b80610615575061061482610e85565b5b9050919050565b60606000805461062b90612456565b80601f016020809104026020016040519081016040528092919081815260200182805461065790612456565b80156106a45780601f10610679576101008083540402835291602001916106a4565b820191906000526020600020905b81548152906001019060200180831161068757829003601f168201915b5050505050905090565b60006106b982610eef565b506106c382610f77565b9050919050565b6106dc82826106d7610fb4565b610fbc565b5050565b6106e8610fce565b80600860006101000a81548160ff02191690831515021790555050565b600073ffffffffffffffffffffffffffffffffffffffff168273ffffffffffffffffffffffffffffffffffffffff16036107775760006040517f64a0ae9200000000000000000000000000000000000000000000000000000000815260040161076e9190611f7b565b60405180910390fd5b600061078b8383610786610fb4565b611055565b90508373ffffffffffffffffffffffffffffffffffffffff168173ffffffffffffffffffffffffffffffffffffffff1614610801578382826040517f64283d7b0000000000000000000000000000000000000000000000000000000081526004016107f893929190612487565b60405180910390fd5b50505050565b61080f610fce565b600047905060008111610857576040517f08c379a000000000000000000000000000000000000000000000000000000000815260040161084e9061250a565b60405180910390fd5b60003373ffffffffffffffffffffffffffffffffffffffff168260405161087d9061255b565b60006040518083038185875af1925050503d80600081146108ba576040519150601f19603f3d011682016040523d82523d6000602084013e6108bf565b606091505b5050905080610903576040517f08c379a00000000000000000000000000000000000000000000000000000000081526004016108fa906125bc565b60405180910390fd5b5050565b61092283838360405180602001604052806000815250610c20565b505050565b600061093282610eef565b9050919050565b60008073ffffffffffffffffffffffffffffffffffffffff168273ffffffffffffffffffffffffffffffffffffffff16036109ac5760006040517f89c62b640000000000000000000000000000000000000000000000000000000081526004016109a39190611f7b565b60405180910390fd5b600360008373ffffffffffffffffffffffffffffffffffffffff1673ffffffffffffffffffffffffffffffffffffffff168152602001908152602001600020549050919050565b6109fb610fce565b610a05600061126f565b565b6060610a1282610927565b73ffffffffffffffffffffffffffffffffffffffff163373ffffffffffffffffffffffffffffffffffffffff1614610a7f576040517f08c379a0000000000000000000000000000000000000000000000000000000008152600401610a7690612628565b60405180910390fd5b60098054610a8c90612456565b80601f0160208091040260200160405190810160405280929190818152602001828054610ab890612456565b8015610b055780601f10610ada57610100808354040283529160200191610b05565b820191906000526020600020905b815481529060010190602001808311610ae857829003601f168201915b50505050509050919050565b6000600860009054906101000a900460ff16905090565b6000600660009054906101000a900473ffffffffffffffffffffffffffffffffffffffff16905090565b610b5a610fce565b8060099081610b6991906127f4565b5050565b606060018054610b7c90612456565b80601f0160208091040260200160405190810160405280929190818152602001828054610ba890612456565b8015610bf55780601f10610bca57610100808354040283529160200191610bf5565b820191906000526020600020905b815481529060010190602001808311610bd857829003601f168201915b5050505050905090565b662386f26fc1000081565b610c1c610c15610fb4565b8383611335565b5050565b610c2b848484610705565b610c37848484846114a4565b50505050565b600860009054906101000a900460ff16610c8c576040517f08c379a0000000000000000000000000000000000000000000000000000000008152600401610c8390612912565b60405180910390fd5b662386f26fc10000341015610cd6576040517f08c379a0000000000000000000000000000000000000000000000000000000008152600401610ccd906129a4565b60405180910390fd5b60076000815480929190610ce9906129f3565b919050555060006007549050610cff338261165b565b50565b6060610d0d82610eef565b506000610d18611679565b90506000815111610d385760405180602001604052806000815250610d63565b80610d4284611699565b604051602001610d53929190612a77565b6040516020818303038152906040525b915050919050565b6000600560008473ffffffffffffffffffffffffffffffffffffffff1673ffffffffffffffffffffffffffffffffffffffff16815260200190815260200160002060008373ffffffffffffffffffffffffffffffffffffffff1673ffffffffffffffffffffffffffffffffffffffff16815260200190815260200160002060009054906101000a900460ff16905092915050565b610e07610fce565b600073ffffffffffffffffffffffffffffffffffffffff168173ffffffffffffffffffffffffffffffffffffffff1603610e795760006040517f1e4fbdf7000000000000000000000000000000000000000000000000000000008152600401610e709190611f7b565b60405180910390fd5b610e828161126f565b50565b60007f01ffc9a7000000000000000000000000000000000000000000000000000000007bffffffffffffffffffffffffffffffffffffffffffffffffffffffff1916827bffffffffffffffffffffffffffffffffffffffffffffffffffffffff1916149050919050565b600080610efb83611767565b9050600073ffffffffffffffffffffffffffffffffffffffff168173ffffffffffffffffffffffffffffffffffffffff1603610f6e57826040517f7e273289000000000000000000000000000000000000000000000000000000008152600401610f6591906120ea565b60405180910390fd5b80915050919050565b60006004600083815260200190815260200160002060009054906101000a900473ffffffffffffffffffffffffffffffffffffffff169050919050565b600033905090565b610fc983838360016117a4565b505050565b610fd6610fb4565b73ffffffffffffffffffffffffffffffffffffffff16610ff4610b28565b73ffffffffffffffffffffffffffffffffffffffff161461105357611017610fb4565b6040517f118cdaa700000000000000000000000000000000000000000000000000000000815260040161104a9190611f7b565b60405180910390fd5b565b60008061106184611767565b9050600073ffffffffffffffffffffffffffffffffffffffff168373ffffffffffffffffffffffffffffffffffffffff16146110a3576110a2818486611969565b5b600073ffffffffffffffffffffffffffffffffffffffff168173ffffffffffffffffffffffffffffffffffffffff1614611134576110e56000856000806117a4565b6001600360008373ffffffffffffffffffffffffffffffffffffffff1673ffffffffffffffffffffffffffffffffffffffff168152602001908152602001600020600082825403925050819055505b600073ffffffffffffffffffffffffffffffffffffffff168573ffffffffffffffffffffffffffffffffffffffff16146111b7576001600360008773ffffffffffffffffffffffffffffffffffffffff1673ffffffffffffffffffffffffffffffffffffffff168152602001908152602001600020600082825401925050819055505b846002600086815260200190815260200160002060006101000a81548173ffffffffffffffffffffffffffffffffffffffff021916908373ffffffffffffffffffffffffffffffffffffffff160217905550838573ffffffffffffffffffffffffffffffffffffffff168273ffffffffffffffffffffffffffffffffffffffff167fddf252ad1be2c89b69c2b068fc378daa952ba7f163c4a11628f55a4df523b3ef60405160405180910390a4809150509392505050565b6000600660009054906101000a900473ffffffffffffffffffffffffffffffffffffffff16905081600660006101000a81548173ffffffffffffffffffffffffffffffffffffffff021916908373ffffffffffffffffffffffffffffffffffffffff1602179055508173ffffffffffffffffffffffffffffffffffffffff168173ffffffffffffffffffffffffffffffffffffffff167f8be0079c531659141344cd1fd0a4f28419497f9722a3daafe3b4186f6b6457e060405160405180910390a35050565b600073ffffffffffffffffffffffffffffffffffffffff168273ffffffffffffffffffffffffffffffffffffffff16036113a657816040517f5b08ba1800000000000000000000000000000000000000000000000000000000815260040161139d9190611f7b565b60405180910390fd5b80600560008573ffffffffffffffffffffffffffffffffffffffff1673ffffffffffffffffffffffffffffffffffffffff16815260200190815260200160002060008473ffffffffffffffffffffffffffffffffffffffff1673ffffffffffffffffffffffffffffffffffffffff16815260200190815260200160002060006101000a81548160ff0219169083151502179055508173ffffffffffffffffffffffffffffffffffffffff168373ffffffffffffffffffffffffffffffffffffffff167f17307eab39ab6107e8899845ad3d59bd9653f200f220920489ca2b5937696c31836040516114979190611e0a565b60405180910390a3505050565b60008373ffffffffffffffffffffffffffffffffffffffff163b1115611655578273ffffffffffffffffffffffffffffffffffffffff1663150b7a026114e8610fb4565b8685856040518563ffffffff1660e01b815260040161150a9493929190612af0565b6020604051808303816000875af192505050801561154657506040513d601f19601f820116820180604052508101906115439190612b51565b60015b6115ca573d8060008114611576576040519150601f19603f3d011682016040523d82523d6000602084013e61157b565b606091505b5060008151036115c257836040517f64a0ae920000000000000000000000000000000000000000000000000000000081526004016115b99190611f7b565b60405180910390fd5b805181602001fd5b63150b7a0260e01b7bffffffffffffffffffffffffffffffffffffffffffffffffffffffff1916817bffffffffffffffffffffffffffffffffffffffffffffffffffffffff19161461165357836040517f64a0ae9200000000000000000000000000000000000000000000000000000000815260040161164a9190611f7b565b60405180910390fd5b505b50505050565b611675828260405180602001604052806000815250611a2d565b5050565b60606040518060c0016040528060918152602001612bd760919139905090565b6060600060016116a884611a49565b01905060008167ffffffffffffffff8111156116c7576116c661210f565b5b6040519080825280601f01601f1916602001820160405280156116f95781602001600182028036833780820191505090505b509050600082602001820190505b60011561175c578080600190039150507f3031323334353637383961626364656600000000000000000000000000000000600a86061a8153600a85816117505761174f612b7e565b5b04945060008503611707575b819350505050919050565b60006002600083815260200190815260200160002060009054906101000a900473ffffffffffffffffffffffffffffffffffffffff169050919050565b80806117dd5750600073ffffffffffffffffffffffffffffffffffffffff168273ffffffffffffffffffffffffffffffffffffffff1614155b156119115760006117ed84610eef565b9050600073ffffffffffffffffffffffffffffffffffffffff168373ffffffffffffffffffffffffffffffffffffffff161415801561185857508273ffffffffffffffffffffffffffffffffffffffff168173ffffffffffffffffffffffffffffffffffffffff1614155b801561186b57506118698184610d6b565b155b156118ad57826040517fa9fbf51f0000000000000000000000000000000000000000000000000000000081526004016118a49190611f7b565b60405180910390fd5b811561190f57838573ffffffffffffffffffffffffffffffffffffffff168273ffffffffffffffffffffffffffffffffffffffff167f8c5be1e5ebec7d5bd14f71427d1e84f3dd0314c0f7b2291e5b200ac8c7c3b92560405160405180910390a45b505b836004600085815260200190815260200160002060006101000a81548173ffffffffffffffffffffffffffffffffffffffff021916908373ffffffffffffffffffffffffffffffffffffffff16021790555050505050565b611974838383611b9c565b611a2857600073ffffffffffffffffffffffffffffffffffffffff168373ffffffffffffffffffffffffffffffffffffffff16036119e957806040517f7e2732890000000000000000000000000000000000000000000000000000000081526004016119e091906120ea565b60405180910390fd5b81816040517f177e802f000000000000000000000000000000000000000000000000000000008152600401611a1f929190612bad565b60405180910390fd5b505050565b611a378383611c5d565b611a4460008484846114a4565b505050565b600080600090507a184f03e93ff9f4daa797ed6e38ed64bf6a1f0100000000000000008310611aa7577a184f03e93ff9f4daa797ed6e38ed64bf6a1f0100000000000000008381611a9d57611a9c612b7e565b5b0492506040810190505b6d04ee2d6d415b85acef81000000008310611ae4576d04ee2d6d415b85acef81000000008381611ada57611ad9612b7e565b5b0492506020810190505b662386f26fc100008310611b1357662386f26fc100008381611b0957611b08612b7e565b5b0492506010810190505b6305f5e1008310611b3c576305f5e1008381611b3257611b31612b7e565b5b0492506008810190505b6127108310611b61576127108381611b5757611b56612b7e565b5b0492506004810190505b60648310611b845760648381611b7a57611b79612b7e565b5b0492506002810190505b600a8310611b93576001810190505b80915050919050565b60008073ffffffffffffffffffffffffffffffffffffffff168373ffffffffffffffffffffffffffffffffffffffff1614158015611c5457508273ffffffffffffffffffffffffffffffffffffffff168473ffffffffffffffffffffffffffffffffffffffff161480611c155750611c148484610d6b565b5b80611c5357508273ffffffffffffffffffffffffffffffffffffffff16611c3b83610f77565b73ffffffffffffffffffffffffffffffffffffffff16145b5b90509392505050565b600073ffffffffffffffffffffffffffffffffffffffff168273ffffffffffffffffffffffffffffffffffffffff1603611ccf5760006040517f64a0ae92000000000000000000000000000000000000000000000000000000008152600401611cc69190611f7b565b60405180910390fd5b6000611cdd83836000611055565b9050600073ffffffffffffffffffffffffffffffffffffffff168173ffffffffffffffffffffffffffffffffffffffff1614611d515760006040517f73c6ac6e000000000000000000000000000000000000000000000000000000008152600401611d489190611f7b565b60405180910390fd5b505050565b6000604051905090565b600080fd5b600080fd5b60007fffffffff0000000000000000000000000000000000000000000000000000000082169050919050565b611d9f81611d6a565b8114611daa57600080fd5b50565b600081359050611dbc81611d96565b92915050565b600060208284031215611dd857611dd7611d60565b5b6000611de684828501611dad565b91505092915050565b60008115159050919050565b611e0481611def565b82525050565b6000602082019050611e1f6000830184611dfb565b92915050565b600081519050919050565b600082825260208201905092915050565b60005b83811015611e5f578082015181840152602081019050611e44565b60008484015250505050565b6000601f19601f8301169050919050565b6000611e8782611e25565b611e918185611e30565b9350611ea1818560208601611e41565b611eaa81611e6b565b840191505092915050565b60006020820190508181036000830152611ecf8184611e7c565b905092915050565b6000819050919050565b611eea81611ed7565b8114611ef557600080fd5b50565b600081359050611f0781611ee1565b92915050565b600060208284031215611f2357611f22611d60565b5b6000611f3184828501611ef8565b91505092915050565b600073ffffffffffffffffffffffffffffffffffffffff82169050919050565b6000611f6582611f3a565b9050919050565b611f7581611f5a565b82525050565b6000602082019050611f906000830184611f6c565b92915050565b611f9f81611f5a565b8114611faa57600080fd5b50565b600081359050611fbc81611f96565b92915050565b60008060408385031215611fd957611fd8611d60565b5b6000611fe785828601611fad565b9250506020611ff885828601611ef8565b9150509250929050565b61200b81611def565b811461201657600080fd5b50565b60008135905061202881612002565b92915050565b60006020828403121561204457612043611d60565b5b600061205284828501612019565b91505092915050565b60008060006060848603121561207457612073611d60565b5b600061208286828701611fad565b935050602061209386828701611fad565b92505060406120a486828701611ef8565b9150509250925092565b6000602082840312156120c4576120c3611d60565b5b60006120d284828501611fad565b91505092915050565b6120e481611ed7565b82525050565b60006020820190506120ff60008301846120db565b92915050565b600080fd5b600080fd5b7f4e487b7100000000000000000000000000000000000000000000000000000000600052604160045260246000fd5b61214782611e6b565b810181811067ffffffffffffffff821117156121665761216561210f565b5b80604052505050565b6000612179611d56565b9050612185828261213e565b919050565b600067ffffffffffffffff8211156121a5576121a461210f565b5b6121ae82611e6b565b9050602081019050919050565b82818337600083830152505050565b60006121dd6121d88461218a565b61216f565b9050828152602081018484840111156121f9576121f861210a565b5b6122048482856121bb565b509392505050565b600082601f83011261222157612220612105565b5b81356122318482602086016121ca565b91505092915050565b6000602082840312156122505761224f611d60565b5b600082013567ffffffffffffffff81111561226e5761226d611d65565b5b61227a8482850161220c565b91505092915050565b6000806040838503121561229a57612299611d60565b5b60006122a885828601611fad565b92505060206122b985828601612019565b9150509250929050565b600067ffffffffffffffff8211156122de576122dd61210f565b5b6122e782611e6b565b9050602081019050919050565b6000612307612302846122c3565b61216f565b9050828152602081018484840111156123235761232261210a565b5b61232e8482856121bb565b509392505050565b600082601f83011261234b5761234a612105565b5b813561235b8482602086016122f4565b91505092915050565b6000806000806080858703121561237e5761237d611d60565b5b600061238c87828801611fad565b945050602061239d87828801611fad565b93505060406123ae87828801611ef8565b925050606085013567ffffffffffffffff8111156123cf576123ce611d65565b5b6123db87828801612336565b91505092959194509250565b600080604083850312156123fe576123fd611d60565b5b600061240c85828601611fad565b925050602061241d85828601611fad565b9150509250929050565b7f4e487b7100000000000000000000000000000000000000000000000000000000600052602260045260246000fd5b6000600282049050600182168061246e57607f821691505b60208210810361248157612480612427565b5b50919050565b600060608201905061249c6000830186611f6c565b6124a960208301856120db565b6124b66040830184611f6c565b949350505050565b7f4e6f204574686572206c65667420746f20776974686472617700000000000000600082015250565b60006124f4601983611e30565b91506124ff826124be565b602082019050919050565b60006020820190508181036000830152612523816124e7565b9050919050565b600081905092915050565b50565b600061254560008361252a565b915061255082612535565b600082019050919050565b600061256682612538565b9150819050919050565b7f5472616e73666572206661696c65642e00000000000000000000000000000000600082015250565b60006125a6601083611e30565b91506125b182612570565b602082019050919050565b600060208201905081810360008301526125d581612599565b9050919050565b7f44616e79616e673a204e6f7420796f757220746f6b656e000000000000000000600082015250565b6000612612601783611e30565b915061261d826125dc565b602082019050919050565b6000602082019050818103600083015261264181612605565b9050919050565b60008190508160005260206000209050919050565b60006020601f8301049050919050565b600082821b905092915050565b6000600883026126aa7fffffffffffffffffffffffffffffffffffffffffffffffffffffffffffffffff8261266d565b6126b4868361266d565b95508019841693508086168417925050509392505050565b6000819050919050565b60006126f16126ec6126e784611ed7565b6126cc565b611ed7565b9050919050565b6000819050919050565b61270b836126d6565b61271f612717826126f8565b84845461267a565b825550505050565b600090565b612734612727565b61273f818484612702565b505050565b5b818110156127635761275860008261272c565b600181019050612745565b5050565b601f8211156127a85761277981612648565b6127828461265d565b81016020851015612791578190505b6127a561279d8561265d565b830182612744565b50505b505050565b600082821c905092915050565b60006127cb600019846008026127ad565b1980831691505092915050565b60006127e483836127ba565b9150826002028217905092915050565b6127fd82611e25565b67ffffffffffffffff8111156128165761281561210f565b5b6128208254612456565b61282b828285612767565b600060209050601f83116001811461285e576000841561284c578287015190505b61285685826127d8565b8655506128be565b601f19841661286c86612648565b60005b828110156128945784890151825560018201915060208501945060208101905061286f565b868310156128b157848901516128ad601f8916826127ba565b8355505b6001600288020188555050505b505050505050565b7f44616e79616e673a204e6f74206f6e2073616c65206e6f770000000000000000600082015250565b60006128fc601883611e30565b9150612907826128c6565b602082019050919050565b6000602082019050818103600083015261292b816128ef565b9050919050565b7f44616e79616e673a204e6f7420656e6f7567682062616c616e636520746f206260008201527f7579000000000000000000000000000000000000000000000000000000000000602082015250565b600061298e602283611e30565b915061299982612932565b604082019050919050565b600060208201905081810360008301526129bd81612981565b9050919050565b7f4e487b7100000000000000000000000000000000000000000000000000000000600052601160045260246000fd5b60006129fe82611ed7565b91507fffffffffffffffffffffffffffffffffffffffffffffffffffffffffffffffff8203612a3057612a2f6129c4565b5b600182019050919050565b600081905092915050565b6000612a5182611e25565b612a5b8185612a3b565b9350612a6b818560208601611e41565b80840191505092915050565b6000612a838285612a46565b9150612a8f8284612a46565b91508190509392505050565b600081519050919050565b600082825260208201905092915050565b6000612ac282612a9b565b612acc8185612aa6565b9350612adc818560208601611e41565b612ae581611e6b565b840191505092915050565b6000608082019050612b056000830187611f6c565b612b126020830186611f6c565b612b1f60408301856120db565b8181036060830152612b318184612ab7565b905095945050505050565b600081519050612b4b81611d96565b92915050565b600060208284031215612b6757612b66611d60565b5b6000612b7584828501612b3c565b91505092915050565b7f4e487b7100000000000000000000000000000000000000000000000000000000600052601260045260246000fd5b6000604082019050612bc26000830185611f6c565b612bcf60208301846120db565b939250505056fe68747470733a2f2f697066732e696f2f697066732f516d65457845596f66747662595176515768434d6456677561314d415274795162445556565039397355473864433f66696c656e616d653d2545432539442542342545422542302541392545432539412542345f2545422538462538342545422538422542342545432538322542432545422542342538392e6a7067a2646970667358221220013a8cff41127f7095cfcbc80435c43bf25b01113a1a73c1ddafddfb9e1afa1164736f6c63430008180033",
  "linkReferences": {},
  "deployedLinkReferences": {}
}