{
  "_format": "hh-sol-artifact-1",
  "contractName": "Danyang",
  "sourceName": "contracts/Danyang.sol",
  "abi": [
    {
      "inputs": [
        {
          "internalType": "address",
          "name": "initialOwner",
          "type": "address"
        }
      ],
      "stateMutability": "nonpayable",
      "type": "constructor"
    },
    {
      "inputs": [],
      "name": "CheckpointUnorderedInsertion",
      "type": "error"
    },
    {
      "inputs": [],
      "name": "ECDSAInvalidSignature",
      "type": "error"
    },
    {
      "inputs": [
        {
          "internalType": "uint256",
          "name": "length",
          "type": "uint256"
        }
      ],
      "name": "ECDSAInvalidSignatureLength",
      "type": "error"
    },
    {
      "inputs": [
        {
          "internalType": "bytes32",
          "name": "s",
          "type": "bytes32"
        }
      ],
      "name": "ECDSAInvalidSignatureS",
      "type": "error"
    },
    {
      "inputs": [
        {
          "internalType": "uint256",
          "name": "timepoint",
          "type": "uint256"
        },
        {
          "internalType": "uint48",
          "name": "clock",
          "type": "uint48"
        }
      ],
      "name": "ERC5805FutureLookup",
      "type": "error"
    },
    {
      "inputs": [],
      "name": "ERC6372InconsistentClock",
      "type": "error"
    },
    {
      "inputs": [
        {
          "internalType": "address",
          "name": "sender",
          "type": "address"
        },
        {
          "internalType": "uint256",
          "name": "tokenId",
          "type": "uint256"
        },
        {
          "internalType": "address",
          "name": "owner",
          "type": "address"
        }
      ],
      "name": "ERC721IncorrectOwner",
      "type": "error"
    },
    {
      "inputs": [
        {
          "internalType": "address",
          "name": "operator",
          "type": "address"
        },
        {
          "internalType": "uint256",
          "name": "tokenId",
          "type": "uint256"
        }
      ],
      "name": "ERC721InsufficientApproval",
      "type": "error"
    },
    {
      "inputs": [
        {
          "internalType": "address",
          "name": "approver",
          "type": "address"
        }
      ],
      "name": "ERC721InvalidApprover",
      "type": "error"
    },
    {
      "inputs": [
        {
          "internalType": "address",
          "name": "operator",
          "type": "address"
        }
      ],
      "name": "ERC721InvalidOperator",
      "type": "error"
    },
    {
      "inputs": [
        {
          "internalType": "address",
          "name": "owner",
          "type": "address"
        }
      ],
      "name": "ERC721InvalidOwner",
      "type": "error"
    },
    {
      "inputs": [
        {
          "internalType": "address",
          "name": "receiver",
          "type": "address"
        }
      ],
      "name": "ERC721InvalidReceiver",
      "type": "error"
    },
    {
      "inputs": [
        {
          "internalType": "address",
          "name": "sender",
          "type": "address"
        }
      ],
      "name": "ERC721InvalidSender",
      "type": "error"
    },
    {
      "inputs": [
        {
          "internalType": "uint256",
          "name": "tokenId",
          "type": "uint256"
        }
      ],
      "name": "ERC721NonexistentToken",
      "type": "error"
    },
    {
      "inputs": [
        {
          "internalType": "address",
          "name": "account",
          "type": "address"
        },
        {
          "internalType": "uint256",
          "name": "currentNonce",
          "type": "uint256"
        }
      ],
      "name": "InvalidAccountNonce",
      "type": "error"
    },
    {
      "inputs": [],
      "name": "InvalidShortString",
      "type": "error"
    },
    {
      "inputs": [
        {
          "internalType": "address",
          "name": "owner",
          "type": "address"
        }
      ],
      "name": "OwnableInvalidOwner",
      "type": "error"
    },
    {
      "inputs": [
        {
          "internalType": "address",
          "name": "account",
          "type": "address"
        }
      ],
      "name": "OwnableUnauthorizedAccount",
      "type": "error"
    },
    {
      "inputs": [],
      "name": "ReentrancyGuardReentrantCall",
      "type": "error"
    },
    {
      "inputs": [
        {
          "internalType": "uint8",
          "name": "bits",
          "type": "uint8"
        },
        {
          "internalType": "uint256",
          "name": "value",
          "type": "uint256"
        }
      ],
      "name": "SafeCastOverflowedUintDowncast",
      "type": "error"
    },
    {
      "inputs": [
        {
          "internalType": "string",
          "name": "str",
          "type": "string"
        }
      ],
      "name": "StringTooLong",
      "type": "error"
    },
    {
      "inputs": [
        {
          "internalType": "uint256",
          "name": "expiry",
          "type": "uint256"
        }
      ],
      "name": "VotesExpiredSignature",
      "type": "error"
    },
    {
      "anonymous": false,
      "inputs": [
        {
          "indexed": true,
          "internalType": "address",
          "name": "owner",
          "type": "address"
        },
        {
          "indexed": true,
          "internalType": "address",
          "name": "approved",
          "type": "address"
        },
        {
          "indexed": true,
          "internalType": "uint256",
          "name": "tokenId",
          "type": "uint256"
        }
      ],
      "name": "Approval",
      "type": "event"
    },
    {
      "anonymous": false,
      "inputs": [
        {
          "indexed": true,
          "internalType": "address",
          "name": "owner",
          "type": "address"
        },
        {
          "indexed": true,
          "internalType": "address",
          "name": "operator",
          "type": "address"
        },
        {
          "indexed": false,
          "internalType": "bool",
          "name": "approved",
          "type": "bool"
        }
      ],
      "name": "ApprovalForAll",
      "type": "event"
    },
    {
      "anonymous": false,
      "inputs": [
        {
          "indexed": true,
          "internalType": "address",
          "name": "delegator",
          "type": "address"
        },
        {
          "indexed": true,
          "internalType": "address",
          "name": "fromDelegate",
          "type": "address"
        },
        {
          "indexed": true,
          "internalType": "address",
          "name": "toDelegate",
          "type": "address"
        }
      ],
      "name": "DelegateChanged",
      "type": "event"
    },
    {
      "anonymous": false,
      "inputs": [
        {
          "indexed": true,
          "internalType": "address",
          "name": "delegate",
          "type": "address"
        },
        {
          "indexed": false,
          "internalType": "uint256",
          "name": "previousVotes",
          "type": "uint256"
        },
        {
          "indexed": false,
          "internalType": "uint256",
          "name": "newVotes",
          "type": "uint256"
        }
      ],
      "name": "DelegateVotesChanged",
      "type": "event"
    },
    {
      "anonymous": false,
      "inputs": [],
      "name": "EIP712DomainChanged",
      "type": "event"
    },
    {
      "anonymous": false,
      "inputs": [
        {
          "indexed": true,
          "internalType": "address",
          "name": "previousOwner",
          "type": "address"
        },
        {
          "indexed": true,
          "internalType": "address",
          "name": "newOwner",
          "type": "address"
        }
      ],
      "name": "OwnershipTransferred",
      "type": "event"
    },
    {
      "anonymous": false,
      "inputs": [
        {
          "indexed": true,
          "internalType": "address",
          "name": "from",
          "type": "address"
        },
        {
          "indexed": true,
          "internalType": "address",
          "name": "to",
          "type": "address"
        },
        {
          "indexed": true,
          "internalType": "uint256",
          "name": "tokenId",
          "type": "uint256"
        }
      ],
      "name": "Transfer",
      "type": "event"
    },
    {
      "inputs": [],
      "name": "CLOCK_MODE",
      "outputs": [
        {
          "internalType": "string",
          "name": "",
          "type": "string"
        }
      ],
      "stateMutability": "view",
      "type": "function"
    },
    {
      "inputs": [
        {
          "internalType": "address",
          "name": "to",
          "type": "address"
        },
        {
          "internalType": "uint256",
          "name": "tokenId",
          "type": "uint256"
        }
      ],
      "name": "approve",
      "outputs": [],
      "stateMutability": "nonpayable",
      "type": "function"
    },
    {
      "inputs": [
        {
          "internalType": "address",
          "name": "owner",
          "type": "address"
        }
      ],
      "name": "balanceOf",
      "outputs": [
        {
          "internalType": "uint256",
          "name": "",
          "type": "uint256"
        }
      ],
      "stateMutability": "view",
      "type": "function"
    },
    {
      "inputs": [],
      "name": "buy",
      "outputs": [],
      "stateMutability": "payable",
      "type": "function"
    },
    {
      "inputs": [],
      "name": "clock",
      "outputs": [
        {
          "internalType": "uint48",
          "name": "",
          "type": "uint48"
        }
      ],
      "stateMutability": "view",
      "type": "function"
    },
    {
      "inputs": [
        {
          "internalType": "address",
          "name": "delegatee",
          "type": "address"
        }
      ],
      "name": "delegate",
      "outputs": [],
      "stateMutability": "nonpayable",
      "type": "function"
    },
    {
      "inputs": [
        {
          "internalType": "address",
          "name": "delegatee",
          "type": "address"
        },
        {
          "internalType": "uint256",
          "name": "nonce",
          "type": "uint256"
        },
        {
          "internalType": "uint256",
          "name": "expiry",
          "type": "uint256"
        },
        {
          "internalType": "uint8",
          "name": "v",
          "type": "uint8"
        },
        {
          "internalType": "bytes32",
          "name": "r",
          "type": "bytes32"
        },
        {
          "internalType": "bytes32",
          "name": "s",
          "type": "bytes32"
        }
      ],
      "name": "delegateBySig",
      "outputs": [],
      "stateMutability": "nonpayable",
      "type": "function"
    },
    {
      "inputs": [
        {
          "internalType": "address",
          "name": "account",
          "type": "address"
        }
      ],
      "name": "delegates",
      "outputs": [
        {
          "internalType": "address",
          "name": "",
          "type": "address"
        }
      ],
      "stateMutability": "view",
      "type": "function"
    },
    {
      "inputs": [],
      "name": "eip712Domain",
      "outputs": [
        {
          "internalType": "bytes1",
          "name": "fields",
          "type": "bytes1"
        },
        {
          "internalType": "string",
          "name": "name",
          "type": "string"
        },
        {
          "internalType": "string",
          "name": "version",
          "type": "string"
        },
        {
          "internalType": "uint256",
          "name": "chainId",
          "type": "uint256"
        },
        {
          "internalType": "address",
          "name": "verifyingContract",
          "type": "address"
        },
        {
          "internalType": "bytes32",
          "name": "salt",
          "type": "bytes32"
        },
        {
          "internalType": "uint256[]",
          "name": "extensions",
          "type": "uint256[]"
        }
      ],
      "stateMutability": "view",
      "type": "function"
    },
    {
      "inputs": [
        {
          "internalType": "uint256",
          "name": "tokenId",
          "type": "uint256"
        }
      ],
      "name": "getApproved",
      "outputs": [
        {
          "internalType": "address",
          "name": "",
          "type": "address"
        }
      ],
      "stateMutability": "view",
      "type": "function"
    },
    {
      "inputs": [
        {
          "internalType": "uint256",
          "name": "tokenId",
          "type": "uint256"
        }
      ],
      "name": "getJoinCode",
      "outputs": [
        {
          "internalType": "string",
          "name": "",
          "type": "string"
        }
      ],
      "stateMutability": "view",
      "type": "function"
    },
    {
      "inputs": [
        {
          "internalType": "uint256",
          "name": "timepoint",
          "type": "uint256"
        }
      ],
      "name": "getPastTotalSupply",
      "outputs": [
        {
          "internalType": "uint256",
          "name": "",
          "type": "uint256"
        }
      ],
      "stateMutability": "view",
      "type": "function"
    },
    {
      "inputs": [
        {
          "internalType": "address",
          "name": "account",
          "type": "address"
        },
        {
          "internalType": "uint256",
          "name": "timepoint",
          "type": "uint256"
        }
      ],
      "name": "getPastVotes",
      "outputs": [
        {
          "internalType": "uint256",
          "name": "",
          "type": "uint256"
        }
      ],
      "stateMutability": "view",
      "type": "function"
    },
    {
      "inputs": [
        {
          "internalType": "address",
          "name": "account",
          "type": "address"
        }
      ],
      "name": "getVotes",
      "outputs": [
        {
          "internalType": "uint256",
          "name": "",
          "type": "uint256"
        }
      ],
      "stateMutability": "view",
      "type": "function"
    },
    {
      "inputs": [
        {
          "internalType": "address",
          "name": "owner",
          "type": "address"
        },
        {
          "internalType": "address",
          "name": "operator",
          "type": "address"
        }
      ],
      "name": "isApprovedForAll",
      "outputs": [
        {
          "internalType": "bool",
          "name": "",
          "type": "bool"
        }
      ],
      "stateMutability": "view",
      "type": "function"
    },
    {
      "inputs": [],
      "name": "name",
      "outputs": [
        {
          "internalType": "string",
          "name": "",
          "type": "string"
        }
      ],
      "stateMutability": "view",
      "type": "function"
    },
    {
      "inputs": [
        {
          "internalType": "address",
          "name": "owner",
          "type": "address"
        }
      ],
      "name": "nonces",
      "outputs": [
        {
          "internalType": "uint256",
          "name": "",
          "type": "uint256"
        }
      ],
      "stateMutability": "view",
      "type": "function"
    },
    {
      "inputs": [],
      "name": "owner",
      "outputs": [
        {
          "internalType": "address",
          "name": "",
          "type": "address"
        }
      ],
      "stateMutability": "view",
      "type": "function"
    },
    {
      "inputs": [
        {
          "internalType": "uint256",
          "name": "tokenId",
          "type": "uint256"
        }
      ],
      "name": "ownerOf",
      "outputs": [
        {
          "internalType": "address",
          "name": "",
          "type": "address"
        }
      ],
      "stateMutability": "view",
      "type": "function"
    },
    {
      "inputs": [],
      "name": "price",
      "outputs": [
        {
          "internalType": "uint256",
          "name": "",
          "type": "uint256"
        }
      ],
      "stateMutability": "view",
      "type": "function"
    },
    {
      "inputs": [],
      "name": "renounceOwnership",
      "outputs": [],
      "stateMutability": "nonpayable",
      "type": "function"
    },
    {
      "inputs": [
        {
          "internalType": "address",
          "name": "from",
          "type": "address"
        },
        {
          "internalType": "address",
          "name": "to",
          "type": "address"
        },
        {
          "internalType": "uint256",
          "name": "tokenId",
          "type": "uint256"
        }
      ],
      "name": "safeTransferFrom",
      "outputs": [],
      "stateMutability": "nonpayable",
      "type": "function"
    },
    {
      "inputs": [
        {
          "internalType": "address",
          "name": "from",
          "type": "address"
        },
        {
          "internalType": "address",
          "name": "to",
          "type": "address"
        },
        {
          "internalType": "uint256",
          "name": "tokenId",
          "type": "uint256"
        },
        {
          "internalType": "bytes",
          "name": "data",
          "type": "bytes"
        }
      ],
      "name": "safeTransferFrom",
      "outputs": [],
      "stateMutability": "nonpayable",
      "type": "function"
    },
    {
      "inputs": [],
      "name": "saleStatus",
      "outputs": [
        {
          "internalType": "bool",
          "name": "",
          "type": "bool"
        }
      ],
      "stateMutability": "view",
      "type": "function"
    },
    {
      "inputs": [
        {
          "internalType": "address",
          "name": "operator",
          "type": "address"
        },
        {
          "internalType": "bool",
          "name": "approved",
          "type": "bool"
        }
      ],
      "name": "setApprovalForAll",
      "outputs": [],
      "stateMutability": "nonpayable",
      "type": "function"
    },
    {
      "inputs": [
        {
          "internalType": "string",
          "name": "baseURI_",
          "type": "string"
        }
      ],
      "name": "setBaseURI",
      "outputs": [],
      "stateMutability": "nonpayable",
      "type": "function"
    },
    {
      "inputs": [
        {
          "internalType": "string",
          "name": "joinCode_",
          "type": "string"
        }
      ],
      "name": "setJoinCode",
      "outputs": [],
      "stateMutability": "nonpayable",
      "type": "function"
    },
    {
      "inputs": [
        {
          "internalType": "bytes4",
          "name": "interfaceId",
          "type": "bytes4"
        }
      ],
      "name": "supportsInterface",
      "outputs": [
        {
          "internalType": "bool",
          "name": "",
          "type": "bool"
        }
      ],
      "stateMutability": "view",
      "type": "function"
    },
    {
      "inputs": [],
      "name": "symbol",
      "outputs": [
        {
          "internalType": "string",
          "name": "",
          "type": "string"
        }
      ],
      "stateMutability": "view",
      "type": "function"
    },
    {
      "inputs": [
        {
          "internalType": "uint256",
          "name": "tokenId",
          "type": "uint256"
        }
      ],
      "name": "tokenURI",
      "outputs": [
        {
          "internalType": "string",
          "name": "",
          "type": "string"
        }
      ],
      "stateMutability": "view",
      "type": "function"
    },
    {
      "inputs": [
        {
          "internalType": "address",
          "name": "from",
          "type": "address"
        },
        {
          "internalType": "address",
          "name": "to",
          "type": "address"
        },
        {
          "internalType": "uint256",
          "name": "tokenId",
          "type": "uint256"
        }
      ],
      "name": "transferFrom",
      "outputs": [],
      "stateMutability": "nonpayable",
      "type": "function"
    },
    {
      "inputs": [
        {
          "internalType": "address",
          "name": "newOwner",
          "type": "address"
        }
      ],
      "name": "transferOwnership",
      "outputs": [],
      "stateMutability": "nonpayable",
      "type": "function"
    },
    {
      "inputs": [
        {
          "internalType": "bool",
          "name": "_saleStatus",
          "type": "bool"
        }
      ],
      "name": "updateSaleStatus",
      "outputs": [],
      "stateMutability": "nonpayable",
      "type": "function"
    },
    {
      "inputs": [],
      "name": "withdraw",
      "outputs": [],
      "stateMutability": "payable",
      "type": "function"
    }
  ],
  "bytecode": "0x610160604052600d805460ff60a01b1916600160a01b1790553480156200002557600080fd5b5060405162003330380380620033308339810160408190526200004891620002b0565b806040518060400160405280600781526020016644616e79616e6760c81b815250604051806040016040528060018152602001603160f81b8152506040518060400160405280600781526020016644616e79616e6760c81b815250604051806040016040528060048152602001634553445960e01b8152508160009081620000d1919062000389565b506001620000e0828262000389565b50620000f291508390506006620001e2565b6101205262000103816007620001e2565b61014052815160208084019190912060e052815190820120610100524660a0526200019160e05161010051604080517f8b73c3c69bb8fe3d512ecc4cf759cc79239f7b179b0ffacaa9a75d522b39400f60208201529081019290925260608201524660808201523060a082015260009060c00160405160208183030381529060405280519060200120905090565b60805250503060c0526001600c556001600160a01b038116620001cf57604051631e4fbdf760e01b8152600060048201526024015b60405180910390fd5b620001da816200021b565b5050620004cb565b60006020835110156200020257620001fa836200026d565b905062000215565b816200020f848262000389565b5060ff90505b92915050565b600d80546001600160a01b038381166001600160a01b0319831681179093556040519116919082907f8be0079c531659141344cd1fd0a4f28419497f9722a3daafe3b4186f6b6457e090600090a35050565b600080829050601f815111156200029b578260405163305a27a960e01b8152600401620001c6919062000455565b8051620002a882620004a6565b179392505050565b600060208284031215620002c357600080fd5b81516001600160a01b0381168114620002db57600080fd5b9392505050565b634e487b7160e01b600052604160045260246000fd5b600181811c908216806200030d57607f821691505b6020821081036200032e57634e487b7160e01b600052602260045260246000fd5b50919050565b601f82111562000384576000816000526020600020601f850160051c810160208610156200035f5750805b601f850160051c820191505b8181101562000380578281556001016200036b565b5050505b505050565b81516001600160401b03811115620003a557620003a5620002e2565b620003bd81620003b68454620002f8565b8462000334565b602080601f831160018114620003f55760008415620003dc5750858301515b600019600386901b1c1916600185901b17855562000380565b600085815260208120601f198616915b82811015620004265788860151825594840194600190910190840162000405565b5085821015620004455787850151600019600388901b60f8161c191681555b5050505050600190811b01905550565b60006020808352835180602085015260005b81811015620004855785810183015185820160400152820162000467565b506000604082860101526040601f19601f8301168501019250505092915050565b805160208083015191908110156200032e5760001960209190910360031b1b16919050565b60805160a05160c05160e051610100516101205161014051612e0a6200052660003960006113a20152600061137501526000611d5401526000611d2c01526000611c8701526000611cb101526000611cdb0152612e0a6000f3fe6080604052600436106102195760003560e01c806377b842991161011d578063a035b1fe116100b0578063c3cda5201161007f578063e985e9c511610064578063e985e9c514610628578063f2fde38b14610671578063f9020e331461069157600080fd5b8063c3cda520146105e8578063c87b56dd1461060857600080fd5b8063a035b1fe14610585578063a22cb465146105a0578063a6f2ae3a146105c0578063b88d4fde146105c857600080fd5b80638e539e8c116100ec5780638e539e8c1461050457806391ddadf41461052457806395d89b41146105505780639ab24eb01461056557600080fd5b806377b84299146104685780637ecebe001461048857806384b0196e146104be5780638da5cb5b146104e657600080fd5b806342842e0e116101b0578063587cde1e1161017f5780636352211e116101645780636352211e1461041357806370a0823114610433578063715018a61461045357600080fd5b8063587cde1e146103ba5780635c19a95c146103f357600080fd5b806342842e0e14610345578063466e89ee146103655780634bf5d7e91461038557806355f804b31461039a57600080fd5b80630a088949116101ec5780630a088949146102cf57806323b872dd146102ef5780633a46b1a81461030f5780633ccfd60b1461033d57600080fd5b806301ffc9a71461021e57806306fdde0314610253578063081812fc14610275578063095ea7b3146102ad575b600080fd5b34801561022a57600080fd5b5061023e6102393660046126e1565b6106b2565b60405190151581526020015b60405180910390f35b34801561025f57600080fd5b5061026861074f565b60405161024a919061274e565b34801561028157600080fd5b50610295610290366004612761565b6107e1565b6040516001600160a01b03909116815260200161024a565b3480156102b957600080fd5b506102cd6102c8366004612796565b61080a565b005b3480156102db57600080fd5b506102cd6102ea3660046127d0565b610819565b3480156102fb57600080fd5b506102cd61030a3660046127eb565b61085a565b34801561031b57600080fd5b5061032f61032a366004612796565b610903565b60405190815260200161024a565b6102cd610984565b34801561035157600080fd5b506102cd6103603660046127eb565b610a88565b34801561037157600080fd5b506102cd610380366004612827565b610aa8565b34801561039157600080fd5b50610268610abd565b3480156103a657600080fd5b506102cd6103b5366004612827565b610b4e565b3480156103c657600080fd5b506102956103d5366004612899565b6001600160a01b039081166000908152600960205260409020541690565b3480156103ff57600080fd5b506102cd61040e366004612899565b610b63565b34801561041f57600080fd5b5061029561042e366004612761565b610b6e565b34801561043f57600080fd5b5061032f61044e366004612899565b610b79565b34801561045f57600080fd5b506102cd610bda565b34801561047457600080fd5b50610268610483366004612761565b610bec565b34801561049457600080fd5b5061032f6104a3366004612899565b6001600160a01b031660009081526008602052604090205490565b3480156104ca57600080fd5b506104d3610ce9565b60405161024a97969594939291906128b4565b3480156104f257600080fd5b50600d546001600160a01b0316610295565b34801561051057600080fd5b5061032f61051f366004612761565b610d4b565b34801561053057600080fd5b50610539610db5565b60405165ffffffffffff909116815260200161024a565b34801561055c57600080fd5b50610268610dc4565b34801561057157600080fd5b5061032f610580366004612899565b610dd3565b34801561059157600080fd5b5061032f662386f26fc1000081565b3480156105ac57600080fd5b506102cd6105bb366004612969565b610e03565b6102cd610e0e565b3480156105d457600080fd5b506102cd6105e33660046129b2565b610f08565b3480156105f457600080fd5b506102cd610603366004612a8e565b610f1f565b34801561061457600080fd5b50610268610623366004612761565b610ff5565b34801561063457600080fd5b5061023e610643366004612aee565b6001600160a01b03918216600090815260056020908152604080832093909416825291909152205460ff1690565b34801561067d57600080fd5b506102cd61068c366004612899565b61105d565b34801561069d57600080fd5b50600d5461023e90600160a01b900460ff1681565b60006001600160e01b031982167f80ac58cd00000000000000000000000000000000000000000000000000000000148061071557506001600160e01b031982167f5b5e139f00000000000000000000000000000000000000000000000000000000145b8061074957507f01ffc9a7000000000000000000000000000000000000000000000000000000006001600160e01b03198316145b92915050565b60606000805461075e90612b18565b80601f016020809104026020016040519081016040528092919081815260200182805461078a90612b18565b80156107d75780601f106107ac576101008083540402835291602001916107d7565b820191906000526020600020905b8154815290600101906020018083116107ba57829003601f168201915b5050505050905090565b60006107ec826110b1565b506000828152600460205260409020546001600160a01b0316610749565b6108158282336110ea565b5050565b6108216110f7565b600d8054911515600160a01b027fffffffffffffffffffffff00ffffffffffffffffffffffffffffffffffffffff909216919091179055565b6001600160a01b03821661088957604051633250574960e11b8152600060048201526024015b60405180910390fd5b600061089683833361113d565b9050836001600160a01b0316816001600160a01b0316146108fd576040517f64283d7b0000000000000000000000000000000000000000000000000000000081526001600160a01b0380861660048301526024820184905282166044820152606401610880565b50505050565b60008061090e610db5565b90508065ffffffffffff16831061094957604051637669fc0f60e11b81526004810184905265ffffffffffff82166024820152604401610880565b61097361095584611152565b6001600160a01b0386166000908152600a6020526040902090611189565b6001600160d01b0316949350505050565b61098c6110f7565b610994611242565b47806109e25760405162461bcd60e51b815260206004820152601960248201527f4e6f204574686572206c65667420746f207769746864726177000000000000006044820152606401610880565b604051600090339083908381818185875af1925050503d8060008114610a24576040519150601f19603f3d011682016040523d82523d6000602084013e610a29565b606091505b5050905080610a7a5760405162461bcd60e51b815260206004820152601060248201527f5472616e73666572206661696c65642e000000000000000000000000000000006044820152606401610880565b5050610a866001600c55565b565b610aa383838360405180602001604052806000815250610f08565b505050565b610ab06110f7565b6010610aa3828483612ba2565b6060610ac7611285565b65ffffffffffff16610ad7610db5565b65ffffffffffff1614610b16576040517f6ff0714000000000000000000000000000000000000000000000000000000000815260040160405180910390fd5b5060408051808201909152601d81527f6d6f64653d626c6f636b6e756d6265722666726f6d3d64656661756c74000000602082015290565b610b566110f7565b600f610aa3828483612ba2565b336108158183611290565b6000610749826110b1565b60006001600160a01b038216610bbe576040517f89c62b6400000000000000000000000000000000000000000000000000000000815260006004820152602401610880565b506001600160a01b031660009081526003602052604090205490565b610be26110f7565b610a86600061130f565b6060610bf782610b6e565b6001600160a01b0316336001600160a01b031614610c575760405162461bcd60e51b815260206004820152601760248201527f44616e79616e673a204e6f7420796f757220746f6b656e0000000000000000006044820152606401610880565b60108054610c6490612b18565b80601f0160208091040260200160405190810160405280929190818152602001828054610c9090612b18565b8015610cdd5780601f10610cb257610100808354040283529160200191610cdd565b820191906000526020600020905b815481529060010190602001808311610cc057829003601f168201915b50505050509050919050565b600060608060008060006060610cfd61136e565b610d0561139b565b604080516000808252602082019092527f0f000000000000000000000000000000000000000000000000000000000000009b939a50919850469750309650945092509050565b600080610d56610db5565b90508065ffffffffffff168310610d9157604051637669fc0f60e11b81526004810184905265ffffffffffff82166024820152604401610880565b610da5610d9d84611152565b600b90611189565b6001600160d01b03169392505050565b6000610dbf611285565b905090565b60606001805461075e90612b18565b6001600160a01b0381166000908152600a60205260408120610df4906113c8565b6001600160d01b031692915050565b610815338383611404565b600d54600160a01b900460ff16610e675760405162461bcd60e51b815260206004820152601860248201527f44616e79616e673a204e6f74206f6e2073616c65206e6f7700000000000000006044820152606401610880565b662386f26fc10000341015610ee45760405162461bcd60e51b815260206004820152602260248201527f44616e79616e673a204e6f7420656e6f7567682062616c616e636520746f206260448201527f75790000000000000000000000000000000000000000000000000000000000006064820152608401610880565b600e805460009182610ef583612c78565b909155509050610f0533826114bc565b50565b610f1384848461085a565b6108fd848484846114d6565b83421115610f5c576040517f4683af0e00000000000000000000000000000000000000000000000000000000815260048101859052602401610880565b604080517fe48329057bfd03d55e49b547132e39cffd9c1820ad7b9d4c5307691425d15adf60208201526001600160a01b038816918101919091526060810186905260808101859052600090610fd690610fce9060a001604051602081830303815290604052805190602001206115ff565b858585611647565b9050610fe28187611675565b610fec8188611290565b50505050505050565b6060611000826110b1565b50600061100b6116e1565b9050600081511161102b5760405180602001604052806000815250611056565b80611035846116f0565b604051602001611046929190612c91565b6040516020818303038152906040525b9392505050565b6110656110f7565b6001600160a01b0381166110a8576040517f1e4fbdf700000000000000000000000000000000000000000000000000000000815260006004820152602401610880565b610f058161130f565b6000818152600260205260408120546001600160a01b03168061074957604051637e27328960e01b815260048101849052602401610880565b610aa38383836001611790565b600d546001600160a01b03163314610a86576040517f118cdaa7000000000000000000000000000000000000000000000000000000008152336004820152602401610880565b600061114a8484846118db565b949350505050565b600065ffffffffffff821115611185576040516306dfcc6560e41b81526030600482015260248101839052604401610880565b5090565b8154600090818160058111156111e85760006111a4846118f7565b6111ae9085612cc0565b60008881526020902090915081015465ffffffffffff90811690871610156111d8578091506111e6565b6111e3816001612cd3565b92505b505b60006111f6878785856119df565b905080156112345761121b8761120d600184612cc0565b600091825260209091200190565b54660100000000000090046001600160d01b0316611237565b60005b979650505050505050565b6002600c540361127e576040517f3ee5aeb500000000000000000000000000000000000000000000000000000000815260040160405180910390fd5b6002600c55565b6000610dbf43611152565b6001600160a01b03828116600081815260096020526040808220805486861673ffffffffffffffffffffffffffffffffffffffff19821681179092559151919094169392849290917f3134e8a2e6d97e929a7e54011ea5485d7d196dd5f0ba4d4ef95803e8e3fc257f9190a4610aa3818361130a86611a41565b611a4c565b600d80546001600160a01b0383811673ffffffffffffffffffffffffffffffffffffffff19831681179093556040519116919082907f8be0079c531659141344cd1fd0a4f28419497f9722a3daafe3b4186f6b6457e090600090a35050565b6060610dbf7f00000000000000000000000000000000000000000000000000000000000000006006611bb8565b6060610dbf7f00000000000000000000000000000000000000000000000000000000000000006007611bb8565b805460009080156113fb576113e28361120d600184612cc0565b54660100000000000090046001600160d01b0316611056565b60009392505050565b6001600160a01b03821661144f576040517f5b08ba180000000000000000000000000000000000000000000000000000000081526001600160a01b0383166004820152602401610880565b6001600160a01b03838116600081815260056020908152604080832094871680845294825291829020805460ff191686151590811790915591519182527f17307eab39ab6107e8899845ad3d59bd9653f200f220920489ca2b5937696c31910160405180910390a3505050565b610815828260405180602001604052806000815250611c63565b6001600160a01b0383163b156108fd57604051630a85bd0160e11b81526001600160a01b0384169063150b7a0290611518903390889087908790600401612ce6565b6020604051808303816000875af1925050508015611553575060408051601f3d908101601f1916820190925261155091810190612d22565b60015b6115bc573d808015611581576040519150601f19603f3d011682016040523d82523d6000602084013e611586565b606091505b5080516000036115b457604051633250574960e11b81526001600160a01b0385166004820152602401610880565b805181602001fd5b6001600160e01b03198116630a85bd0160e11b146115f857604051633250574960e11b81526001600160a01b0385166004820152602401610880565b5050505050565b600061074961160c611c7a565b836040517f19010000000000000000000000000000000000000000000000000000000000008152600281019290925260228201526042902090565b60008060008061165988888888611da5565b9250925092506116698282611e74565b50909695505050505050565b6001600160a01b0382166000908152600860205260409020805460018101909155818114610aa3576040517f752d88c00000000000000000000000000000000000000000000000000000000081526001600160a01b038416600482015260248101829052604401610880565b6060600f805461075e90612b18565b606060006116fd83611f78565b600101905060008167ffffffffffffffff81111561171d5761171d61299c565b6040519080825280601f01601f191660200182016040528015611747576020820181803683370190505b5090508181016020015b600019017f3031323334353637383961626364656600000000000000000000000000000000600a86061a8153600a850494508461175157509392505050565b80806117a457506001600160a01b03821615155b1561189e5760006117b4846110b1565b90506001600160a01b038316158015906117e05750826001600160a01b0316816001600160a01b031614155b801561181257506001600160a01b0380821660009081526005602090815260408083209387168352929052205460ff16155b15611854576040517fa9fbf51f0000000000000000000000000000000000000000000000000000000081526001600160a01b0384166004820152602401610880565b811561189c5783856001600160a01b0316826001600160a01b03167f8c5be1e5ebec7d5bd14f71427d1e84f3dd0314c0f7b2291e5b200ac8c7c3b92560405160405180910390a45b505b50506000908152600460205260409020805473ffffffffffffffffffffffffffffffffffffffff19166001600160a01b0392909216919091179055565b6000806118e985858561205a565b905061114a81866001612160565b60008160000361190957506000919050565b60006001611916846121d6565b901c6001901b9050600181848161192f5761192f612d3f565b048201901c9050600181848161194757611947612d3f565b048201901c9050600181848161195f5761195f612d3f565b048201901c9050600181848161197757611977612d3f565b048201901c9050600181848161198f5761198f612d3f565b048201901c905060018184816119a7576119a7612d3f565b048201901c905060018184816119bf576119bf612d3f565b048201901c9050611056818285816119d9576119d9612d3f565b0461226a565b60005b81831015611a395760006119f68484612280565b60008781526020902090915065ffffffffffff86169082015465ffffffffffff161115611a2557809250611a33565b611a30816001612cd3565b93505b506119e2565b509392505050565b600061074982610b79565b816001600160a01b0316836001600160a01b031614158015611a6e5750600081115b15610aa3576001600160a01b03831615611b16576001600160a01b0383166000908152600a602052604081208190611ab19061229b611aac866122a7565b6122db565b6001600160d01b031691506001600160d01b03169150846001600160a01b03167fdec2bacdd2f05b59de34da9b523dff8be42e5e38e818c82fdb0bae774387a7248383604051611b0b929190918252602082015260400190565b60405180910390a250505b6001600160a01b03821615610aa3576001600160a01b0382166000908152600a602052604081208190611b4f90612314611aac866122a7565b6001600160d01b031691506001600160d01b03169150836001600160a01b03167fdec2bacdd2f05b59de34da9b523dff8be42e5e38e818c82fdb0bae774387a7248383604051611ba9929190918252602082015260400190565b60405180910390a25050505050565b606060ff8314611bd257611bcb83612320565b9050610749565b818054611bde90612b18565b80601f0160208091040260200160405190810160405280929190818152602001828054611c0a90612b18565b8015611c575780601f10611c2c57610100808354040283529160200191611c57565b820191906000526020600020905b815481529060010190602001808311611c3a57829003601f168201915b50505050509050610749565b611c6d838361235f565b610aa360008484846114d6565b6000306001600160a01b037f000000000000000000000000000000000000000000000000000000000000000016148015611cd357507f000000000000000000000000000000000000000000000000000000000000000046145b15611cfd57507f000000000000000000000000000000000000000000000000000000000000000090565b610dbf604080517f8b73c3c69bb8fe3d512ecc4cf759cc79239f7b179b0ffacaa9a75d522b39400f60208201527f0000000000000000000000000000000000000000000000000000000000000000918101919091527f000000000000000000000000000000000000000000000000000000000000000060608201524660808201523060a082015260009060c00160405160208183030381529060405280519060200120905090565b600080807f7fffffffffffffffffffffffffffffff5d576e7357a4501ddfe92f46681b20a0841115611de05750600091506003905082611e6a565b604080516000808252602082018084528a905260ff891692820192909252606081018790526080810186905260019060a0016020604051602081039080840390855afa158015611e34573d6000803e3d6000fd5b5050604051601f1901519150506001600160a01b038116611e6057506000925060019150829050611e6a565b9250600091508190505b9450945094915050565b6000826003811115611e8857611e88612d55565b03611e91575050565b6001826003811115611ea557611ea5612d55565b03611edc576040517ff645eedf00000000000000000000000000000000000000000000000000000000815260040160405180910390fd5b6002826003811115611ef057611ef0612d55565b03611f2a576040517ffce698f700000000000000000000000000000000000000000000000000000000815260048101829052602401610880565b6003826003811115611f3e57611f3e612d55565b03610815576040517fd78bce0c00000000000000000000000000000000000000000000000000000000815260048101829052602401610880565b6000807a184f03e93ff9f4daa797ed6e38ed64bf6a1f0100000000000000008310611fc1577a184f03e93ff9f4daa797ed6e38ed64bf6a1f010000000000000000830492506040015b6d04ee2d6d415b85acef81000000008310611fed576d04ee2d6d415b85acef8100000000830492506020015b662386f26fc10000831061200b57662386f26fc10000830492506010015b6305f5e1008310612023576305f5e100830492506008015b612710831061203757612710830492506004015b60648310612049576064830492506002015b600a83106107495760010192915050565b6000828152600260205260408120546001600160a01b0390811690831615612087576120878184866123dd565b6001600160a01b038116156120c5576120a4600085600080611790565b6001600160a01b038116600090815260036020526040902080546000190190555b6001600160a01b038516156120f4576001600160a01b0385166000908152600360205260409020805460010190555b600084815260026020526040808220805473ffffffffffffffffffffffffffffffffffffffff19166001600160a01b0389811691821790925591518793918516917fddf252ad1be2c89b69c2b068fc378daa952ba7f163c4a11628f55a4df523b3ef91a4949350505050565b6001600160a01b0383166121825761217f600b612314611aac846122a7565b50505b6001600160a01b0382166121a4576121a1600b61229b611aac846122a7565b50505b6001600160a01b03838116600090815260096020526040808220548584168352912054610aa392918216911683611a4c565b600080608083901c156121eb57608092831c92015b604083901c156121fd57604092831c92015b602083901c1561220f57602092831c92015b601083901c1561222157601092831c92015b600883901c1561223357600892831c92015b600483901c1561224557600492831c92015b600283901c1561225757600292831c92015b600183901c156107495760010192915050565b60008183106122795781611056565b5090919050565b600061228f6002848418612d6b565b61105690848416612cd3565b60006110568284612d8d565b60006001600160d01b03821115611185576040516306dfcc6560e41b815260d0600482015260248101839052604401610880565b6000806123076122e9610db5565b6122ff6122f5886113c8565b868863ffffffff16565b87919061245a565b915091505b935093915050565b60006110568284612db4565b6060600061232d83612468565b604080516020808252818301909252919250600091906020820181803683375050509182525060208101929092525090565b6001600160a01b03821661238957604051633250574960e11b815260006004820152602401610880565b60006123978383600061113d565b90506001600160a01b03811615610aa3576040517f73c6ac6e00000000000000000000000000000000000000000000000000000000815260006004820152602401610880565b6123e88383836124a9565b610aa3576001600160a01b03831661241657604051637e27328960e01b815260048101829052602401610880565b6040517f177e802f0000000000000000000000000000000000000000000000000000000081526001600160a01b038316600482015260248101829052604401610880565b60008061230785858561252c565b600060ff8216601f811115610749576040517fb3512b0c00000000000000000000000000000000000000000000000000000000815260040160405180910390fd5b60006001600160a01b0383161580159061114a5750826001600160a01b0316846001600160a01b0316148061250357506001600160a01b0380851660009081526005602090815260408083209387168352929052205460ff165b8061114a5750506000908152600460205260409020546001600160a01b03908116911614919050565b82546000908190801561266d57600061254a8761120d600185612cc0565b60408051808201909152905465ffffffffffff80821680845266010000000000009092046001600160d01b0316602084015291925090871610156125ba576040517f2520601d00000000000000000000000000000000000000000000000000000000815260040160405180910390fd5b805165ffffffffffff80881691160361260957846125dd8861120d600186612cc0565b80546001600160d01b039290921666010000000000000265ffffffffffff90921691909117905561265d565b6040805180820190915265ffffffffffff80881682526001600160d01b0380881660208085019182528b54600181018d5560008d815291909120945191519092166601000000000000029216919091179101555b60200151925083915061230c9050565b50506040805180820190915265ffffffffffff80851682526001600160d01b0380851660208085019182528854600181018a5560008a815291822095519251909316660100000000000002919093161792019190915590508161230c565b6001600160e01b031981168114610f0557600080fd5b6000602082840312156126f357600080fd5b8135611056816126cb565b60005b83811015612719578181015183820152602001612701565b50506000910152565b6000815180845261273a8160208601602086016126fe565b601f01601f19169290920160200192915050565b6020815260006110566020830184612722565b60006020828403121561277357600080fd5b5035919050565b80356001600160a01b038116811461279157600080fd5b919050565b600080604083850312156127a957600080fd5b6127b28361277a565b946020939093013593505050565b8035801515811461279157600080fd5b6000602082840312156127e257600080fd5b611056826127c0565b60008060006060848603121561280057600080fd5b6128098461277a565b92506128176020850161277a565b9150604084013590509250925092565b6000806020838503121561283a57600080fd5b823567ffffffffffffffff8082111561285257600080fd5b818501915085601f83011261286657600080fd5b81358181111561287557600080fd5b86602082850101111561288757600080fd5b60209290920196919550909350505050565b6000602082840312156128ab57600080fd5b6110568261277a565b7fff00000000000000000000000000000000000000000000000000000000000000881681526000602060e060208401526128f160e084018a612722565b8381036040850152612903818a612722565b606085018990526001600160a01b038816608086015260a0850187905284810360c08601528551808252602080880193509091019060005b818110156129575783518352928401929184019160010161293b565b50909c9b505050505050505050505050565b6000806040838503121561297c57600080fd5b6129858361277a565b9150612993602084016127c0565b90509250929050565b634e487b7160e01b600052604160045260246000fd5b600080600080608085870312156129c857600080fd5b6129d18561277a565b93506129df6020860161277a565b925060408501359150606085013567ffffffffffffffff80821115612a0357600080fd5b818701915087601f830112612a1757600080fd5b813581811115612a2957612a2961299c565b604051601f8201601f19908116603f01168101908382118183101715612a5157612a5161299c565b816040528281528a6020848701011115612a6a57600080fd5b82602086016020830137600060208483010152809550505050505092959194509250565b60008060008060008060c08789031215612aa757600080fd5b612ab08761277a565b95506020870135945060408701359350606087013560ff81168114612ad457600080fd5b9598949750929560808101359460a0909101359350915050565b60008060408385031215612b0157600080fd5b612b0a8361277a565b91506129936020840161277a565b600181811c90821680612b2c57607f821691505b602082108103612b4c57634e487b7160e01b600052602260045260246000fd5b50919050565b601f821115610aa3576000816000526020600020601f850160051c81016020861015612b7b5750805b601f850160051c820191505b81811015612b9a57828155600101612b87565b505050505050565b67ffffffffffffffff831115612bba57612bba61299c565b612bce83612bc88354612b18565b83612b52565b6000601f841160018114612c025760008515612bea5750838201355b600019600387901b1c1916600186901b1783556115f8565b600083815260209020601f19861690835b82811015612c335786850135825560209485019460019092019101612c13565b5086821015612c505760001960f88860031b161c19848701351681555b505060018560011b0183555050505050565b634e487b7160e01b600052601160045260246000fd5b600060018201612c8a57612c8a612c62565b5060010190565b60008351612ca38184602088016126fe565b835190830190612cb78183602088016126fe565b01949350505050565b8181038181111561074957610749612c62565b8082018082111561074957610749612c62565b60006001600160a01b03808716835280861660208401525083604083015260806060830152612d186080830184612722565b9695505050505050565b600060208284031215612d3457600080fd5b8151611056816126cb565b634e487b7160e01b600052601260045260246000fd5b634e487b7160e01b600052602160045260246000fd5b600082612d8857634e487b7160e01b600052601260045260246000fd5b500490565b6001600160d01b03828116828216039080821115612dad57612dad612c62565b5092915050565b6001600160d01b03818116838216019080821115612dad57612dad612c6256fea26469706673582212207ca241b77161bb419e6a1acfe069aa9cd6b87f66afdd43f43af9990627adf8db64736f6c63430008180033",
  "linkReferences": {},
  "deployedLinkReferences": {}
}