{
  "_format": "hh-sol-artifact-1",
  "contractName": "Danyang",
  "sourceName": "contracts/Danyang.sol",
  "abi": [
    {
      "inputs": [
        {
          "internalType": "address",
          "name": "initialOwner",
          "type": "address"
        }
      ],
      "stateMutability": "nonpayable",
      "type": "constructor"
    },
    {
      "inputs": [
        {
          "internalType": "address",
          "name": "sender",
          "type": "address"
        },
        {
          "internalType": "uint256",
          "name": "tokenId",
          "type": "uint256"
        },
        {
          "internalType": "address",
          "name": "owner",
          "type": "address"
        }
      ],
      "name": "ERC721IncorrectOwner",
      "type": "error"
    },
    {
      "inputs": [
        {
          "internalType": "address",
          "name": "operator",
          "type": "address"
        },
        {
          "internalType": "uint256",
          "name": "tokenId",
          "type": "uint256"
        }
      ],
      "name": "ERC721InsufficientApproval",
      "type": "error"
    },
    {
      "inputs": [
        {
          "internalType": "address",
          "name": "approver",
          "type": "address"
        }
      ],
      "name": "ERC721InvalidApprover",
      "type": "error"
    },
    {
      "inputs": [
        {
          "internalType": "address",
          "name": "operator",
          "type": "address"
        }
      ],
      "name": "ERC721InvalidOperator",
      "type": "error"
    },
    {
      "inputs": [
        {
          "internalType": "address",
          "name": "owner",
          "type": "address"
        }
      ],
      "name": "ERC721InvalidOwner",
      "type": "error"
    },
    {
      "inputs": [
        {
          "internalType": "address",
          "name": "receiver",
          "type": "address"
        }
      ],
      "name": "ERC721InvalidReceiver",
      "type": "error"
    },
    {
      "inputs": [
        {
          "internalType": "address",
          "name": "sender",
          "type": "address"
        }
      ],
      "name": "ERC721InvalidSender",
      "type": "error"
    },
    {
      "inputs": [
        {
          "internalType": "uint256",
          "name": "tokenId",
          "type": "uint256"
        }
      ],
      "name": "ERC721NonexistentToken",
      "type": "error"
    },
    {
      "inputs": [
        {
          "internalType": "address",
          "name": "owner",
          "type": "address"
        }
      ],
      "name": "OwnableInvalidOwner",
      "type": "error"
    },
    {
      "inputs": [
        {
          "internalType": "address",
          "name": "account",
          "type": "address"
        }
      ],
      "name": "OwnableUnauthorizedAccount",
      "type": "error"
    },
    {
      "anonymous": false,
      "inputs": [
        {
          "indexed": true,
          "internalType": "address",
          "name": "owner",
          "type": "address"
        },
        {
          "indexed": true,
          "internalType": "address",
          "name": "approved",
          "type": "address"
        },
        {
          "indexed": true,
          "internalType": "uint256",
          "name": "tokenId",
          "type": "uint256"
        }
      ],
      "name": "Approval",
      "type": "event"
    },
    {
      "anonymous": false,
      "inputs": [
        {
          "indexed": true,
          "internalType": "address",
          "name": "owner",
          "type": "address"
        },
        {
          "indexed": true,
          "internalType": "address",
          "name": "operator",
          "type": "address"
        },
        {
          "indexed": false,
          "internalType": "bool",
          "name": "approved",
          "type": "bool"
        }
      ],
      "name": "ApprovalForAll",
      "type": "event"
    },
    {
      "anonymous": false,
      "inputs": [
        {
          "indexed": true,
          "internalType": "address",
          "name": "previousOwner",
          "type": "address"
        },
        {
          "indexed": true,
          "internalType": "address",
          "name": "newOwner",
          "type": "address"
        }
      ],
      "name": "OwnershipTransferred",
      "type": "event"
    },
    {
      "anonymous": false,
      "inputs": [
        {
          "indexed": true,
          "internalType": "address",
          "name": "from",
          "type": "address"
        },
        {
          "indexed": true,
          "internalType": "address",
          "name": "to",
          "type": "address"
        },
        {
          "indexed": true,
          "internalType": "uint256",
          "name": "tokenId",
          "type": "uint256"
        }
      ],
      "name": "Transfer",
      "type": "event"
    },
    {
      "inputs": [
        {
          "internalType": "address",
          "name": "to",
          "type": "address"
        },
        {
          "internalType": "uint256",
          "name": "tokenId",
          "type": "uint256"
        }
      ],
      "name": "approve",
      "outputs": [],
      "stateMutability": "nonpayable",
      "type": "function"
    },
    {
      "inputs": [
        {
          "internalType": "address",
          "name": "owner",
          "type": "address"
        }
      ],
      "name": "balanceOf",
      "outputs": [
        {
          "internalType": "uint256",
          "name": "",
          "type": "uint256"
        }
      ],
      "stateMutability": "view",
      "type": "function"
    },
    {
      "inputs": [],
      "name": "buyNFT",
      "outputs": [
        {
          "internalType": "string",
          "name": "",
          "type": "string"
        }
      ],
      "stateMutability": "payable",
      "type": "function"
    },
    {
      "inputs": [
        {
          "internalType": "uint256",
          "name": "tokenId",
          "type": "uint256"
        }
      ],
      "name": "getApproved",
      "outputs": [
        {
          "internalType": "address",
          "name": "",
          "type": "address"
        }
      ],
      "stateMutability": "view",
      "type": "function"
    },
    {
      "inputs": [
        {
          "internalType": "address",
          "name": "owner",
          "type": "address"
        },
        {
          "internalType": "address",
          "name": "operator",
          "type": "address"
        }
      ],
      "name": "isApprovedForAll",
      "outputs": [
        {
          "internalType": "bool",
          "name": "",
          "type": "bool"
        }
      ],
      "stateMutability": "view",
      "type": "function"
    },
    {
      "inputs": [],
      "name": "isOnSale",
      "outputs": [
        {
          "internalType": "bool",
          "name": "",
          "type": "bool"
        }
      ],
      "stateMutability": "view",
      "type": "function"
    },
    {
      "inputs": [],
      "name": "name",
      "outputs": [
        {
          "internalType": "string",
          "name": "",
          "type": "string"
        }
      ],
      "stateMutability": "view",
      "type": "function"
    },
    {
      "inputs": [],
      "name": "owner",
      "outputs": [
        {
          "internalType": "address",
          "name": "",
          "type": "address"
        }
      ],
      "stateMutability": "view",
      "type": "function"
    },
    {
      "inputs": [
        {
          "internalType": "uint256",
          "name": "tokenId",
          "type": "uint256"
        }
      ],
      "name": "ownerOf",
      "outputs": [
        {
          "internalType": "address",
          "name": "",
          "type": "address"
        }
      ],
      "stateMutability": "view",
      "type": "function"
    },
    {
      "inputs": [],
      "name": "price",
      "outputs": [
        {
          "internalType": "uint256",
          "name": "",
          "type": "uint256"
        }
      ],
      "stateMutability": "view",
      "type": "function"
    },
    {
      "inputs": [],
      "name": "renounceOwnership",
      "outputs": [],
      "stateMutability": "nonpayable",
      "type": "function"
    },
    {
      "inputs": [
        {
          "internalType": "address",
          "name": "from",
          "type": "address"
        },
        {
          "internalType": "address",
          "name": "to",
          "type": "address"
        },
        {
          "internalType": "uint256",
          "name": "tokenId",
          "type": "uint256"
        }
      ],
      "name": "safeTransferFrom",
      "outputs": [],
      "stateMutability": "nonpayable",
      "type": "function"
    },
    {
      "inputs": [
        {
          "internalType": "address",
          "name": "from",
          "type": "address"
        },
        {
          "internalType": "address",
          "name": "to",
          "type": "address"
        },
        {
          "internalType": "uint256",
          "name": "tokenId",
          "type": "uint256"
        },
        {
          "internalType": "bytes",
          "name": "data",
          "type": "bytes"
        }
      ],
      "name": "safeTransferFrom",
      "outputs": [],
      "stateMutability": "nonpayable",
      "type": "function"
    },
    {
      "inputs": [
        {
          "internalType": "address",
          "name": "operator",
          "type": "address"
        },
        {
          "internalType": "bool",
          "name": "approved",
          "type": "bool"
        }
      ],
      "name": "setApprovalForAll",
      "outputs": [],
      "stateMutability": "nonpayable",
      "type": "function"
    },
    {
      "inputs": [
        {
          "internalType": "bytes4",
          "name": "interfaceId",
          "type": "bytes4"
        }
      ],
      "name": "supportsInterface",
      "outputs": [
        {
          "internalType": "bool",
          "name": "",
          "type": "bool"
        }
      ],
      "stateMutability": "view",
      "type": "function"
    },
    {
      "inputs": [],
      "name": "symbol",
      "outputs": [
        {
          "internalType": "string",
          "name": "",
          "type": "string"
        }
      ],
      "stateMutability": "view",
      "type": "function"
    },
    {
      "inputs": [
        {
          "internalType": "uint256",
          "name": "tokenId",
          "type": "uint256"
        }
      ],
      "name": "tokenURI",
      "outputs": [
        {
          "internalType": "string",
          "name": "",
          "type": "string"
        }
      ],
      "stateMutability": "view",
      "type": "function"
    },
    {
      "inputs": [
        {
          "internalType": "address",
          "name": "from",
          "type": "address"
        },
        {
          "internalType": "address",
          "name": "to",
          "type": "address"
        },
        {
          "internalType": "uint256",
          "name": "tokenId",
          "type": "uint256"
        }
      ],
      "name": "transferFrom",
      "outputs": [],
      "stateMutability": "nonpayable",
      "type": "function"
    },
    {
      "inputs": [
        {
          "internalType": "address",
          "name": "newOwner",
          "type": "address"
        }
      ],
      "name": "transferOwnership",
      "outputs": [],
      "stateMutability": "nonpayable",
      "type": "function"
    },
    {
      "inputs": [
        {
          "internalType": "string",
          "name": "joinCode_",
          "type": "string"
        }
      ],
      "name": "updateJoinCode",
      "outputs": [],
      "stateMutability": "nonpayable",
      "type": "function"
    },
    {
      "inputs": [
        {
          "internalType": "bool",
          "name": "saleStatus_",
          "type": "bool"
        }
      ],
      "name": "updateSaleStatus",
      "outputs": [],
      "stateMutability": "nonpayable",
      "type": "function"
    },
    {
      "inputs": [],
      "name": "withdraw",
      "outputs": [],
      "stateMutability": "payable",
      "type": "function"
    }
  ],
  "bytecode": "0x60806040526001600860006101000a81548160ff0219169083151502179055506040518060400160405280600881526020017f616263643132333400000000000000000000000000000000000000000000000081525060099081620000659190620004fa565b503480156200007357600080fd5b506040516200323e3803806200323e83398181016040528101906200009991906200064b565b806040518060400160405280600781526020017f44616e79616e67000000000000000000000000000000000000000000000000008152506040518060400160405280600381526020017f44594d00000000000000000000000000000000000000000000000000000000008152508160009081620001179190620004fa565b508060019081620001299190620004fa565b505050600073ffffffffffffffffffffffffffffffffffffffff168173ffffffffffffffffffffffffffffffffffffffff1603620001a15760006040517f1e4fbdf70000000000000000000000000000000000000000000000000000000081526004016200019891906200068e565b60405180910390fd5b620001b281620001ba60201b60201c565b5050620006ab565b6000600660009054906101000a900473ffffffffffffffffffffffffffffffffffffffff16905081600660006101000a81548173ffffffffffffffffffffffffffffffffffffffff021916908373ffffffffffffffffffffffffffffffffffffffff1602179055508173ffffffffffffffffffffffffffffffffffffffff168173ffffffffffffffffffffffffffffffffffffffff167f8be0079c531659141344cd1fd0a4f28419497f9722a3daafe3b4186f6b6457e060405160405180910390a35050565b600081519050919050565b7f4e487b7100000000000000000000000000000000000000000000000000000000600052604160045260246000fd5b7f4e487b7100000000000000000000000000000000000000000000000000000000600052602260045260246000fd5b600060028204905060018216806200030257607f821691505b602082108103620003185762000317620002ba565b5b50919050565b60008190508160005260206000209050919050565b60006020601f8301049050919050565b600082821b905092915050565b600060088302620003827fffffffffffffffffffffffffffffffffffffffffffffffffffffffffffffffff8262000343565b6200038e868362000343565b95508019841693508086168417925050509392505050565b6000819050919050565b6000819050919050565b6000620003db620003d5620003cf84620003a6565b620003b0565b620003a6565b9050919050565b6000819050919050565b620003f783620003ba565b6200040f6200040682620003e2565b84845462000350565b825550505050565b600090565b6200042662000417565b62000433818484620003ec565b505050565b5b818110156200045b576200044f6000826200041c565b60018101905062000439565b5050565b601f821115620004aa5762000474816200031e565b6200047f8462000333565b810160208510156200048f578190505b620004a76200049e8562000333565b83018262000438565b50505b505050565b600082821c905092915050565b6000620004cf60001984600802620004af565b1980831691505092915050565b6000620004ea8383620004bc565b9150826002028217905092915050565b620005058262000280565b67ffffffffffffffff8111156200052157620005206200028b565b5b6200052d8254620002e9565b6200053a8282856200045f565b600060209050601f8311600181146200057257600084156200055d578287015190505b620005698582620004dc565b865550620005d9565b601f19841662000582866200031e565b60005b82811015620005ac5784890151825560018201915060208501945060208101905062000585565b86831015620005cc5784890151620005c8601f891682620004bc565b8355505b6001600288020188555050505b505050505050565b600080fd5b600073ffffffffffffffffffffffffffffffffffffffff82169050919050565b60006200061382620005e6565b9050919050565b620006258162000606565b81146200063157600080fd5b50565b60008151905062000645816200061a565b92915050565b600060208284031215620006645762000663620005e1565b5b6000620006748482850162000634565b91505092915050565b620006888162000606565b82525050565b6000602082019050620006a560008301846200067d565b92915050565b612b8380620006bb6000396000f3fe6080604052600436106101355760003560e01c8063890e839f116100ab578063a22cb4651161006f578063a22cb465146103f3578063b88d4fde1461041c578063bff29cee14610445578063c87b56dd14610463578063e985e9c5146104a0578063f2fde38b146104dd57610135565b8063890e839f1461031e5780638da5cb5b14610349578063934feb131461037457806395d89b411461039d578063a035b1fe146103c857610135565b806323b872dd116100fd57806323b872dd146102315780633ccfd60b1461025a57806342842e0e146102645780636352211e1461028d57806370a08231146102ca578063715018a61461030757610135565b806301ffc9a71461013a57806306fdde0314610177578063081812fc146101a2578063095ea7b3146101df5780630a08894914610208575b600080fd5b34801561014657600080fd5b50610161600480360381019061015c9190611d14565b610506565b60405161016e9190611d5c565b60405180910390f35b34801561018357600080fd5b5061018c6105e8565b6040516101999190611e07565b60405180910390f35b3480156101ae57600080fd5b506101c960048036038101906101c49190611e5f565b61067a565b6040516101d69190611ecd565b60405180910390f35b3480156101eb57600080fd5b5061020660048036038101906102019190611f14565b610696565b005b34801561021457600080fd5b5061022f600480360381019061022a9190611f80565b6106ac565b005b34801561023d57600080fd5b5061025860048036038101906102539190611fad565b6106d1565b005b6102626107d3565b005b34801561027057600080fd5b5061028b60048036038101906102869190611fad565b6108d3565b005b34801561029957600080fd5b506102b460048036038101906102af9190611e5f565b6108f3565b6040516102c19190611ecd565b60405180910390f35b3480156102d657600080fd5b506102f160048036038101906102ec9190612000565b610905565b6040516102fe919061203c565b60405180910390f35b34801561031357600080fd5b5061031c6109bf565b005b34801561032a57600080fd5b506103336109d3565b6040516103409190611d5c565b60405180910390f35b34801561035557600080fd5b5061035e6109ea565b60405161036b9190611ecd565b60405180910390f35b34801561038057600080fd5b5061039b6004803603810190610396919061218c565b610a14565b005b3480156103a957600080fd5b506103b2610a2f565b6040516103bf9190611e07565b60405180910390f35b3480156103d457600080fd5b506103dd610ac1565b6040516103ea919061203c565b60405180910390f35b3480156103ff57600080fd5b5061041a600480360381019061041591906121d5565b610acc565b005b34801561042857600080fd5b50610443600480360381019061043e91906122b6565b610ae2565b005b61044d610aff565b60405161045a9190611e07565b60405180910390f35b34801561046f57600080fd5b5061048a60048036038101906104859190611e5f565b610c54565b6040516104979190611e07565b60405180910390f35b3480156104ac57600080fd5b506104c760048036038101906104c29190612339565b610cbd565b6040516104d49190611d5c565b60405180910390f35b3480156104e957600080fd5b5061050460048036038101906104ff9190612000565b610d51565b005b60007f80ac58cd000000000000000000000000000000000000000000000000000000007bffffffffffffffffffffffffffffffffffffffffffffffffffffffff1916827bffffffffffffffffffffffffffffffffffffffffffffffffffffffff191614806105d157507f5b5e139f000000000000000000000000000000000000000000000000000000007bffffffffffffffffffffffffffffffffffffffffffffffffffffffff1916827bffffffffffffffffffffffffffffffffffffffffffffffffffffffff1916145b806105e157506105e082610dd7565b5b9050919050565b6060600080546105f7906123a8565b80601f0160208091040260200160405190810160405280929190818152602001828054610623906123a8565b80156106705780601f1061064557610100808354040283529160200191610670565b820191906000526020600020905b81548152906001019060200180831161065357829003601f168201915b5050505050905090565b600061068582610e41565b5061068f82610ec9565b9050919050565b6106a882826106a3610f06565b610f0e565b5050565b6106b4610f20565b80600860006101000a81548160ff02191690831515021790555050565b600073ffffffffffffffffffffffffffffffffffffffff168273ffffffffffffffffffffffffffffffffffffffff16036107435760006040517f64a0ae9200000000000000000000000000000000000000000000000000000000815260040161073a9190611ecd565b60405180910390fd5b60006107578383610752610f06565b610fa7565b90508373ffffffffffffffffffffffffffffffffffffffff168173ffffffffffffffffffffffffffffffffffffffff16146107cd578382826040517f64283d7b0000000000000000000000000000000000000000000000000000000081526004016107c4939291906123d9565b60405180910390fd5b50505050565b6107db610f20565b600047905060008111610823576040517f08c379a000000000000000000000000000000000000000000000000000000000815260040161081a9061245c565b60405180910390fd5b60003373ffffffffffffffffffffffffffffffffffffffff1682604051610849906124ad565b60006040518083038185875af1925050503d8060008114610886576040519150601f19603f3d011682016040523d82523d6000602084013e61088b565b606091505b50509050806108cf576040517f08c379a00000000000000000000000000000000000000000000000000000000081526004016108c69061250e565b60405180910390fd5b5050565b6108ee83838360405180602001604052806000815250610ae2565b505050565b60006108fe82610e41565b9050919050565b60008073ffffffffffffffffffffffffffffffffffffffff168273ffffffffffffffffffffffffffffffffffffffff16036109785760006040517f89c62b6400000000000000000000000000000000000000000000000000000000815260040161096f9190611ecd565b60405180910390fd5b600360008373ffffffffffffffffffffffffffffffffffffffff1673ffffffffffffffffffffffffffffffffffffffff168152602001908152602001600020549050919050565b6109c7610f20565b6109d160006111c1565b565b6000600860009054906101000a900460ff16905090565b6000600660009054906101000a900473ffffffffffffffffffffffffffffffffffffffff16905090565b610a1c610f20565b8060099081610a2b91906126da565b5050565b606060018054610a3e906123a8565b80601f0160208091040260200160405190810160405280929190818152602001828054610a6a906123a8565b8015610ab75780601f10610a8c57610100808354040283529160200191610ab7565b820191906000526020600020905b815481529060010190602001808311610a9a57829003601f168201915b5050505050905090565b662386f26fc1000081565b610ade610ad7610f06565b8383611287565b5050565b610aed8484846106d1565b610af9848484846113f6565b50505050565b6060600860009054906101000a900460ff16610b50576040517f08c379a0000000000000000000000000000000000000000000000000000000008152600401610b47906127f8565b60405180910390fd5b662386f26fc10000341015610b9a576040517f08c379a0000000000000000000000000000000000000000000000000000000008152600401610b919061288a565b60405180910390fd5b60076000815480929190610bad906128d9565b919050555060006007549050610bc333826115ad565b60098054610bd0906123a8565b80601f0160208091040260200160405190810160405280929190818152602001828054610bfc906123a8565b8015610c495780601f10610c1e57610100808354040283529160200191610c49565b820191906000526020600020905b815481529060010190602001808311610c2c57829003601f168201915b505050505091505090565b6060610c5f82610e41565b506000610c6a6115cb565b90506000815111610c8a5760405180602001604052806000815250610cb5565b80610c94846115eb565b604051602001610ca592919061295d565b6040516020818303038152906040525b915050919050565b6000600560008473ffffffffffffffffffffffffffffffffffffffff1673ffffffffffffffffffffffffffffffffffffffff16815260200190815260200160002060008373ffffffffffffffffffffffffffffffffffffffff1673ffffffffffffffffffffffffffffffffffffffff16815260200190815260200160002060009054906101000a900460ff16905092915050565b610d59610f20565b600073ffffffffffffffffffffffffffffffffffffffff168173ffffffffffffffffffffffffffffffffffffffff1603610dcb5760006040517f1e4fbdf7000000000000000000000000000000000000000000000000000000008152600401610dc29190611ecd565b60405180910390fd5b610dd4816111c1565b50565b60007f01ffc9a7000000000000000000000000000000000000000000000000000000007bffffffffffffffffffffffffffffffffffffffffffffffffffffffff1916827bffffffffffffffffffffffffffffffffffffffffffffffffffffffff1916149050919050565b600080610e4d836116b9565b9050600073ffffffffffffffffffffffffffffffffffffffff168173ffffffffffffffffffffffffffffffffffffffff1603610ec057826040517f7e273289000000000000000000000000000000000000000000000000000000008152600401610eb7919061203c565b60405180910390fd5b80915050919050565b60006004600083815260200190815260200160002060009054906101000a900473ffffffffffffffffffffffffffffffffffffffff169050919050565b600033905090565b610f1b83838360016116f6565b505050565b610f28610f06565b73ffffffffffffffffffffffffffffffffffffffff16610f466109ea565b73ffffffffffffffffffffffffffffffffffffffff1614610fa557610f69610f06565b6040517f118cdaa7000000000000000000000000000000000000000000000000000000008152600401610f9c9190611ecd565b60405180910390fd5b565b600080610fb3846116b9565b9050600073ffffffffffffffffffffffffffffffffffffffff168373ffffffffffffffffffffffffffffffffffffffff1614610ff557610ff48184866118bb565b5b600073ffffffffffffffffffffffffffffffffffffffff168173ffffffffffffffffffffffffffffffffffffffff1614611086576110376000856000806116f6565b6001600360008373ffffffffffffffffffffffffffffffffffffffff1673ffffffffffffffffffffffffffffffffffffffff168152602001908152602001600020600082825403925050819055505b600073ffffffffffffffffffffffffffffffffffffffff168573ffffffffffffffffffffffffffffffffffffffff1614611109576001600360008773ffffffffffffffffffffffffffffffffffffffff1673ffffffffffffffffffffffffffffffffffffffff168152602001908152602001600020600082825401925050819055505b846002600086815260200190815260200160002060006101000a81548173ffffffffffffffffffffffffffffffffffffffff021916908373ffffffffffffffffffffffffffffffffffffffff160217905550838573ffffffffffffffffffffffffffffffffffffffff168273ffffffffffffffffffffffffffffffffffffffff167fddf252ad1be2c89b69c2b068fc378daa952ba7f163c4a11628f55a4df523b3ef60405160405180910390a4809150509392505050565b6000600660009054906101000a900473ffffffffffffffffffffffffffffffffffffffff16905081600660006101000a81548173ffffffffffffffffffffffffffffffffffffffff021916908373ffffffffffffffffffffffffffffffffffffffff1602179055508173ffffffffffffffffffffffffffffffffffffffff168173ffffffffffffffffffffffffffffffffffffffff167f8be0079c531659141344cd1fd0a4f28419497f9722a3daafe3b4186f6b6457e060405160405180910390a35050565b600073ffffffffffffffffffffffffffffffffffffffff168273ffffffffffffffffffffffffffffffffffffffff16036112f857816040517f5b08ba180000000000000000000000000000000000000000000000000000000081526004016112ef9190611ecd565b60405180910390fd5b80600560008573ffffffffffffffffffffffffffffffffffffffff1673ffffffffffffffffffffffffffffffffffffffff16815260200190815260200160002060008473ffffffffffffffffffffffffffffffffffffffff1673ffffffffffffffffffffffffffffffffffffffff16815260200190815260200160002060006101000a81548160ff0219169083151502179055508173ffffffffffffffffffffffffffffffffffffffff168373ffffffffffffffffffffffffffffffffffffffff167f17307eab39ab6107e8899845ad3d59bd9653f200f220920489ca2b5937696c31836040516113e99190611d5c565b60405180910390a3505050565b60008373ffffffffffffffffffffffffffffffffffffffff163b11156115a7578273ffffffffffffffffffffffffffffffffffffffff1663150b7a0261143a610f06565b8685856040518563ffffffff1660e01b815260040161145c94939291906129d6565b6020604051808303816000875af192505050801561149857506040513d601f19601f820116820180604052508101906114959190612a37565b60015b61151c573d80600081146114c8576040519150601f19603f3d011682016040523d82523d6000602084013e6114cd565b606091505b50600081510361151457836040517f64a0ae9200000000000000000000000000000000000000000000000000000000815260040161150b9190611ecd565b60405180910390fd5b805181602001fd5b63150b7a0260e01b7bffffffffffffffffffffffffffffffffffffffffffffffffffffffff1916817bffffffffffffffffffffffffffffffffffffffffffffffffffffffff1916146115a557836040517f64a0ae9200000000000000000000000000000000000000000000000000000000815260040161159c9190611ecd565b60405180910390fd5b505b50505050565b6115c782826040518060200160405280600081525061197f565b5050565b60606040518060c0016040528060918152602001612abd60919139905090565b6060600060016115fa8461199b565b01905060008167ffffffffffffffff81111561161957611618612061565b5b6040519080825280601f01601f19166020018201604052801561164b5781602001600182028036833780820191505090505b509050600082602001820190505b6001156116ae578080600190039150507f3031323334353637383961626364656600000000000000000000000000000000600a86061a8153600a85816116a2576116a1612a64565b5b04945060008503611659575b819350505050919050565b60006002600083815260200190815260200160002060009054906101000a900473ffffffffffffffffffffffffffffffffffffffff169050919050565b808061172f5750600073ffffffffffffffffffffffffffffffffffffffff168273ffffffffffffffffffffffffffffffffffffffff1614155b1561186357600061173f84610e41565b9050600073ffffffffffffffffffffffffffffffffffffffff168373ffffffffffffffffffffffffffffffffffffffff16141580156117aa57508273ffffffffffffffffffffffffffffffffffffffff168173ffffffffffffffffffffffffffffffffffffffff1614155b80156117bd57506117bb8184610cbd565b155b156117ff57826040517fa9fbf51f0000000000000000000000000000000000000000000000000000000081526004016117f69190611ecd565b60405180910390fd5b811561186157838573ffffffffffffffffffffffffffffffffffffffff168273ffffffffffffffffffffffffffffffffffffffff167f8c5be1e5ebec7d5bd14f71427d1e84f3dd0314c0f7b2291e5b200ac8c7c3b92560405160405180910390a45b505b836004600085815260200190815260200160002060006101000a81548173ffffffffffffffffffffffffffffffffffffffff021916908373ffffffffffffffffffffffffffffffffffffffff16021790555050505050565b6118c6838383611aee565b61197a57600073ffffffffffffffffffffffffffffffffffffffff168373ffffffffffffffffffffffffffffffffffffffff160361193b57806040517f7e273289000000000000000000000000000000000000000000000000000000008152600401611932919061203c565b60405180910390fd5b81816040517f177e802f000000000000000000000000000000000000000000000000000000008152600401611971929190612a93565b60405180910390fd5b505050565b6119898383611baf565b61199660008484846113f6565b505050565b600080600090507a184f03e93ff9f4daa797ed6e38ed64bf6a1f01000000000000000083106119f9577a184f03e93ff9f4daa797ed6e38ed64bf6a1f01000000000000000083816119ef576119ee612a64565b5b0492506040810190505b6d04ee2d6d415b85acef81000000008310611a36576d04ee2d6d415b85acef81000000008381611a2c57611a2b612a64565b5b0492506020810190505b662386f26fc100008310611a6557662386f26fc100008381611a5b57611a5a612a64565b5b0492506010810190505b6305f5e1008310611a8e576305f5e1008381611a8457611a83612a64565b5b0492506008810190505b6127108310611ab3576127108381611aa957611aa8612a64565b5b0492506004810190505b60648310611ad65760648381611acc57611acb612a64565b5b0492506002810190505b600a8310611ae5576001810190505b80915050919050565b60008073ffffffffffffffffffffffffffffffffffffffff168373ffffffffffffffffffffffffffffffffffffffff1614158015611ba657508273ffffffffffffffffffffffffffffffffffffffff168473ffffffffffffffffffffffffffffffffffffffff161480611b675750611b668484610cbd565b5b80611ba557508273ffffffffffffffffffffffffffffffffffffffff16611b8d83610ec9565b73ffffffffffffffffffffffffffffffffffffffff16145b5b90509392505050565b600073ffffffffffffffffffffffffffffffffffffffff168273ffffffffffffffffffffffffffffffffffffffff1603611c215760006040517f64a0ae92000000000000000000000000000000000000000000000000000000008152600401611c189190611ecd565b60405180910390fd5b6000611c2f83836000610fa7565b9050600073ffffffffffffffffffffffffffffffffffffffff168173ffffffffffffffffffffffffffffffffffffffff1614611ca35760006040517f73c6ac6e000000000000000000000000000000000000000000000000000000008152600401611c9a9190611ecd565b60405180910390fd5b505050565b6000604051905090565b600080fd5b600080fd5b60007fffffffff0000000000000000000000000000000000000000000000000000000082169050919050565b611cf181611cbc565b8114611cfc57600080fd5b50565b600081359050611d0e81611ce8565b92915050565b600060208284031215611d2a57611d29611cb2565b5b6000611d3884828501611cff565b91505092915050565b60008115159050919050565b611d5681611d41565b82525050565b6000602082019050611d716000830184611d4d565b92915050565b600081519050919050565b600082825260208201905092915050565b60005b83811015611db1578082015181840152602081019050611d96565b60008484015250505050565b6000601f19601f8301169050919050565b6000611dd982611d77565b611de38185611d82565b9350611df3818560208601611d93565b611dfc81611dbd565b840191505092915050565b60006020820190508181036000830152611e218184611dce565b905092915050565b6000819050919050565b611e3c81611e29565b8114611e4757600080fd5b50565b600081359050611e5981611e33565b92915050565b600060208284031215611e7557611e74611cb2565b5b6000611e8384828501611e4a565b91505092915050565b600073ffffffffffffffffffffffffffffffffffffffff82169050919050565b6000611eb782611e8c565b9050919050565b611ec781611eac565b82525050565b6000602082019050611ee26000830184611ebe565b92915050565b611ef181611eac565b8114611efc57600080fd5b50565b600081359050611f0e81611ee8565b92915050565b60008060408385031215611f2b57611f2a611cb2565b5b6000611f3985828601611eff565b9250506020611f4a85828601611e4a565b9150509250929050565b611f5d81611d41565b8114611f6857600080fd5b50565b600081359050611f7a81611f54565b92915050565b600060208284031215611f9657611f95611cb2565b5b6000611fa484828501611f6b565b91505092915050565b600080600060608486031215611fc657611fc5611cb2565b5b6000611fd486828701611eff565b9350506020611fe586828701611eff565b9250506040611ff686828701611e4a565b9150509250925092565b60006020828403121561201657612015611cb2565b5b600061202484828501611eff565b91505092915050565b61203681611e29565b82525050565b6000602082019050612051600083018461202d565b92915050565b600080fd5b600080fd5b7f4e487b7100000000000000000000000000000000000000000000000000000000600052604160045260246000fd5b61209982611dbd565b810181811067ffffffffffffffff821117156120b8576120b7612061565b5b80604052505050565b60006120cb611ca8565b90506120d78282612090565b919050565b600067ffffffffffffffff8211156120f7576120f6612061565b5b61210082611dbd565b9050602081019050919050565b82818337600083830152505050565b600061212f61212a846120dc565b6120c1565b90508281526020810184848401111561214b5761214a61205c565b5b61215684828561210d565b509392505050565b600082601f83011261217357612172612057565b5b813561218384826020860161211c565b91505092915050565b6000602082840312156121a2576121a1611cb2565b5b600082013567ffffffffffffffff8111156121c0576121bf611cb7565b5b6121cc8482850161215e565b91505092915050565b600080604083850312156121ec576121eb611cb2565b5b60006121fa85828601611eff565b925050602061220b85828601611f6b565b9150509250929050565b600067ffffffffffffffff8211156122305761222f612061565b5b61223982611dbd565b9050602081019050919050565b600061225961225484612215565b6120c1565b9050828152602081018484840111156122755761227461205c565b5b61228084828561210d565b509392505050565b600082601f83011261229d5761229c612057565b5b81356122ad848260208601612246565b91505092915050565b600080600080608085870312156122d0576122cf611cb2565b5b60006122de87828801611eff565b94505060206122ef87828801611eff565b935050604061230087828801611e4a565b925050606085013567ffffffffffffffff81111561232157612320611cb7565b5b61232d87828801612288565b91505092959194509250565b600080604083850312156123505761234f611cb2565b5b600061235e85828601611eff565b925050602061236f85828601611eff565b9150509250929050565b7f4e487b7100000000000000000000000000000000000000000000000000000000600052602260045260246000fd5b600060028204905060018216806123c057607f821691505b6020821081036123d3576123d2612379565b5b50919050565b60006060820190506123ee6000830186611ebe565b6123fb602083018561202d565b6124086040830184611ebe565b949350505050565b7f4e6f204574686572206c65667420746f20776974686472617700000000000000600082015250565b6000612446601983611d82565b915061245182612410565b602082019050919050565b6000602082019050818103600083015261247581612439565b9050919050565b600081905092915050565b50565b600061249760008361247c565b91506124a282612487565b600082019050919050565b60006124b88261248a565b9150819050919050565b7f5472616e73666572206661696c65642e00000000000000000000000000000000600082015250565b60006124f8601083611d82565b9150612503826124c2565b602082019050919050565b60006020820190508181036000830152612527816124eb565b9050919050565b60008190508160005260206000209050919050565b60006020601f8301049050919050565b600082821b905092915050565b6000600883026125907fffffffffffffffffffffffffffffffffffffffffffffffffffffffffffffffff82612553565b61259a8683612553565b95508019841693508086168417925050509392505050565b6000819050919050565b60006125d76125d26125cd84611e29565b6125b2565b611e29565b9050919050565b6000819050919050565b6125f1836125bc565b6126056125fd826125de565b848454612560565b825550505050565b600090565b61261a61260d565b6126258184846125e8565b505050565b5b818110156126495761263e600082612612565b60018101905061262b565b5050565b601f82111561268e5761265f8161252e565b61266884612543565b81016020851015612677578190505b61268b61268385612543565b83018261262a565b50505b505050565b600082821c905092915050565b60006126b160001984600802612693565b1980831691505092915050565b60006126ca83836126a0565b9150826002028217905092915050565b6126e382611d77565b67ffffffffffffffff8111156126fc576126fb612061565b5b61270682546123a8565b61271182828561264d565b600060209050601f8311600181146127445760008415612732578287015190505b61273c85826126be565b8655506127a4565b601f1984166127528661252e565b60005b8281101561277a57848901518255600182019150602085019450602081019050612755565b868310156127975784890151612793601f8916826126a0565b8355505b6001600288020188555050505b505050505050565b7f44616e79616e673a204e6f74206f6e2073616c65206e6f770000000000000000600082015250565b60006127e2601883611d82565b91506127ed826127ac565b602082019050919050565b60006020820190508181036000830152612811816127d5565b9050919050565b7f44616e79616e673a204e6f7420656e6f7567682062616c616e636520746f206260008201527f7579000000000000000000000000000000000000000000000000000000000000602082015250565b6000612874602283611d82565b915061287f82612818565b604082019050919050565b600060208201905081810360008301526128a381612867565b9050919050565b7f4e487b7100000000000000000000000000000000000000000000000000000000600052601160045260246000fd5b60006128e482611e29565b91507fffffffffffffffffffffffffffffffffffffffffffffffffffffffffffffffff8203612916576129156128aa565b5b600182019050919050565b600081905092915050565b600061293782611d77565b6129418185612921565b9350612951818560208601611d93565b80840191505092915050565b6000612969828561292c565b9150612975828461292c565b91508190509392505050565b600081519050919050565b600082825260208201905092915050565b60006129a882612981565b6129b2818561298c565b93506129c2818560208601611d93565b6129cb81611dbd565b840191505092915050565b60006080820190506129eb6000830187611ebe565b6129f86020830186611ebe565b612a05604083018561202d565b8181036060830152612a17818461299d565b905095945050505050565b600081519050612a3181611ce8565b92915050565b600060208284031215612a4d57612a4c611cb2565b5b6000612a5b84828501612a22565b91505092915050565b7f4e487b7100000000000000000000000000000000000000000000000000000000600052601260045260246000fd5b6000604082019050612aa86000830185611ebe565b612ab5602083018461202d565b939250505056fe68747470733a2f2f697066732e696f2f697066732f516d65457845596f66747662595176515768434d6456677561314d415274795162445556565039397355473864433f66696c656e616d653d2545432539442542342545422542302541392545432539412542345f2545422538462538342545422538422542342545432538322542432545422542342538392e6a7067a2646970667358221220cf0ae4e8172b8e61de55bb4f598ea4d72ac261d502a77f3ba9c4911036897f5864736f6c63430008180033",
  "linkReferences": {},
  "deployedLinkReferences": {}
}